:100000000C9434000C9451000C9451000C94510049
:100010000C9451000C941B020C9451000C94510050
:100020000C9451000C9425020C9451000C94510036
:100030000C9451000C9451000C9451000C945100FC
:100040000C9451000C9451000C9451000C945100EC
:100050000C9451000C9450020C9451000C945100DB
:100060000C9451000C94510011241FBECFEFD8E026
:10007000DEBFCDBF11E0A0E0B1E0E2E7F9E002C0F1
:1000800005900D92A430B107D9F711E0A4E0B1E0DA
:1000900001C01D92A036B107E1F70E945A020C94EC
:1000A000B7040C9400005E9A00C05E980895A1E029
:1000B000B0E0EDE5F0E00C943904662311F05C9AB1
:1000C00001C05C985D989AB19F609AB91BB1107F8E
:1000D000982F92959F70912B9BB989830E94530012
:1000E00089818F70812B8BB90E9453001F601BB9CF
:1000F0002196E3E00C9455045C985D9A8AB1807F68
:100100008AB95E9A00C089B15E9800C05E9A00C04C
:1001100099B19F708295807F5E98892B08950E9487
:100120007C0087FDFCCF81E08A95F1F70E947C007E
:10013000089583B7866083BF08957894E4E6F0E07D
:100140008081806880838081826080830E949900A2
:1001500083B7816083BF88950895EAE7F0E09081D6
:1001600091609083ECE7F0E09081906C90839081B7
:100170009062982B9083EEE7F0E01082908121E06E
:1001800030E002C0220F331F8A95E2F7922B908352
:100190000895EAE7F0E0808180688083808188604C
:1001A00080838081806480830895EAE7F0E0808125
:1001B0008F77808308951F93182F0E948F00812FBF
:1001C00060E00E9457001F91089581E00E94DB00CB
:1001D00008951F93182F0E948F001A3049F480341D
:1001E00010F480E401C080E080580E94DB0004C06D
:1001F000812F61E00E9457001F910895CF93DF93F4
:10020000EC0102C00E94E90089918823D9F7DF91AF
:10021000CF9108950F931F93182F8AB18F678AB9D2
:10022000E0EAFFE03197F1F7599A589A0E9453009B
:10023000E0EEF4E03197F1F70E94530005E1802FE2
:100240008A95F1F70E945300802F8A95F1F758980C
:100250000E9453000A95F1F788E20E94DB0088E0D3
:100260000E94DB000E94E50086E00E94DB00812FF7
:100270000E94DB001F910F9108951092B000E1EBF6
:10028000F0E0808182608083E0E7F0E0808181603F
:10029000808382E88093B20008952F923F924F921C
:1002A0005F927F928F929F92AF92BF92CF92DF9296
:1002B000EF92FF920F931F93DF93CF9300D000D064
:1002C000CDB7DEB77C836B831A013A83298328017B
:1002D000DC01AD90BD90CD90DC90C601B50120E869
:1002E00031E541E050E00E940804922E832E622FF7
:1002F000732FCA0120E83EEA4EEF5FEF0E94D5035C
:100300007B018C01EA0CFB1C0C1D1D1DC801B701F3
:1003100020E13EE040E050E00E940804722E622F8F
:10032000732FCA0120EF31EF4FEF5FEF0E94D5032B
:100330005B016C01AE0CBF1CC01ED11EC601B50115
:100340002CE330E040E050E00E940804C401AB819F
:10035000BC819C9311968C93D1017C92A981BA8126
:100360002C93B901CA0124EC3FEF4FEF5FEF0E94DD
:10037000D5036A0D7B1D8C1D9D1DF20160830F90BE
:100380000F900F900F90CF91DF911F910F91FF90E1
:10039000EF90DF90CF90BF90AF909F908F907F9025
:1003A0005F904F903F902F900895A0E0B0E0EBED6C
:1003B000F1E00C943504EC01D22E802F552747FD37
:1003C000509520E13EE0429F7001439FF00C529F08
:1003D000F00C11240027F7FC0095102F992787FDBA
:1003E0009095A92FB92FE80EF91E0A1F1B1F882709
:1003F00077FD8095982F20E831E541E050E00E949C
:10040000D503E60EF71E081F191F8CE32D2D2802B9
:10041000C0011124AA2797FDA095BA2FE80EF91E56
:100420000A1F1B1FE882F9820A831B83CDB7DEB740
:10043000E7E00C9451041F920F920FB60F92112413
:100440000F900FBE0F901F9018951F920F920FB62E
:100450000F9211248F939F9383B78E7F83BF82E87F
:100460008093B20080915D0190915E01019690931E
:100470005E0180935D01809156018F5F80935601EC
:1004800080915B0190915C01019690935C01809357
:100490005B019F918F910F900FBE0F901F90189549
:1004A0001F920F920FB60F9211240F900FBE0F9054
:1004B0001F901895A3E1B0E0E0E6F2E00C942A0466
:1004C0003D9A80E090E00E94AD008CE00E940A011D
:1004D0000E94E5000E943D011092570110925801C0
:1004E0001092590110925A011D821C8219821A829F
:1004F0008AE38B8380E090E02AE530E0FC01EE0F98
:10050000FF1FEC5FFE4F31832083019688329105F7
:10051000A9F7FF24EE2484E0682E712C6C0E7D1E5A
:1005200002E0402E512C4C0E5D1E13E0C12ED12C4A
:10053000CC0EDD1E5E010894A11CB11CB6E02B2E72
:10054000312C2C0E3D1E80915D0190915E0123E0C7
:10055000883E920708F494C0809157019091580109
:10056000A0915901B0915A010196A11DB11D80932E
:10057000570190935801A0935901B0935A0187E510
:1005800091E0B301A501920186010E944D010E94F4
:10059000E5008B81992787FD9095B1014AE050E0F5
:1005A0000E9461048A81992787FD9095BE01685F4A
:1005B0007F4F4AE050E00E9461048981992787FDBE
:1005C0009095BE01665F7F4F4AE050E00E94610453
:1005D0008C819D81BE01645F7F4F4AE050E00E94A4
:1005E00061040E94E5008C850E94E9008D850E94CF
:1005F000E90080E091E00E94FE008A850E94E90007
:100600008B850E94E90080E091E00E94FE008885D1
:100610000E94E90089850E94E90080E091E00E9443
:10062000FE008E810E94E9008F810E94E900E09126
:100630005F01F0E0EE0FFF1FEC5FFE4F6081718104
:1006400080E090E0AE01415F5F4F2AE030E00E9421
:10065000820482E091E00E94FE008F850E94E90002
:1006600088890E94E90089890E94E9008A890E949C
:10067000E9008B890E94E90010925E0110925D01F1
:1006800080915601843608F48DC010925601E09195
:100690005F01F0E0EE0FFF1FEC5FFE4F1182108252
:1006A0000E94C90080917A0086FDFCCFE0915F0135
:1006B000F0E08091780090E0EE0FFF1FEC5FFE4FBE
:1006C00091838083E0915F01F0E0EE0FFF1FEC5F0C
:1006D000FE4F8081918120917900922E8824880D8F
:1006E000991D9183808360E070E020E030E0FB01A1
:1006F000EE0FFF1FEC5FFE4F80819181280F391FA5
:100700006F5F7F4F6832710591F7C9010E94F40352
:10071000E0915F01F0E0EE0FFF1FEC5FFE4F2081E4
:100720003181862F90E00A968217930770F4EE20AD
:1007300061F480915B0190915C0110925C011092D8
:100740005B01459AEE24E3941AC0E0915F01F0E06A
:10075000EE0FFF1FEC5FFE4F8081918170E08617E6
:10076000970768F48E2D813051F480915B01909150
:100770005C0121E08D32920710F04598EE2483E071
:1007800090915F019F5F90935F0190915F0198321C
:1007900010F010925F01815099F7F3948F2D8A30F9
:1007A00008F0FF240E949D00CECE629FD001739F6F
:1007B000F001829FE00DF11D649FE00DF11D929FFD
:1007C000F00D839FF00D749FF00D659FF00D99273C
:1007D000729FB00DE11DF91F639FB00DE11DF91F60
:1007E000BD01CF0111240895AA1BBB1B51E107C015
:1007F000AA1FBB1FA617B70710F0A61BB70B881FB1
:10080000991F5A95A9F780959095BC01CD0108953F
:10081000A1E21A2EAA1BBB1BFD010DC0AA1FBB1F04
:10082000EE1FFF1FA217B307E407F50720F0A21B76
:10083000B30BE40BF50B661F771F881F991F1A94E3
:1008400069F760957095809590959B01AC01BD010D
:10085000CF0108952F923F924F925F926F927F92B5
:100860008F929F92AF92BF92CF92DF92EF92FF92C0
:100870000F931F93CF93DF93CDB7DEB7CA1BDB0B6C
:100880000FB6F894DEBF0FBECDBF09942A88398811
:1008900048885F846E847D848C849B84AA84B98418
:1008A000C884DF80EE80FD800C811B81AA81B98124
:1008B000CE0FD11D0FB6F894DEBF0FBECDBFED0138
:1008C0000895FB019F01E8944230C4F04532B4F42E
:1008D0004A3029F497FB1EF4909581959F4F642F21
:1008E00077270E94F403805D8A330CF0895D819341
:1008F000CB010097A1F716F45DE251931082C90174
:100900000C94A704FA01CF93FF93EF932230CCF01D
:100910002532BCF4C22F2C2F332744275527FF93B1
:10092000EF930E940804EF91FF91605D6A330CF031
:10093000695D6193B901CA01605070408040904088
:1009400051F710828F919F91CF910C94A704DC01F5
:10095000FC01672F71917723E1F7329704C07C91F6
:100960006D9370836291AE17BF07C8F30895F89432
:02097000FFCFB7
:040972003A000A003D
:00000001FF
