:100000000C9434000C9451000C9451000C94510049
:100010000C9451000C9485000C9451000C945100E8
:100020000C9451000C948F000C9451000C945100CE
:100030000C9451000C9451000C9451000C945100FC
:100040000C9451000C9451000C9451000C945100EC
:100050000C9451000C94CE000C9451000C9451005F
:100060000C9451000C94510011241FBECFEFD8E026
:10007000DEBFCDBF11E0A0E0B1E0EAE8F2E002C0EF
:1000800005900D92A030B107D9F711E0A0E0B1E0E2
:1000900001C01D92A533B107E1F70E94EB000C945B
:1000A00043010C9400001092B000E1EBF0E080817D
:1000B00087608083E0E7F0E080818160808387EF64
:1000C0008093B2000895809104018F5F80930401B2
:1000D00080910401089583B7866083BF0895789462
:1000E0000E946B0083B7816083BF88950895EAE71B
:1000F000F0E0808187608083ECE7F0E080818064BD
:10010000808380818062808308951F920F920FB652
:100110000F9211240F900FBE0F901F9018951F92F1
:100120000F920FB60F9211248F939F9383B78E7FF8
:1001300083BF87EF8093B200809100018F5F80932F
:1001400000018BB191E089278BB980910001843641
:10015000F0F01092000180917A00806880937A001C
:1001600080917A00886080937A0090933301809127
:100170007A00806480937A00809134018F5F80934D
:10018000340180913401883210F0109234019F9133
:100190008F910F900FBE0F901F9018951F920F9286
:1001A0000FB60F9211248F939F93EF93FF931092AA
:1001B00033019091340180917900E6E0F1E0E90F9C
:1001C000F11D8083FF91EF919F918F910F900FBE52
:1001D0000F901F901895CF93DF930E9453000E94B9
:1001E0006300519A509A58980E947700109200012B
:1001F000C8E2D0E0809133018130E1F310922F0109
:1002000010922E0180E090E020E008C0E22FF0E0A4
:10021000EA5FFE4F3081830F911D2F5F2832B0F3CC
:1002200090932F0180932E0120930501BE010E941F
:100230002F017093310160933001E0913401F0E0BF
:10024000EA5FFE4F808190E06F5F7F4F86179707D0
:1002500010F0599A01C059980E946F00CBCFAA1B89
:10026000BB1B51E107C0AA1FBB1FA617B70710F0A1
:10027000A61BB70B881F991F5A95A9F780959095D3
:0A028000BC01CD010895F894FFCFF2
:00000001FF
