:100000000C9434000C9451000C9451000C94510049
:100010000C9451000C94EF010C9451000C9451007D
:100020000C9451000C94F9010C9451000C94510063
:100030000C9451000C9451000C9451000C945100FC
:100040000C9451000C9451000C9451000C945100EC
:100050000C9451000C9424020C9451000C94510007
:100060000C9451000C94510011241FBECFEFD8E026
:10007000DEBFCDBF11E0A0E0B1E0E0E1F9E002C0F9
:1000800005900D92AA30B107D9F711E0AAE0B1E0CE
:1000900001C01D92A534B107E1F70E943F020C9404
:1000A00086040C9400005E9A00C05E980895A1E05A
:1000B000B0E0EDE5F0E00C942D04662311F05C9ABD
:1000C00001C05C985D989AB19F609AB91BB1107F8E
:1000D000982F92959F70912B9BB989830E94530012
:1000E00089818F70812B8BB90E9453001F601BB9CF
:1000F0002196E3E00C9449045C985D9A8AB1807F74
:100100008AB95E9A00C089B15E9800C05E9A00C04C
:1001100099B19F708295807F5E98892B08950E9487
:100120007C0087FDFCCF85E08A95F1F70E947C007A
:10013000089583B7866083BF089578940E949900DC
:1001400083B7816083BF88950895EAE7F0E08081F6
:1001500087608083ECE7F0E0808180648083808129
:10016000806280830895EAE7F0E080818068808380
:1001700080818860808380818064808308951F935C
:10018000182F0E948F00812F60E00E9457001F915E
:10019000089581E00E94BF0008951F93182F0E94C8
:1001A0008F001A3049F4803410F480E401C080E0FC
:1001B00080580E94BF0004C0812F61E00E94570058
:1001C0001F910895CF93DF93EC0102C00E94CD00F0
:1001D00089918823D9F7DF91CF9108950F931F93C9
:1001E000182F8AB18F678AB9E0E0FDE73197F1F700
:1001F000599A589A0E945300E0E0F7E23197F1F7DC
:100200000E9453000AEA802F8A95F1F70E9453005A
:10021000802F8A95F1F758980E9453000A95F1F7BC
:1002200088E20E94BF0088E00E94BF000E94C900CF
:1002300086E00E94BF00812F0E94BF001F910F9196
:1002400008951092B000E1EBF0E08081846080833B
:10025000E0E7F0E080818160808382E88093B200F3
:100260000895A8E0B0E0E7E3F1E00C941E0478877D
:100270006F832A0119011E830D83FC01A080B180C8
:10028000C280D380FB0160817181882777FD8095D2
:10029000982F20E83EEA4EEF5FEF0E94B6037B0105
:1002A0008C01EA0CFB1C0C1D1D1DF2014081552721
:1002B00047FD509520E13EE0429FC001439F900DD5
:1002C000529F900D1124AA2797FDA095BA2F3701B0
:1002D0004801681A790A8A0A9B0AF10190818CE325
:1002E0009802C0011124AA2797FDA095BA2FA40156
:1002F0009301281B390B4A0B5B0B29833A834B83F1
:100300005C83C601B50120E831E541E050E00E9480
:10031000FC03EF81F88531832083C801B70120E118
:100320003EE040E050E00E94FC03F2012083C40163
:10033000B3012CE330E040E050E00E94FC03F10107
:1003400020832981ED81FE8120832896E2E10C94AF
:100350003A04A0E0B0E0EFEAF1E00C942904EC01EB
:10036000D22E802F552747FD509520E13EE0429F39
:100370007001439FF00C529FF00C11240027F7FCF2
:100380000095102F992787FD9095A92FB92FE80E7A
:10039000F91E0A1F1B1F882777FD8095982F20E8DC
:1003A00031E541E050E00E94B603E60EF71E081F5B
:1003B000191F8CE32D2D2802C0011124AA2797FDB7
:1003C000A095BA2FE80EF91E0A1F1B1FE882F982BA
:1003D0000A831B83CDB7DEB7E7E00C9445041F9278
:1003E0000F920FB60F9211240F900FBE0F901F9017
:1003F00018951F920F920FB60F9211248F939F930F
:1004000083B78E7F83BF82E88093B20080914301DF
:10041000909144010196909344018093430180910F
:100420003C018F5F80933C0180914101909142019A
:10043000019690934201809341019F918F910F907B
:100440000FBE0F901F9018951F920F920FB60F922C
:1004500011248F939F93EF93FF93909106018091C6
:100460007900EAE0F1E0E90FF11D8083FF91EF915F
:100470009F918F910F900FBE0F901F9018952F9204
:100480003F924F925F926F927F928F929F92AF9224
:10049000BF92CF92DF92FF920F931F93DF93CF9380
:1004A000CDB7DEB72E970FB6F894DEBF0FBECDBF27
:1004B0003D9A0E94A5008CE00E94EE000E94C900B7
:1004C00010923D0110923E0110923F0110924001A6
:1004D0001D821C8219821A821B820E9421016C815A
:1004E0007D81882777FD8095982F20E831E541E0D0
:1004F00050E00E94B6032B81332727FD3095432F10
:10050000532F620F731F841F951FE981FF27E7FD9B
:10051000F09540E15EE0E49F9001E59F300DF49F8F
:10052000300D1124442737FD4095542F620F731F5F
:10053000841F951F3A812CE3320290011124442735
:1005400037FD4095542F620F731F841F951F6093D2
:100550003D0170933E0180933F0190934001FF2441
:10056000CC24DD2434E0632E712C6C0E7D1E22E041
:10057000422E512C4C0E5D1E93E0A92EB12CAC0ED8
:10058000BD1E4E010894811C911C86E0282E312C42
:100590002C0E3D1E809143019091440123E0883E42
:1005A000920708F471C080913D0190913E01A091A5
:1005B0003F01B09140010196A11DB11D80933D0105
:1005C00090933E01A0933F01B09340018DE391E0F1
:1005D000B301A401920185010E94310180E091E004
:1005E0000E94E2008B81992787FD9095B1014AE036
:1005F00050E00E9455048A81992787FD9095BE019D
:10060000685F7F4F4AE050E00E9455048981992736
:1006100087FD9095BE01665F7F4F4AE050E00E94E3
:1006200055048C819D81BE01645F7F4F4AE050E09C
:100630000E9455040E94C9008A850E94CD008B85C6
:100640000E94CD0082E091E00E94E2008A850E9433
:10065000CD008B850E94CD0082E091E00E94E200F7
:1006600088850E94CD0089850E94CD0082E091E0BE
:100670000E94E2008E810E94CD008F810E94CD00F9
:10068000109244011092430180913C01843608F499
:100690006AC010923C01E0910601F0E0E65FFE4F77
:1006A00010820E94B300E0910601F0E0E65FFE4F89
:1006B00080818823C1F320E030E0F901E65FFE4F3E
:1006C0008081C80ED11C2F5F3F4F28323105A9F71A
:1006D000E0910601F0E0E65FFE4F8081E0910701C6
:1006E000F0E0E65FFE4F5081E0910801F0E0E65F48
:1006F000FE4F408190E0850F911D840F911D63E0B6
:1007000070E00E94E903462FC601B9010E94D5039B
:100710006417A8F4FF2071F48091060180914101D3
:10072000909142011092420110924101459AFF249A
:10073000F39405C08F2D813011F44598FF2484E097
:1007400091E00E94E20080E090E0FC01EA5FFE4F51
:1007500020812F5F20832081283208F010820196AB
:100760008330910591F70E949D0014CF629FD001C4
:10077000739FF001829FE00DF11D649FE00DF11D5C
:10078000929FF00D839FF00D749FF00D659FF00D0B
:100790009927729FB00DE11DF91F639FB00DE11DF8
:1007A000F91FBD01CF0111240895AA1BBB1B51E104
:1007B00007C0AA1FBB1FA617B70710F0A61BB70BD1
:1007C000881F991F5A95A9F780959095BC01CD0176
:1007D000089597FB092E07260AD077FD04D0E5DFA0
:1007E00006D000201AF4709561957F4F0895F6F7B2
:1007F000909581959F4F0895A1E21A2EAA1BBB1BCD
:10080000FD010DC0AA1FBB1FEE1FFF1FA217B307DC
:10081000E407F50720F0A21BB30BE40BF50B661FF2
:10082000771F881F991F1A9469F7609570958095B6
:1008300090959B01AC01BD01CF0108952F923F928D
:100840004F925F926F927F928F929F92AF92BF92E0
:10085000CF92DF92EF92FF920F931F93CF93DF938C
:10086000CDB7DEB7CA1BDB0B0FB6F894DEBF0FBEE9
:10087000CDBF09942A88398848885F846E847D8436
:100880008C849B84AA84B984C884DF80EE80FD8038
:100890000C811B81AA81B981CE0FD11D0FB6F894AE
:1008A000DEBF0FBECDBFED010895FB019F01E894AF
:1008B0004230C4F04532B4F44A3029F497FB1EF4B8
:1008C000909581959F4F642F77270E94D503805D77
:1008D0008A330CF0895D8193CB010097A1F716F460
:1008E0005DE251931082C9010C947604DC01FC0195
:1008F000672F71917723E1F7329704C07C916D9354
:1009000070836291AE17BF07C8F30895F894FFCFC4
:0A0910006D003A000A000001020029
:00000001FF
