:100000000C9434000C9451000C9451000C94510049
:100010000C9451000C94FF010C9451000C9451006D
:100020000C9451000C9409020C9451000C94510052
:100030000C9451000C9451000C9451000C945100FC
:100040000C9451000C9451000C9451000C945100EC
:100050000C9451000C9434020C9451000C945100F7
:100060000C9451000C94510011241FBECFEFD8E026
:10007000DEBFCDBF11E0A0E0B1E0E0E6FAE002C0F3
:1000800005900D92AA30B107D9F711E0AAE0B1E0CE
:1000900001C01D92AC33B107E1F70E944F020C94EE
:1000A0002E050C9400005E9A00C05E980895A1E0B1
:1000B000B0E0EDE5F0E00C94B004662311F05C9A3A
:1000C00001C05C985D989AB19F609AB91BB1107F8E
:1000D000982F92959F70912B9BB989830E94530012
:1000E00089818F70812B8BB90E9453001F601BB9CF
:1000F0002196E3E00C94CC045C985D9A8AB1807FF1
:100100008AB95E9A00C089B15E9800C05E9A00C04C
:1001100099B19F708295807F5E98892B08950E9487
:100120007C0087FDFCCF85E08A95F1F70E947C007A
:10013000089583B7866083BF089578940E949900DC
:1001400083B7816083BF88950895EAE7F0E08081F6
:1001500087608083ECE7F0E0808180648083808129
:10016000806280830895EAE7F0E080818068808380
:1001700080818860808380818064808308951F935C
:10018000182F0E948F00812F60E00E9457001F915E
:10019000089581E00E94BF0008951F93182F0E94C8
:1001A0008F001A3049F4803410F480E401C080E0FC
:1001B00080580E94BF0004C0812F61E00E94570058
:1001C0001F910895CF93DF93EC0102C00E94CD00F0
:1001D00089918823D9F7DF91CF9108950F931F93C9
:1001E000182F8AB18F678AB9E0E0FDE73197F1F700
:1001F000599A589A0E945300E0E0F7E23197F1F7DC
:100200000E9453000AEA802F8A95F1F70E9453005A
:10021000802F8A95F1F758980E9453000A95F1F7BC
:1002200088E20E94BF0088E00E94BF000E94C900CF
:1002300086E00E94BF00812F0E94BF001F910F9196
:1002400008951092B000E1EBF0E08081846080833B
:10025000E0E7F0E080818160808382E88093B200F3
:1002600008952F923F924F925F927F928F929F922A
:10027000AF92BF92CF92DF92EF92FF920F931F93B4
:10028000DF93CF9300D000D0CDB7DEB77C836B83F4
:100290001A013A8329832801DC01AD90BD90CD90ED
:1002A000DC90C601B50120E831E541E050E00E9454
:1002B0006404922E832E622F732FCA0120E83EEA37
:1002C0004EEF5FEF0E9431047B018C01EA0CFB1CB6
:1002D0000C1D1D1DC801B70120E13EE040E050E0CB
:1002E0000E946404722E622F732FCA0120EF31EF37
:1002F0004FEF5FEF0E9431045B016C01AE0CBF1C3D
:10030000C01ED11EC601B5012CE330E040E050E034
:100310000E946404C401AB81BC819C9311968C93B0
:10032000D1017C92A981BA812C93B901CA0124EC34
:100330003FEF4FEF5FEF0E9431046A0D7B1D8C1D74
:100340009D1DF20160830F900F900F900F90CF9141
:10035000DF911F910F91FF90EF90DF90CF90BF90B2
:10036000AF909F908F907F905F904F903F902F9095
:100370000895A0E0B0E0EFEBF1E00C94AC04EC01E8
:10038000D22E802F552747FD509520E13EE0429F19
:100390007001439FF00C529FF00C11240027F7FCD2
:1003A0000095102F992787FD9095A92FB92FE80E5A
:1003B000F91E0A1F1B1F882777FD8095982F20E8BC
:1003C00031E541E050E00E943104E60EF71E081FBF
:1003D000191F8CE32D2D2802C0011124AA2797FD97
:1003E000A095BA2FE80EF91E0A1F1B1FE882F9829A
:1003F0000A831B83CDB7DEB7E7E00C94C8041F92D5
:100400000F920FB60F9211240F900FBE0F901F90F6
:1004100018951F920F920FB60F9211248F939F93EE
:1004200083B78E7F83BF82E88093B20080913A01C8
:1004300090913B01019690933B0180933A0180910A
:1004400033018F5F8093330180913801909139019E
:10045000019690933901809338019F918F910F906D
:100460000FBE0F901F9018951F920F920FB60F920C
:1004700011248F939F93EF93FF93909106018091A6
:100480007900EAE0F1E0E90FF11D8083FF91EF913F
:100490009F918F910F900FBE0F901F901895A9E715
:1004A000B0E0E5E5F2E00C94A1043D9A0E94A500BD
:1004B0008CE00E94EE000E94C9001092340110925C
:1004C000350110923601109237011D821C8288E19D
:1004D00089838BE38A838AE38B830E9421016C8169
:1004E0007D81882777FD8095982F20E831E541E0D0
:1004F00050E00E9431042B81332727FD3095432F94
:10050000532F620F731F841F951FE981FF27E7FD9B
:10051000F09540E15EE0E49F9001E59F300DF49F8F
:10052000300D1124442737FD4095542F620F731F5F
:10053000841F951F3A812CE3320290011124442735
:1005400037FD4095542F620F731F841F951F6093D2
:10055000340170933501809336019093370154E153
:10056000852E912C8C0E9D1EF40180E090E04AE5D2
:1005700028EE33E0DC01A65FBE4F4C93219331930C
:10058000019688329105B1F7CC24DD24FF24EE24B6
:1005900043E0642E712C6C0E7D1E5E010894A11C3C
:1005A000B11CCE018896EA969FAF8EAFEA973AE0EB
:1005B000232E312C412C512C80913A0190913B01FA
:1005C00023E0883E920708F494C080913401909112
:1005D0003501A0913601B09137010196A11DB11DE1
:1005E0008093340190933501A0933601B093370185
:1005F00084E391E0BE016C5F7F4FA5019E012E5FF9
:100600003F4F83010E94310180E091E00E94E200AF
:100610008B81992787FD9095BE016A5F7F4F4AE0E5
:1006200050E00E94D8048A81992787FD9095BE01E9
:10063000685F7F4F4AE050E00E94D8048981992783
:1006400087FD9095BE01665F7F4F4AE050E00E94B3
:10065000D8048C819D81BE01645F7F4F4AE050E0E9
:100660000E94D804B60180E090E0AE01415F5F4F88
:100670002AE030E00E94F9040E94C9008C850E94A3
:10068000CD008D850E94CD0082E091E00E94E200C5
:100690008A850E94CD008B850E94CD0082E091E08A
:1006A0000E94E20088850E94CD0089850E94CD00CD
:1006B00082E091E00E94E2008E810E94CD008F8155
:1006C0000E94CD0084E091E00E94E2008F850E94AC
:1006D000CD0088890E94CD0089890E94CD008A8939
:1006E0000E94CD008B890E94CD0010923B01109298
:1006F0003A0180913301823308F4B0C01092330183
:10070000E0910601F0E0E65FFE4F10820E94B30028
:10071000E0910601F0E0E65FFE4F80818823C1F39F
:1007200060E070E030E02FEF80E090E0FB01E65FFA
:10073000FE4F4081421708F42081FB01E65FFE4F27
:100740004081341708F43081FB01E65FFE4F4081A1
:10075000840F911D6F5F7F4F6832710539F70E94DA
:100760005004E0910601F0E0E65FFE4F8081E091E9
:100770000701F0E0E65FFE4F8081E0910801F0E0C4
:10078000E65FFE4F8081E0910601F0E0E65FFE4FFC
:1007900080816817B0F4EE20A1F480913801909127
:1007A0003901EF2DF0E0EE0FFF1FEA0DFB1D948BDA
:1007B000838B1092390110923801459AEE24E3940C
:1007C00015C0E0910601F0E0E65FFE4F80818617DC
:1007D00068F48E2D813051F4809138019091390167
:1007E00021E08D32920710F04598EE24F40120E0CC
:1007F00030E040E050E081919191A0E0B0E0280F1E
:10080000391F4A1F5B1FEA968EAD9FADEA97E81726
:10081000F90789F7CA01B901A20191010E94640494
:1008200040E050E060E67AEE80E090E00E948604CE
:10083000690180E090E0FC01EA5FFE4F20812F5FBC
:1008400020832081283208F01082019683309105A0
:1008500091F7F3949F2D9A3008F0FF240E949D0099
:10086000ABCE629FD001739FF001829FE00DF11D1E
:10087000649FE00DF11D929FF00D839FF00D749F1A
:10088000F00D659FF00D9927729FB00DE11DF91FC6
:10089000639FB00DE11DF91FBD01CF011124089523
:1008A000AA1BBB1B51E107C0AA1FBB1FA617B70796
:1008B00010F0A61BB70B881F991F5A95A9F78095B2
:1008C0009095BC01CD010895A1E21A2EAA1BBB1B75
:1008D000FD010DC0AA1FBB1FEE1FFF1FA217B3070C
:1008E000E407F50720F0A21BB30BE40BF50B661F22
:1008F000771F881F991F1A9469F7609570958095E6
:1009000090959B01AC01BD01CF01089597FB092E85
:1009100005260ED057FD04D0D7DF0AD0001C38F4CE
:1009200050954095309521953F4F4F4F5F4F08951B
:10093000F6F790958095709561957F4F8F4F9F4FFB
:1009400008952F923F924F925F926F927F928F9273
:100950009F92AF92BF92CF92DF92EF92FF920F934E
:100960001F93CF93DF93CDB7DEB7CA1BDB0B0FB658
:10097000F894DEBF0FBECDBF09942A883988488815
:100980005F846E847D848C849B84AA84B984C884AB
:10099000DF80EE80FD800C811B81AA81B981CE0FA2
:1009A000D11D0FB6F894DEBF0FBECDBFED01089587
:1009B000FB019F01E8944230C4F04532B4F44A3060
:1009C00029F497FB1EF4909581959F4F642F77270C
:1009D0000E945004805D8A330CF0895D8193CB01C5
:1009E0000097A1F716F45DE251931082C9010C94AF
:1009F0001E05FA01CF93FF93EF932230CCF02532FE
:100A0000BCF4C22F2C2F332744275527FF93EF9395
:100A10000E946404EF91FF91605D6A330CF0695DA0
:100A20006193B901CA01605070408040904051F715
:100A300010828F919F91CF910C941E05DC01FC01D7
:100A4000672F71917723E1F7329704C07C916D9302
:100A500070836291AE17BF07C8F30895F894FFCF73
:0A0A60006D003A000A0000010200D8
:00000001FF
