:100000000C9434000C9451000C9451000C94510049
:100010000C9451000C942E020C9451000C9451003D
:100020000C9451000C9407020C9451000C94510054
:100030000C9451000C9451000C9451000C945100FC
:100040000C9451000C9451000C9451000C945100EC
:100050000C9451000C9424020C9451000C94510007
:100060000C9451000C94510011241FBECFEFD8E026
:10007000DEBFCDBF11E0A0E0B1E0E6E7F6E002C0F0
:1000800005900D92A430B107D9F711E0A4E0B1E0DA
:1000900001C01D92A732B107E1F70E9452020C94F1
:1000A00039030C94000084B1837C84B984B18C62E0
:1000B00084B981E58CBD81E08DBD089584B18360F4
:1000C00084B92998289A569880E880936D0084E036
:1000D000809368000E9453000895262F372FF9015E
:1000E000282F392FD90180E008C09D919EBD0DB405
:1000F00007FEFDCF9EB591938F5F8417B0F30895EF
:10010000282F392FF90180E006C091919EBD0DB4D2
:1001100007FEFDCF8F5F8617C0F308958EBD0DB427
:1001200007FEFDCF8EB50895A1E0B0E0EAE9F0E06A
:100130000C94EE028B0128988F71806249830E9493
:100140008E00C8014981642F0E948000289A219660
:10015000E4E00C940A03BC0180E145E00E949400B5
:100160000895BC0129988AE045E00E949400299AEC
:100170000895A1E0B0E0EFEBF0E00C94EE028B010B
:1001800028988F7149830E948E00C801B801498167
:100190000E946D00289A2196E4E00C940A03A1E0E5
:1001A000B0E0E5EDF0E00C94F00228988F718062E9
:1001B00069830E948E006981862F0E948E00289A92
:1001C0002196E2E00C940C03299880E06BE00E94F9
:1001D000CF00299A0895A1E0B0E0E1EFF0E00C949F
:1001E000F00285E062E00E94CF0081E161E00E94C0
:1001F000CF0081E0898386E0BE016F5F7F4F41E0E1
:100200000E94940087E060E30E94CF0010920601F4
:1002100080E06BE00E94CF00299A2196E2E00C94E6
:100220000C031F93CF93DF93EC01162F299880E0E6
:100230006AE00E94CF00289880EA0E948E00CE01DA
:10024000612F0E948000289A299ADF91CF911F91F7
:100250000895CF93DF93EC012898299881E60E94B6
:100260008E00CE01BE0141E00E946D00289A87E019
:1002700060E40E94CF00299A289881EE0E948E00A7
:10028000289ADF91CF91089528988FEF0E948E00D1
:10029000289A80740895289881EE0E948E00289AEA
:1002A000299880E068E00E94CF00299A0895289854
:1002B0008FEF0E948E00289A85FD0AC084FD08C039
:1002C00086FF08C080910001909101010E942901E0
:1002D0000E944B0187E060E70E94CF00089583B73A
:1002E000866083BF089578940E946F0183B7816010
:1002F00083BF889508951092B000E1EBF0E0808113
:1003000082608083E0E7F0E080818160808382E822
:100310008093B2000895EAE7F0E0808181608083F5
:10032000ECE7F0E08081806480838081806280835C
:1003300008950E948B01ECE7F0E080818083EEE776
:10034000F0E080818160808308950E948B01ECE75A
:10035000F0E0808181608083EEE7F0E08081826060
:10036000808308950E948B01ECE7F0E08081876034
:1003700080830895EAE7F0E080818068808380814F
:10038000886080838081806480830895EAE7F0E05C
:1003900080818F7780830895813039F0813018F023
:1003A000873039F404C00E9499010E94A5010E947F
:1003B000B2010E9499010E94BA0180917A0086FDE3
:1003C000FCCF809179000895529A0E945E0084EDDE
:1003D00090E30197F1F70E947B010E94EB000E94DD
:1003E000990108950E94BA0180917A0086FDFCCFA0
:1003F00080917900089560E67AEE80E090E020E058
:1004000030E040E050E00E94C502C90108951F920B
:100410000F920FB60F9211248F939F9383B78E7F05
:1004200083BF82E88093B20080910401909105011E
:10043000019690930501809304019F918F910F90F5
:100440000FBE0F901F9018951F920F920FB60F922C
:1004500011240F900FBE0F901F9018951F920F92AE
:100460000FB60F9211242F933F934F935F936F9387
:100470007F938F939F93AF93BF93EF93FF930E94CC
:100480005701FF91EF91BF91AF919F918F917F9114
:100490006F915F914F913F912F910F900FBE0F90F1
:1004A0001F901895ACE2B1E0E8E5F2E00C94E902A7
:1004B0000E94E40110920701EE24FF24BB2422E3F2
:1004C000C22ED12C8E010F5F1F4F8091040190919D
:1004D0000501B6010E94B1020097D9F08091040194
:1004E0009091050123E0883E920798F080910401E5
:1004F0009091050123E28932920758F40E94F2019B
:10050000EB2DF0E0EE0FFF1FE00FF11F8083118253
:10051000B394809104019091050123E289329207FE
:1005200040F06B2D70E061507040C8010E94FB01EB
:100530007C01809104019091050127E281319207AD
:1005400068F01092050110920401E0920701809179
:1005500000019091010161E00E9411010E9473016C
:10056000B4CFAA1BBB1B51E107C0AA1FBB1FA61714
:10057000B70710F0A61BB70B881F991F5A95A9F74C
:1005800080959095BC01CD01089597FB092E052615
:100590000ED057FD04D04BD00AD0001C38F4509533
:1005A0004095309521953F4F4F4F5F4F0895F6F797
:1005B00090958095709561957F4F8F4F9F4F0895CF
:1005C0002F923F924F925F926F927F928F929F9263
:1005D000AF92BF92CF92DF92EF92FF920F931F9351
:1005E000CF93DF93CDB7DEB7CA1BDB0B0FB6F89402
:1005F000DEBF0FBECDBF09942A88398848885F8442
:100600006E847D848C849B84AA84B984C884DF80B2
:10061000EE80FD800C811B81AA81B981CE0FD11D96
:100620000FB6F894DEBF0FBECDBFED010895A1E275
:100630001A2EAA1BBB1BFD010DC0AA1FBB1FEE1F5C
:10064000FF1FA217B307E407F50720F0A21BB30BA7
:10065000E40BF50B661F771F881F991F1A9469F723
:1006600060957095809590959B01AC01BD01CF017F
:060670000895F894FFCF8D
:040676000701200058
:00000001FF
