:100000000C9434000C9451000C9451000C94510049
:100010000C9451000C9451000C9451000C9451001C
:100020000C9451000C946E010C9451000C945100EE
:100030000C9451000C9451000C9451000C945100FC
:100040000C9451000C9451000C9451000C945100EC
:100050000C9451000C9451000C9451000C945100DC
:100060000C9451000C94510011241FBECFEFD8E026
:10007000DEBFCDBF11E0A0E0B1E0E8E4F4E002C0F3
:1000800005900D92A031B107D9F711E0A0E1B1E0E0
:1000900001C01D92A231B107E1F70E948B010C94BF
:1000A00022020C94000083B7866083BF0895789481
:1000B0000E94530083B7816083BF88950895109292
:1000C000B000E1EBF0E0808182608083E0E7F0E067
:1000D00080818160808382E88093B20008952F92AE
:1000E0003F924F925F927F928F929F92AF92BF9278
:1000F000CF92DF92EF92FF920F931F93DF93CF93F4
:1001000000D000D0CDB7DEB77C836B831A013A8371
:1001100029832801DC01AD90BD90CD90DC90C60113
:10012000B50120E831E541E050E00E94C901922E7E
:10013000832E622F732FCA0120E83EEA4EEF5FEF55
:100140000E94AA017B018C01EA0CFB1C0C1D1D1DE9
:10015000C801B70120E13EE040E050E00E94C90143
:10016000722E622F732FCA0120EF31EF4FEF5FEF36
:100170000E94AA015B016C01AE0CBF1CC01ED11E07
:10018000C601B5012CE330E040E050E00E94C90117
:10019000C401AB81BC819C9311968C93D1017C925C
:1001A000A981BA812C93B901CA0124EC3FEF4FEF2A
:1001B0005FEF0E94AA016A0D7B1D8C1D9D1DF2013F
:1001C00060830F900F900F900F90CF91DF911F9150
:1001D0000F91FF90EF90DF90CF90BF90AF909F90E6
:1001E0008F907F905F904F903F902F900895A0E068
:1001F000B0E0EDEFF0E00C94F601EC01D22E802F90
:10020000552747FD509520E13EE0429F7001439FF6
:10021000F00C529FF00C11240027F7FC0095102FD2
:10022000992787FD9095A92FB92FE80EF91E0A1F6F
:100230001B1F882777FD8095982F20E831E541E046
:1002400050E00E94AA01E60EF71E081F191F8CE35A
:100250002D2D2802C0011124AA2797FDA095BA2FA1
:10026000E80EF91E0A1F1B1FE882F9820A831B830E
:10027000CDB7DEB7E7E00C941202292F332727FD14
:100280003A952093C5008093C40086E08093C20015
:1002900088E18093C10008958091C00087FFFCCF62
:1002A0008091C60008959091C00095FFFCCF809387
:1002B000C6000895EF92FF92CF93DF93E82EE701F7
:1002C0007E01F92EE70102C00E9453018991882323
:1002D000D9F7DF91CF91FF90EF9008951F920F9281
:1002E0000FB60F9211248F939F9383B78E7F83BF96
:1002F00082E88093B20080911001909111010196E3
:1003000090931101809310019F918F910F900FBED8
:100310000F901F9018951F933D9A0E945F008CE0EC
:1003200090E00E943D0110E2809110019091110136
:1003300023E0893E920758F088B1812788B910924E
:1003400011011092100180E091E00E945A010E9478
:100350005700EACF629FD001739FF001829FE00DAA
:10036000F11D649FE00DF11D929FF00D839FF00D34
:10037000749FF00D659FF00D9927729FB00DE11DE0
:10038000F91F639FB00DE11DF91FBD01CF011124BD
:100390000895A1E21A2EAA1BBB1BFD010DC0AA1FC6
:1003A000BB1FEE1FFF1FA217B307E407F50720F0DE
:1003B000A21BB30BE40BF50B661F771F881F991F59
:1003C0001A9469F760957095809590959B01AC01A2
:1003D000BD01CF0108952F923F924F925F926F928D
:1003E0007F928F929F92AF92BF92CF92DF92EF92C5
:1003F000FF920F931F93CF93DF93CDB7DEB7CA1B46
:10040000DB0B0FB6F894DEBF0FBECDBF09942A8870
:10041000398848885F846E847D848C849B84AA8418
:10042000B984C884DF80EE80FD800C811B81AA81A5
:10043000B981CE0FD11D0FB6F894DEBF0FBECDBF70
:08044000ED010895F894FFCFCF
:100448002020576F726B696E67200D0A202000000C
:00000001FF
