:100000000C9434000C9451000C9451000C94510049
:100010000C9451000C94DF020C9451000C9451008C
:100020000C9451000C94B8020C9451000C945100A3
:100030000C9451000C9451000C9451000C945100FC
:100040000C9451000C9451000C9451000C945100EC
:100050000C9451000C94D5020C9451000C94510056
:100060000C9451000C94510011241FBECFEFD8E026
:10007000DEBFCDBF11E0A0E0B1E0E2E3F8E002C0F6
:1000800005900D92A430B107D9F711E0A4E0B1E0DA
:1000900001C01D92A732B107E1F70E942D030C9415
:1000A00017040C94000084B1837C84B984B18C6201
:1000B00084B981E58CBD81E08DBD089584B18360F4
:1000C00084B92898299A569880E480936D0084E03A
:1000D000809368000E9453000895262F372FF9015E
:1000E000282F392FD90180E008C09D919EBD0DB405
:1000F00007FEFDCF9EB591938F5F8417B0F30895EF
:10010000282F392FF90180E006C091919EBD0DB4D2
:1001100007FEFDCF8F5F8617C0F308958EBD0DB427
:1001200007FEFDCF8EB50895A1E0B0E0EAE9F0E06A
:100130000C94EE038B0129988F71806249830E9491
:100140008E00C8014981642F0E948000299A21965F
:10015000E4E00C940A04BC0180E145E00E949400B4
:100160000895BC0128988AE045E00E949400289AEE
:100170000895A1E0B0E0EFEBF0E00C94EE038B010A
:1001800029988F7149830E948E00C801B801498166
:100190000E946D00299A2196E4E00C940A04A1E0E3
:1001A000B0E0E5EDF0E00C94F00329988F718062E7
:1001B00069830E948E006981862F0E948E00299A91
:1001C0002196E2E00C940C04289880E06BE00E94F9
:1001D000CF00289A0895A1E0B0E0E1EFF0E00C94A0
:1001E000F00385E062E00E94CF0081E161E00E94BF
:1001F000CF0081E0898386E0BE016F5F7F4F41E0E1
:100200000E94940087E060E30E94CF0010920601F4
:1002100080E06BE00E94CF00289A2196E2E00C94E7
:100220000C041F93CF93DF93EC01162F289880E0E6
:100230006AE00E94CF00299880EA0E948E00CE01D9
:10024000612F0E948000299A289ADF91CF911F91F7
:100250000895CF93DF93EC012998289881E60E94B6
:100260008E00CE01BE0141E00E946D00299A87E018
:1002700060E40E94CF00289A299881EE0E948E00A7
:10028000299ADF91CF91089529988FEF0E948E00CF
:10029000299A80740895299881EE0E948E00299AE7
:1002A000289880E068E00E94CF00289A0895299855
:1002B0008FEF0E948E00299A85FD0AC084FD08C038
:1002C00086FF08C080910001909101010E942901E0
:1002D0000E944B0187E060E70E94CF00089583B73A
:1002E000866083BF089578940E946F0183B7816010
:1002F00083BF889508951092B000E1EBF0E0808113
:1003000082608083E0E7F0E080818160808382E822
:100310008093B20008952F923F924F925F927F9206
:100320008F929F92AF92BF92CF92DF92EF92FF9205
:100330000F931F93DF93CF9300D000D0CDB7DEB7DC
:100340007C836B831A013A8329832801DC01AD90F9
:10035000BD90CD90DC90C601B50120E831E541E0CB
:1003600050E00E94BE03922E832E622F732FCA018B
:1003700020E83EEA4EEF5FEF0E947F037B018C0195
:10038000EA0CFB1C0C1D1D1DC801B70120E13EE05D
:1003900040E050E00E94BE03722E622F732FCA010C
:1003A00020EF31EF4FEF5FEF0E947F035B016C01A5
:1003B000AE0CBF1CC01ED11EC601B5012CE330E03F
:1003C00040E050E00E94BE03C401AB81BC819C931D
:1003D00011968C93D1017C92A981BA812C93B90199
:1003E000CA0124EC3FEF4FEF5FEF0E947F036A0DDD
:1003F0007B1D8C1D9D1DF20160830F900F900F904F
:100400000F90CF91DF911F910F91FF90EF90DF90B0
:10041000CF90BF90AF909F908F907F905F904F90C4
:100420003F902F900895A0E0B0E0E9E1F2E00C9455
:10043000EB03EC01D22E802F552747FD509520E18C
:100440003EE0429F7001439FF00C529FF00C11243C
:100450000027F7FC0095102F992787FD9095A92F6D
:10046000B92FE80EF91E0A1F1B1F882777FD8095FC
:10047000982F20E831E541E050E00E947F03E60E2E
:10048000F71E081F191F8CE32D2D2802C00111240F
:10049000AA2797FDA095BA2FE80EF91E0A1F1B1F69
:1004A000E882F9820A831B83CDB7DEB7E7E00C94BC
:1004B0000704292F332727FD3A952093C500809301
:1004C000C40086E08093C20088E18093C100089553
:1004D0008091C00087FFFCCF8091C6000895909165
:1004E000C00095FFFCCF8093C6000895EF92FF9265
:1004F000CF93DF93E82EE7017E01F92EE70102C0DA
:100500000E946F0289918823D9F7DF91CF91FF90E4
:10051000EF900895EAE7F0E0908191609083ECE736
:10052000F0E090819064908390819062982B90830A
:10053000EEE7F0E01082908121E030E002C0220F6F
:10054000331F8A95E2F7922B90830895EAE7F0E053
:1005500080818068808380818860808380818064DE
:1005600080830895EAE7F0E080818F7780830895A3
:100570001F920F920FB60F9211248F939F9383B700
:100580008E7F83BF82E88093B200809104019091B6
:100590000501019690930501809304019F918F912D
:1005A0000F900FBE0F901F9018951F920F920FB6CD
:1005B0000F9211240F900FBE0F901F9018951F924D
:1005C0000F920FB60F9211242F933F934F935F9387
:1005D0006F937F938F939F93AF93BF93EF93FF930B
:1005E0000E945701FF91EF91BF91AF919F918F9121
:1005F0007F916F915F914F913F912F910F900FBE1F
:100600000F901F901895CF93DF93482FFB012AE09E
:10061000622F0E949E03382F0E949E03982F905DA8
:10062000DF019D93932F905D56EF859F802D1124C0
:10063000980F9183ED012196405D359F302D112457
:10064000430F11964C931197FE01319629838DE04B
:1006500081831282DF91CF9108951F93CF93DF930F
:100660003D9A0E945E0084ED90E30197F1F70E94AD
:100670007B010E94EB008CE090E00E94590280E038
:1006800090E00E948A0282E080930701C2E3D0E0FA
:1006900012E08091040190910501BE010E94AA031D
:1006A0008A30910541F40E94A60280917A0086FD6D
:1006B000FCCF809179008091040190910501809197
:1006C00004019091050127E281319207A8F0109270
:1006D00005011092040180910701813019F41093F3
:1006E000070103C081E08093070180910001909190
:1006F000010161E00E9411010E947301CACF629F53
:10070000D001739FF001829FE00DF11D649FE00D09
:10071000F11D929FF00D839FF00D749FF00D659F6A
:10072000F00D9927729FB00DE11DF91F639FB00D69
:10073000E11DF91FBD01CF0111240895991B79E036
:1007400004C0991F961708F0961B881F7A95C9F761
:1007500080950895AA1BBB1B51E107C0AA1FBB1FB0
:10076000A617B70710F0A61BB70B881F991F5A953D
:10077000A9F780959095BC01CD010895A1E21A2EAC
:10078000AA1BBB1BFD010DC0AA1FBB1FEE1FFF1F35
:10079000A217B307E407F50720F0A21BB30BE40B85
:1007A000F50B661F771F881F991F1A9469F76095CC
:1007B0007095809590959B01AC01BD01CF01089586
:1007C0002F923F924F925F926F927F928F929F9261
:1007D000AF92BF92CF92DF92EF92FF920F931F934F
:1007E000CF93DF93CDB7DEB7CA1BDB0B0FB6F89400
:1007F000DEBF0FBECDBF09942A88398848885F8440
:100800006E847D848C849B84AA84B984C884DF80B0
:10081000EE80FD800C811B81AA81B981CE0FD11D94
:100820000FB6F894DEBF0FBECDBFED010895F8946A
:02083000FFCFF8
:04083200070120009A
:00000001FF
