:100000000C9443000C9460000C9460000C9460000D
:100010000C9460000C9460000C9460000C946000E0
:100020000C9460000C9460000C9460000C946000D0
:100030000C9460000C9460000C94A21E0C94600060
:100040000C9460000C9460000C9460000C946000B0
:100050000C9460000C9460000C9460000C946000A0
:100060000C9460000C946000FC1804195A19601973
:10007000221A221A221A221A221A221AE719EC1913
:10008000EE19FB190F1A11241FBECFEFD8E0DEBF07
:10009000CDBF11E0A0E0B1E0E4EFFEE302C00590C7
:1000A0000D92A039B107D9F711E0A0E9B1E001C084
:1000B0001D92A739B107E1F70E94C61E0C94781F64
:1000C0000C940000282F392FD901862F972FFC017F
:1000D00004C081918D934150504041155105C9F79D
:1000E0000895282F392FF90103C0619341505040E2
:1000F00041155105D1F708950F931F93CF93DF93C7
:10010000FC018B01075F1F4F268537854089518988
:10011000211531054105510509F468C00288F389AC
:10012000E02DDF01C80120E030E08C014D9140322C
:1001300061F0453009F445EEEC014993CE018E01A2
:100140002F5F3F4F2830310581F79F01285F3F4FD8
:100150004085403279F0DC014EE24D9304968D01EA
:10016000E90149919E01403229F04D938D01A81774
:10017000B907A9F78385DB0118968C93878D90E0EA
:10018000A0E0B0E0B82FAA2799278827268D30E075
:1001900040E050E0A90133272227822B932BA42B88
:1001A000B52B248D30E040E050E0822B932BA42B24
:1001B000B52B358D20E040E050E0822B932BA42B13
:1001C000B52BEB0188839983AA83BB83318D20E013
:1001D000808D90E0822B932B9D838C83378920E048
:1001E000868990E0822B932B9F838E83F801108267
:1001F000DF91CF911F910F910895FC010097A1F01D
:100200008081882389F0868197818617970761F41A
:100210008181882319F480910F0101C081E080FF62
:1002200006C023E030E005C029E030E002C020E055
:1002300030E0C90108958FEF8EBD0DB407FEFDCFEC
:100240008EB5089582E3809391010E941B010E9464
:100250001B018F3F39F0809191018823C1F720E085
:1002600030E002C021E030E0C9010895419A0E94C7
:100270001B01089541980E942201009729F40E94D1
:10028000360120E030E002C021E030E0C9010895ED
:1002900041980E942201419A0E941B0180910F0106
:1002A000816080930F0108950F931F93CF93DF9385
:1002B000EC018B0184E1809390010E941B018F3F30
:1002C00029F4809190018823C1F727C08E3F29F53A
:1002D0008FEF8EBD0DB407FEFDCF9EB598838EBD0A
:1002E0000DB407FEFDCF9EB599838EBD0DB407FEFC
:1002F000FDCF9EB59A838EBD0DB407FEFDCF9EB592
:100300009B830450104011F02496E3CF0E941B0100
:100310000E941B0121E030E002C020E030E0C90172
:10032000DF91CF911F910F910895A1E0B0E0EBE92B
:10033000F1E00C94491F8C0169830E9422016981BC
:10034000009749F16EBD0DB407FEFDCF6D3F31F151
:1003500080E0F80190819EBD0DB407FEFDCFF8014D
:1003600091819EBD0DB407FEFDCF815019F00E5F47
:100370001F4FEFCF8FEF8EBD0DB407FEFDCF8FEF78
:100380008EBD0DB407FEFDCF0E941B018F7121E0D1
:1003900030E0853029F020E030E002C021E030E09C
:1003A000C9012196E4E00C94651FA1E0B0E0EBEDFB
:1003B000F1E00C94471F282F7A018B0187FF0DC0B5
:1003C00087E340E050E060E070E029830E94D501BF
:1003D0002981823008F044C02F7729830E9436019A
:1003E0000E943A0129810097D1F1822F80648EBD4D
:1003F0000DB407FEFDCF812F9927AA27BB278EBDFD
:100400000DB407FEFDCFC801AA27BB278EBD0DB4D2
:1004100007FEFDCFBB27A12F902F8F2D8EBD0DB4D2
:1004200007FEFDCFEEBC0DB407FEFDCF222321F069
:10043000283021F081E003C085E901C087E88EBD46
:100440000DB407FEFDCF2C3011F40E941B011AE001
:100450000E941B0187FF04C01150D1F701C08FEF2C
:100460002196E6E00C94631FCF93DF93EC01CB0160
:10047000BA0162507040804090402E893F89488D7B
:10048000598D225030404040504062177307840716
:10049000950788F42A8130E040E050E00E94FA1E7F
:1004A0009B01AC018EA19FA1A8A5B9A5280F391F5A
:1004B0004A1F5B1F04C020E030E040E050E0B9017B
:1004C000CA01DF91CF910895882399F4E0919301B7
:1004D000F0919401309709F010826115710511F0C7
:1004E000FB011082709394016093930120E030E04F
:1004F00002C02BE030E0C9010895A4E0B0E0E3E8D9
:10050000F2E00C94451F882309F0A9C080910F01E7
:1005100081FDA2C0389A409A399A8CE284B980E56C
:100520008CBD82E58CBD1AE00E941B011150E1F7E1
:1005300080E040E050E060E070E00E94D501813052
:1005400009F079C084E68093900188E04AEA51E09E
:1005500060E070E00E94D501813009F041C08E0159
:100560000F5F1F4F65E0E62EF12CEC0EFD1E6801BB
:100570000E941B01F60181936F01EE15FF05C1F783
:100580008B81813009F057C08C818A3A09F053C0C1
:1005900080919001882349F089EA40E050E060E0D2
:1005A00070E40E94D501882399F7809190018823F7
:1005B00009F441C08AE340E050E060E070E00E944E
:1005C000D5018823C1F50E941B01F80181938F0199
:1005D000EE15FF05C1F7898186FF2BC00CE02CC00A
:1005E00089EA40E050E060E070E00E94D50182308E
:1005F00018F402E019EA02C001E011E080919001D4
:10060000882349F0812F40E050E060E070E00E94D4
:10061000D501882399F780919001882361F080E1CA
:1006200040E052E060E070E00E94D501882319F4B8
:1006300003C004E001C000E0009392010E94360173
:10064000002341F080910F018E7F80930F0180E5A0
:100650008CBD02C00E94480180910F0101C081E061
:100660002496E8E00C94611F882319F480910F010F
:10067000089581E008950F93CF93DF93EB01BA01C2
:10068000A901882309F044C0002309F441C08091E6
:100690000F0180FD40C08091920183FD07C0E9E019
:1006A000440F551F661F771FEA95D1F7013069F493
:1006B00081E10E94D501882311F5CE0160E072E04E
:1006C0000E9454010097D1F41AC082E10E94D50122
:1006D0008823A9F4CE0160E072E00E9454010097E3
:1006E00029F0015019F0C050DE4FF4CF8CE040E00B
:1006F00050E060E070E00E94D50101C000E00E947F
:10070000360121E030E0002341F420E030E005C074
:1007100024E030E002C023E030E0C901DF91CF9156
:100720000F9108950F93CF93DF93EC019A01AB01E2
:10073000BC01625D7F4F898101E00E943B0300970D
:1007400009F082C0FE01E35DFD4F308120E0FE0133
:10075000E45DFD4F808190E0822B932B2AEA853562
:10076000920709F073C0FE01E959FF4F808190E0C4
:10077000A0E0B0E0B82FAA2799278827FE01EA5900
:10078000FF4F208130E040E050E0A90133272227CD
:10079000822B932BA42BB52BFE01EC59FF4F20810C
:1007A00030E040E050E0822B932BA42BB52BFE01D0
:1007B000EB59FF4F308120E040E050E0822B932B3B
:1007C000A42BB52BB070863421E4920724E5A20750
:1007D00020E0B207E9F1FE01ED57FF4F208130E044
:1007E00040E050E0522F442733272227FE01EE57E6
:1007F000FF4F808190E0A0E0B0E0DC0199278827DE
:10080000282B392B4A2B5B2BFE01E058FF4F8081B0
:1008100090E0A0E0B0E0282B392B4A2B5B2BCF5780
:10082000DF4F988180E0A0E0B0E0282B392B4A2BE5
:100830005B2B507081E0263491E4390794E5490739
:1008400090E0590731F404C083E003C082E001C0A6
:1008500080E0DF91CF910F910895AFE0B0E0E3E346
:10086000F4E00C943C1FFC01A081B1818C9199278C
:1008700087FD9095C0978A30910558F411962C9178
:1008800011972A3331F41296B183A083009709F0AF
:10089000B5C320919301309194013F872E87DB01EE
:1008A00011963C932E932115310509F4AAC3F90141
:1008B0008081882379F08181882319F480910F0148
:1008C00001C081E080FD06C0442309F49DC382FF7E
:1008D0009BC3A0C3AE85BF851C9211961C9280E07D
:1008E0004D870E947D024D8580FD91C3442311F008
:1008F00082FD90C38E859F8540E050E060E070E00F
:100900000E949203813009F046C0EE85FF85E051D8
:10091000FE4F8081882309F483C3EE85FF85E9506B
:10092000FE4F808190E0A0E0B0E0582F44273327AD
:100930002227EE85FF85EA50FE4F808190E0A0E0FF
:10094000B0E0DC0199278827282B392B4A2B5B2B19
:10095000EE85FF85EC50FE4F808190E0A0E0B0E096
:10096000282B392B4A2B5B2BEE85FF85EB50FE4F56
:10097000908180E0A0E0B0E0282B392B4A2B5B2B44
:1009800029833A834B835C838E859F85BA01A901B5
:100990000E94920304C019821A821B821C82833037
:1009A00009F43BC3882309F03BC3AE85BF85DA96C3
:1009B0003C91DA9720E0D9968C91D99790E0822BE0
:1009C000932BB2E080309B0709F02AC3EE85FF85A8
:1009D000EB5BFF4F908180E0EE85FF85EC5BFF4F86
:1009E00060807724682A792A882499246114710404
:1009F0008104910499F5EE85FF85EB5AFF4F6080E5
:100A0000772488249924962C882477246624EE85DC
:100A1000FF85EC5AFF4F808190E0A0E0B0E0DC0160
:100A200099278827682A792A8A2A9B2AEE85FF85B2
:100A3000EE5AFF4F808190E0A0E0B0E0682A792A6A
:100A40008A2A9B2AEE85FF85ED5AFF4F908180E030
:100A5000A0E0B0E0682A792A8A2A9B2AEE85FF85E1
:100A6000628E738E848E958E26AD2383822F815065
:100A7000823008F0D5C233AC3282332009F4D0C2C0
:100A8000432D50E0CA01019784239523009709F074
:100A9000C7C2EE85FF85E05CFF4F908180E0AE85A8
:100AA000BF85DF964C90DF975524482A592A19961E
:100AB0005C924E921897C2018F709070009709F067
:100AC000AFC2FD01EE5BFF4F908180E0FD01EF5B67
:100AD000FF4FE080FF24E82AF92A00E010E0E1144B
:100AE000F1040105110589F5FD01EF5AFF4FE08082
:100AF000FF2400E010E01E2D0027FF24EE24FD015E
:100B0000E05BFF4F808190E0A0E0B0E0DC0199273E
:100B10008827E82AF92A0A2B1B2BEE85FF85E25B42
:100B2000FF4F808190E0A0E0B0E0E82AF92A0A2B8C
:100B30001B2BEE85FF85E15BFF4F908180E0A0E0FD
:100B4000B0E0E82AF92A0A2B1B2BEE85FF8595AD2C
:100B500080E0A4ACBB24A82AB92AA114B10409F4EA
:100B60005FC230E040E050E0C401B3010E94FA1ED1
:100B70006D837E838F839887950140E050E02987BD
:100B80003A874B875C875201B4E0B694A794BA9534
:100B9000E1F7CC24DD24A20EB31EC41ED51EA60E82
:100BA000B71EC81ED91EEA14FB040C051D0508F467
:100BB00037C2C801B7016A197B098C099D09232D29
:100BC00030E040E050E00E94191F21153105410539
:100BD000510509F425C2263F8FE0380780E0480719
:100BE00080E0580758F0263F9FEF390790E049070B
:100BF00090E0590730F4A2E03A2E05C03324339434
:100C000002C0F3E03F2EE2E0EE2EF12C012D112D7B
:100C1000E20EF31E041F151FAE85BF855696ED929A
:100C2000FD920D931C93599729813A814B815C81E8
:100C3000A20EB31EC41ED51E9696AD92BD92CD9245
:100C4000DC92999759016A0129853A854B855C8523
:100C5000A20EB31EC41ED51E5E96AD92BD92CD925D
:100C6000DC929197B32DB33009F047C04114510481
:100C700009F0D6C1EE85FF85E35AFF4F808190E0F1
:100C8000A0E0B0E0B82FAA2799278827EE85FF8536
:100C9000E45AFF4F208130E040E050E0A9013327C3
:100CA0002227822B932BA42BB52BEE85FF85E65AAA
:100CB000FF4F208130E040E050E0822B932BA42BAB
:100CC000B52BEE85FF85E55AFF4F308120E040E0EF
:100CD00050E0822B932BA42BB52BEE85FF8582A3AE
:100CE00093A3A4A3B5A3D801C70132E0880F991F2D
:100CF000AA1FBB1F3A95D1F72DC04114510409F426
:100D00008FC18D819E81AF81B8858A0D9B1DAC1DE1
:100D1000BD1DEE85FF8582A393A3A4A3B5A3D8012F
:100D2000C701880F991FAA1FBB1FF32DF23091F046
:100D30008E0D9F1DA01FB11FB695A79597958795FE
:100D4000A80197012170307040705070820F931F7E
:100D5000A41FB51F81509E4FAF4FBF4FE9E0B6951E
:100D6000A79597958795EA95D1F7681679068A062B
:100D70009B0608F455C18FEF9FEFAFEFBFEFEE85F5
:100D8000FF8586879787A08BB18B12861386148682
:100D90001586B32DB33009F019C11582EE85FF8594
:100DA000E15AFF4F908180E0EE85FF85E25AFF4FC8
:100DB000208130E0282B392B40E050E089819A8156
:100DC000AB81BC81280F391F4A1F5B1FAE85BF85D1
:100DD00052962D933D934D935C935597BD01625D63
:100DE0007F4F11968C9101E00E943B03009709F020
:100DF000EDC0EE85FF85E35DFD4F308120E0EE859F
:100E0000FF85E45DFD4F808190E0822B932BBAEA51
:100E100085359B0709F0DAC0EE85FF8581A990E052
:100E2000A0E0B0E0B82FAA279927882720A930E0B2
:100E300040E050E0A90133272227822B932BA42BDB
:100E4000B52B26A530E040E050E0822B932BA42B5D
:100E5000B52B37A520E040E050E0822B932BA42B4C
:100E6000B52B8235F2E59F07F1E6AF07F1E4BF0746
:100E700009F0ACC0EE85FF85EB5EFD4F808190E010
:100E8000A0E0B0E0B82FAA2799278827EE85FF8534
:100E9000EC5EFD4F208130E040E050E0A9013327B7
:100EA0002227822B932BA42BB52BEE85FF85EE5E9C
:100EB000FD4F208130E040E050E0822B932BA42BAB
:100EC000B52BEE85FF85ED5EFD4F308120E040E0E3
:100ED00050E0822B932BA42BB52B823722E792076D
:100EE00021E4A20721E6B20709F070C0EE85FF8574
:100EF000E35EFD4F808190E0A0E0B0E0B82FAA272C
:100F000099278827EE85FF85E45EFD4F208130E03C
:100F100040E050E0A90133272227822B932BA42BFA
:100F2000B52BEE85FF85E65EFD4F208130E040E089
:100F300050E0822B932BA42BB52BEE85FF85E55E2D
:100F4000FD4F308120E040E050E0822B932BA42B1A
:100F5000B52BEE85FF8582879387A487B587E75EEB
:100F6000FD4F808190E0A0E0B0E0B82FAA2799273C
:100F70008827EE85FF85E85EFD4F208130E040E068
:100F800050E0A90133272227822B932BA42BB52BCA
:100F9000EE85FF85EA5EFD4F208130E040E050E0C5
:100FA000822B932BA42BB52BEE85FF85E95EFD4F9D
:100FB000308120E040E050E0822B932BA42BB52B16
:100FC000EE85FF8586879787A08BB18BAE85BF8521
:100FD0003C92809195019091960101969093960193
:100FE0008093950117969C938E931697EE85FF85B7
:100FF00012A613A614A615A6148206C02BE030E094
:1010000011C02CE030E00EC020E030E00BC023E047
:1010100030E008C02AE030E005C021E030E002C046
:101020002DE030E0C9012F96E1E10C94581FCF92DA
:10103000DF92EF92FF920F93CF93DF93EB01690161
:101040007A01882309F058C0002309F455C0809123
:101050000F0180FD54C080910F0182FD53C080912B
:10106000920190E083FD07C0F9E0CC0CDD1CEE1C82
:10107000FF1CFA95D1F7013071F488E1B701A601A0
:101080000E94D501882379F5CE016EEF0E9495016B
:10109000009731F528C086709070009739F0402F86
:1010A00050E060E070E087E90E94D50189E1B70176
:1010B000A6010E94D5018823B1F4CE016CEF0E94F5
:1010C0009501009729F0015019F0C050DE4FF5CF7F
:1010D00080E090E06DEF0E949501009719F003C049
:1010E00000E001C001E00E94360121E030E0002371
:1010F00059F420E030E008C024E030E005C023E0EF
:1011000030E002C022E030E0C901DF91CF910F91C1
:10111000FF90EF90DF90CF900895A0E0B0E0E3E97A
:10112000F8E00C943F1FEC014A015B01CAA4DBA468
:10113000ECA4FDA4C416D506E606F70609F44BC0D8
:101140008C818823A1F1AEE26A2E712C6C0E7D1E7B
:101150008981B301A701960101E00E941708009759
:10116000E9F51C828A8D9B8DAC8DBD8D2E8D3F8DBA
:1011700048A159A1820F931FA41FB51FC816D906F5
:10118000EA06FB06A0F41B8110C08A8D9B8DAC8DF6
:10119000BD8DC80ED91EEA1EFB1E8981B301A701B1
:1011A000960101E00E9417081150123070F7811467
:1011B0009104A104B10479F0BE01625D7F4F898181
:1011C000A501940101E00E943B03009739F48AA62F
:1011D0009BA6ACA6BDA620E030E002C021E030E036
:1011E000C901CDB7DEB7EEE00C945B1FA0E0B0E024
:1011F000ECEFF8E00C94411FEC016A017B0148011F
:101200005901423051056105710508F4D4C08E8939
:101210009F89A88DB98D481759076A077B0708F081
:10122000CAC08881823009F46AC0833009F484C05E
:10123000813009F0BBC08A01169507950C0D1D1D64
:10124000A801452F5527469560E070E08E8D9F8D53
:10125000A8A1B9A1480F591F6A1F7B1FCE010E9488
:101260008D089C01009709F0A3C0C8019170E1E0CE
:10127000CE22DD24C114D10451F0FE01E80FF91F84
:1012800036A53F70282D2295207F232B01C0282DC5
:101290008C0F9D1FFC0126A70F5F1F4F81E08C83E1
:1012A000A801452F5527469560E070E08E8D9F8DF3
:1012B000A8A1B9A1480F591F6A1F7B1FCE010E9428
:1012C0008D089C01009709F073C01170C114D104FE
:1012D00049F094E0B694A794979487949A95D1F79F
:1012E000882D08C0FE01E00FF11F86A5807F992D93
:1012F0009F70892B0C0F1D1FF80186A759C0452F21
:10130000562F672F77278E8D9F8DA8A1B9A1480FE3
:10131000591F6A1F7B1FCE010E948D089C010097F8
:1013200009F046C0C601880F991F9170FE01E80FB1
:10133000F91F86A697A63CC0A7E0769567955795B6
:101340004795AA95D1F78E8D9F8DA8A1B9A1480F79
:10135000591F6A1F7B1FCE010E948D089C010097B8
:1013600039F5A601440F551F440F551F5170BA019E
:10137000625D7F4F6C0F7D1FFB01838190E0A0E0D9
:10138000B0E0B82FAA27992788274C0F5D1F8070DF
:101390009070A070B07F88299929AA29BB29FA01E9
:1013A00086A7FB019183A283B38302C022E030E0D1
:1013B00081E08C8302C022E030E0C901CDB7DEB706
:1013C000ECE00C945D1FA0E0B0E0E9EEF9E00C94D5
:1013D000441FEC016A017B01423051056105710532
:1013E00008F4CAC08E899F89A88DB98D48175907FE
:1013F0006A077B0708F0C0C08881823009F455C0B5
:10140000833009F474C0813009F0BBC08A0116959D
:101410000795040F151FA801452F5527469560E035
:1014200070E08E8D9F8DA8A1B9A1480F591F6A1F2A
:101430007B1FCE010E948D08009709F0A2C0F80121
:10144000F170EC0FFD1FB6A40F5F1F4FA801452FD1
:101450005527469560E070E08E8D9F8DA8A1B9A1BB
:10146000480F591F6A1F7B1FCE010E948D080097ED
:1014700009F087C02B2D30E011700C0F1D1FF801F3
:1014800096A580E0282B392BE601C170D0702097FB
:1014900031F054E0369527955A95E1F725C040E0A4
:1014A00050E03F704070507070C077276F2D5E2DF8
:1014B0004D2D8E8D9F8DA8A1B9A1480F591F6A1F70
:1014C0007B1FCE010E948D08009709F05AC0B6011B
:1014D000660F771F7170FE01E60FF71F26A530E03B
:1014E00097A580E0282B392B40E050E04EC027E044
:1014F00076956795579547952A95D1F78E8D9F8D4F
:10150000A8A1B9A1480F591F6A1F7B1FCE010E94D5
:101510008D080097B1F5B601660F771F660F771F2C
:101520007170FB01BE96EC0FFD1F228130E040E0A0
:1015300050E0A90133272227838190E0A0E0B0E0AA
:10154000B82FAA2799278827282B392B4A2B5B2BC2
:10155000918180E0A0E0B0E0282B392B4A2B5B2B57
:10156000C60FD71F8EA590E0A0E0B0E0282B392B46
:101570004A2B5B2B5F7009C021E030E040E050E077
:1015800004C02FEF3FEF4FEF5FEFB901CA01CDB7B6
:10159000DEB7E9E00C94601FEF92FF920F931F9368
:1015A000CF93DF93EC018B017D836C834E815F8150
:1015B00068857985413051056105710509F48CC054
:1015C000E881F98186899789A08DB18D48175907DF
:1015D0006A077B0708F080C0411551056105710558
:1015E00019F58081833049F442A153A164A175A10A
:1015F0004115510561057105B9F41A861B861C86D3
:101600001D86808591850817190708F065C0C801F7
:1016100024E0969587952A95E1F7A0E0B0E022A115
:1016200033A144A155A13CC0E280FF24B4E0EE0CFC
:10163000FF1CBA95E1F71FC00E94E309AB01BC0192
:101640004F3F8FEF58078FEF68078FEF780709F448
:1016500040C04230510561057105F0F1E881F98122
:1016600086899789A08DB18D481759076A077B072E
:1016700098F50E191F09888199810E151F05E0F64E
:101680004A875B876C877D870E9434029B01AC018F
:10169000C801A4E096958795AA95E1F7A0E0B0E08F
:1016A000820F931FA41FB51F8E879F87A88BB98BAE
:1016B000888199818E960F701070F5E0000F111FD0
:1016C000FA95E1F7800F911F9B8B8A8B20E030E029
:1016D00005C021E030E002C022E030E0C901CDB712
:1016E000DEB7E6E00C94631FA0E0B0E0EAE7FBE0C1
:1016F0000C943D1FEC012A013B0141155105610588
:10170000710599F48A849B84AC84BD84811491040E
:10171000A104B10409F18E899F89A88DB98D88161D
:101720009906AA06BB06C0F41CC00E94E3099B01EF
:10173000AC01623071058105910508F496C08E896F
:101740009F89A88DB98D281739074A075B0708F4C8
:1017500090C05301420105C041E0842E912CA12C80
:10176000B12C750164010894C11CD11CE11CF11C51
:101770008E899F89A88DB98DC816D906EA06FB0601
:1017800060F022E082169104A104B10408F465C05F
:1017900032E0C32ED12CE12CF12CCE01B701A601F1
:1017A0000E94E3099B01AC0161157105810591055A
:1017B000A9F02F3F8FEF38078FEF48078FEF5807BB
:1017C00009F457C0213031054105510509F451C0D4
:1017D000C814D904EA04FB0431F63FC08C2CBD2C9C
:1017E000AE2C9F2CCE01A601B7010FEF1FEF2FEFFC
:1017F0003FE00E94F608009741F54114510461044E
:10180000710449F0CE01B301A201860197010E9443
:10181000F6080097D1F48A86BB86AC869D868E85B5
:101820009F85A889B9898F3F2FEF92072FEFA207D5
:101830002FEFB207B9F00197A109B1098E879F87F1
:10184000A88BB98B81E08D830DC08130910569F43F
:101850002FEF3FEF4FEF5FEF0CC020E030E040E0B4
:1018600050E007C0A701960104C021E030E040E04D
:1018700050E0B901CA01CDB7DEB7E0E10C94591FC1
:10188000A0E0B0E0E6E4FCE00C94421FEC017A0139
:101890008B01423051056105710508F458C08E89ED
:1018A0009F89A88DB98D481759076A077B0708F4E7
:1018B0003FC04DC0CE01B801A7010E94E3095B0102
:1018C0006C016115710581059105F1F181E0A816A2
:1018D000B104C104D104D9F12FEFA2162FEFB20643
:1018E0002FEFC2062FEFD206A9F1CE01B801A70152
:1018F00000E010E020E030E00E94F6089C01009734
:1019000059F58E859F85A889B9898F3F2FEF92075A
:101910002FEFA2072FEFB20741F00196A11DB11DD5
:101920008E879F87A88BB98B9D828601750102C027
:10193000992493948E899F89A88DB98DE816F9060C
:101940000A071B0708F4B6CF20E030E005C022E00C
:1019500030E002C021E030E0C901CDB7DEB7EBE0F6
:101960000C945E1FA0E0B0E0E8EBFCE00C94451F97
:10197000EC016A817B81888199810E94FD008C0144
:10198000009709F056C06C8167FD05C061FD57C026
:1019900007E010E04EC002E010E04BC02A873B8712
:1019A0004C875D8760626C83888199812115310540
:1019B0004105510561F44E855F85688979890E94EA
:1019C000400C8C011E861F86188A198A2CC04A89F1
:1019D0005B896C897D890E94E3096B017C018FEF33
:1019E000C8168FEFD8068FEFE8068FEFF806B1F133
:1019F000E1E0CE16D104E104F104B1F532C04A8928
:101A00005B896C897D890FEF1FEF2FEF3FE00E940C
:101A1000F6088C01009751F488819981B701A601DD
:101A20000E94400C8C010115110519F08C81806811
:101A30008C83C801CDB7DEB7E8E00C94611F2E811E
:101A40003F81488559858A859B85AC85BD8528174A
:101A500039074A075B0708F4A1CFEBCF01E010E09C
:101A6000E5CF02E010E0E2CF88819981FC01268970
:101A70003789408D518DC216D306E406F506C8F6A7
:101A8000BECFCF93DF93EC016C817D810E94CC0AA5
:101A90009C01009799F44E855F85688979898881D2
:101AA00099810E948D089C01009741F4EA89FB8985
:101AB00085EE8083E881F98181E08483C901DF912B
:101AC000CF910895A0E0B0E0E8E6FDE00C94411F5E
:101AD000EC015B01CC80DD800894C11CD11CC114D9
:101AE000D10409F4EDC08E859F85A889B989009736
:101AF000A105B10509F4E4C02FE0822E912C8C20C1
:101B00009D208114910409F0CAC00196A11DB11D48
:101B10008E879F87A88BB98B4A855B856C857D8571
:101B200088819981411551056105710541F4FC01D8
:101B300080859185C816D90608F4B1C0C1C0FC01E2
:101B4000228130E021503040F601A4E0F695E7957F
:101B5000AA95E1F72E233F232115310509F09FC0F7
:101B60000E94E3097B018C016230710581059105BA
:101B700008F4ACC08FEFE8168FEFF8068FEF080778
:101B80008FEF180709F4A5C088819981FC01268987
:101B90003789408D518DE216F3060407150708F4C6
:101BA00070C0A114B10409F48BC04A855B856C85B3
:101BB0007D850E94740B7B018C0161157105810587
:101BC000910509F480C0613071058105910509F422
:101BD0007DC08FEFE8168FEFF8068FEF08078FEFC5
:101BE000180709F476C08881998140E050E060E0F0
:101BF00070E00E948D08009709F06BC08881998180
:101C00008E9660E070E040E052E00E947100A88093
:101C1000B980C501B801A7010E943402F50162A78D
:101C200073A784A795A7BB24AA24A39419C0A48250
:101C3000CF0140E050E060E070E00E948D08009726
:101C400009F047C0E881F98182A593A5A4A5B5A5AF
:101C50000196A11DB11D82A793A7A4A7B5A7B39410
:101C6000E881F9818281B81610F322A533A544A535
:101C700055A52B1931094109510922A733A744A7BA
:101C800055A7EA86FB860C871D8788819981B80154
:101C9000A7010E9434026E877F87888B998BDD8233
:101CA000CC82888199818E9655E0880C991C5A9532
:101CB000E1F7880D991D9B8B8A8B20E030E00BC0EB
:101CC00024E030E008C027E030E005C022E030E04A
:101CD00002C021E030E0C901CDB7DEB7ECE00C94E2
:101CE0005D1FA0E0B0E0E7E7FEE00C943E1FEC01D2
:101CF0008B01FB0180818F3211F08C3511F40F5F65
:101D00001F4F1E821F8218861986F801808180323B
:101D100048F4CE0160E070E00E94CC0A9C011B8A6E
:101D20001A8AE5C045E0542EEC88FD88C70160E2C0
:101D300070E04BE050E00E947100D80180E090E03C
:101D4000CC24DD2428E030E099244D91842E0894A1
:101D5000C11CD11C413208F445C04F3209F444C0C3
:101D60004C3509F441C04E3219F08217930770F0D8
:101D70002830310509F0B6C04E3209F0B3C0990CD5
:101D8000990C88E090E02BE030E0DFCF87FE07C0C1
:101D9000F3E09F2AE82DF0E0E057FF4F8080682DA8
:101DA00070E0E0E0F1E04191442339F0552747FD30
:101DB000509546175707B9F795C0482D41544A31F9
:101DC00018F442E0942A08C0482D41564A3120F4C4
:101DD00051E0952AE0EE8E0EF701E80FF91F8082A0
:101DE0000196B3CF44E001C040E0009709F47AC007
:101DF000F7018081853E09F450822830310511F4C5
:101E0000990C990C892D90E09C0123703070213041
:101E1000310509F440618C7090708430910509F4AB
:101E20004860F7014387CE0160E070E00E94CC0A71
:101E30009C01009731F54E855F8568897989888195
:101E400099810E948D089C010097D9F4EA89FB8949
:101E500080818823A1F0838583FD0BC0AC89BD8977
:101E6000CF010B96E817F90761F051914D91541786
:101E7000C9F3CE0160E070E00E94620DD9CF24E08A
:101E800030E0EC89FD8983852115310531F024305E
:101E9000310569F582FF29C02AC082FD28C0EA8980
:101EA000FB89838584FF21C00C0D1D1D7588662468
:101EB000848990E086299729A0E0B0E0DC01992789
:101EC0008827B38CAA24228D30E02A293B2940E0C0
:101ED00050E0822B932BA42BB52B8E839F83A88756
:101EE000B98722CF26E030E002C025E030E0C9010A
:101EF000CDB7DEB7EFE00C945A1FA4E2B0E0E3E800
:101F0000FFE00C94451F9CA38BA36B015DE0E52EC5
:101F1000F12CEC0EFD1ECE018396B70140E00E942D
:101F20002D048C010097B9F4CE0101969AA389A3E0
:101F30006BA17CA1C7010E94710E8C01009759F41E
:101F40008F8D98A1009729F0C701B6010E947C00EF
:101F500002C006E010E0C801A496E8E00C94611FFE
:101F6000AEE0B0E0E6EBFFE00C94491F8C017E8709
:101F70006D87CE010D96B80140E00E942D049C01B2
:101F8000009709F04AC0CE010196D80155969C935E
:101F90008E9354976D857E85C8010E94710E9C01B9
:101FA0000097B1F5D8015296ED91FC915397309777
:101FB000F9F0838584FF2FC0358920E0848990E083
:101FC000822B932BA0E0B0E0DC0199278827538D6A
:101FD00040E0228D30E0242B352B40E050E0822B76
:101FE000932BA42BB52BF80186839783A087B18709
:101FF000D801ED91FC9111978681978113969C935E
:102000008E931297C80160E070E00E94CC0A9C0198
:102010002430310511F425E030E0C9012E96E4E0CA
:102020000C94651FEF92FF920F931F93CF93DF9352
:10203000EC0160E070E00E94CC0A8C01009761F531
:102040004E855F8568897989888199810E948D088C
:102050008C01009709F5EA89FB898081853E11F1A1
:10206000882301F1CE0161E070E00E94620DE5CFAE
:10207000EA88FB88C70160E070E040E250E00E941F
:1020800071006C897D89C7014BE050E00E946200BD
:10209000E881F98181E08483C801CDB7DEB7E6E04D
:1020A0000C94631F4E855F85688979898881998141
:1020B0000E948D088C01009779F7DACFCF93DF93D8
:1020C000EC0184E090E01AC0888199810E948D081B
:1020D0009C01009761F5EA89FB898081882319F1C9
:1020E000853E29F08E3219F0838583FF18C0CE011A
:1020F00060E070E00E94620D0097C1F44E855F853C
:10210000688979894115510561057105E9F69C01D8
:10211000009729F01E861F86188A198A9C01C9011A
:10212000DF91CF91089524E030E001C09C01C90106
:10213000F1CFACE0B0E0EFE9F0E10C94451F8C0189
:102140006B01FC0162817381808191810E94FD009D
:102150007C01009779F5C114D10431F4C80160E025
:1021600070E00E94CC0A25C0CE010196F801958B43
:10217000848BC8010E945E108430910531F4F8010F
:1021800016861786108A118A02C0009791F4C8013A
:10219000B6010E947C00C80160E070E00E94620D00
:1021A0008430910531F4F80116861786108A118A59
:1021B00001C07C01C7012C96E8E00C94611FADE0E2
:1021C000B0E0E5EEF0E10C943B1F9A8389837987B8
:1021D00068874A01CE010196BA0140E00E942D04B1
:1021E0003C01009709F0FDC0D401ED91FC9186857A
:1021F0009785A089B18926883788408C518CA201A7
:1022000091012250304040405040281739074A077A
:102210005B0738F0E885F98580839183A283B383D7
:10222000E0C000810F830130D1F532E0E32EF12CC4
:10223000012D112DAA24BB246501D4018D919C91FF
:10224000B801A7010E94E3096F3FBFEF7B07BFEF13
:102250008B07BFEF9B0709F4A9C0613071058105A9
:10226000910509F4A7C0611571058105910529F44F
:102270000894A11CB11CC11CD11C0894E11CF11CC8
:10228000011D111DD401ED91FC9186899789A08DC6
:10229000B18DE816F9060A071B0778F290C0868D03
:1022A000978DA0A1B1A18B839C83AD83BE83E0E019
:1022B000F0E060E070E0AA24BB24650161157105BF
:1022C000E9F4D4018D919C914B815C816D817E817B
:1022D0000E948D08009709F071C08B819C81AD81AF
:1022E000BE810196A11DB11D8B839C83AD83BE83EE
:1022F000D401ED91FC91BE9660E072E0E180108126
:10230000BF81B230A1F4EB861A86212F30E00A8516
:102310001B85202B312B2115310529F40894A11C94
:10232000B11CC11CD11C32966250704033C08381F5
:1023300090E0A0E0B0E0B82FAA2799278827228153
:1023400030E040E050E0A90133272227822B932B75
:10235000A42BB52B212F30E040E050E0822B932BB3
:10236000A42BB52BED861C860C851D85980140E0BD
:1023700050E0822B932BA42BB52BBF700097A105A7
:10238000B10529F40894A11CB11CC11CD11C3496C0
:102390006450704008942108310841085108211404
:1023A00031044104510409F089CF09C0E1E06E2EE7
:1023B000712C05C072E0672E712C01C03C01D40164
:1023C000ED91FC91A686B786C08AD18ABF81B330D1
:1023D00011F481E08583E885F985A082B182C2820B
:1023E000D382C3012D96E2E10C94571F4F925F9266
:1023F0006F927F928F929F92AF92BF92DF92EF92F5
:10240000FF920F931F93DF93CF93CDB7DEB7A497BF
:102410000FB6F894DEBF0FBECDBF7C017CA36BA3CB
:10242000DC011D921C925FE1D52ED4228E01035F48
:102430001F4F4E71CE018396B8010E942D049C015E
:10244000CE0101969AA389A32115310531F46BA120
:102450007CA1C8010E94710E9C010F8D18A121154D
:10246000310529F40115110511F426E030E08D2D18
:1024700090E0AC014C7150704115510509F48AC0CF
:102480002115310589F02430310529F4CE010D964E
:102490000E9412109C010F8D18A12115310509F021
:1024A000FDC0B8E0DB2A07C0D2FC0FC1F80183856C
:1024B000817109F010C1D3FE7BC0D8011E961C9219
:1024C0001E971F961C921F9750961C9250975196DC
:1024D0001C9251971B961C921B975C961C925C97C2
:1024E0005D961C925D975E961C925E975F961C921D
:1024F0005F9755969C91559780E054968C90549791
:102500009924882A992AAA24BB245401992488242E
:102510005B963C915B9720E05A968C9190E0822BE1
:10252000932BA0E0B0E0882A992AAA2ABB2AF801B6
:10253000128E138E148A158A8D859E8521E0DC010A
:1025400014962C93149781149104A104B10481F181
:102550009A964D905D906D907C909D97B501A401E9
:102560000E94400C9C01009709F098C08D859E85C3
:10257000089481089108A108B108FC01828693861D
:10258000A486B586B301A2010E948D089C01009724
:1025900079F084C02115310509F080C0D8011B965F
:1025A0002C911B9724FD94C0D1FE02C020FD93C046
:1025B000D3FE02C0B0E2DB2A6D857E85FB0122A539
:1025C00033A544A555A5D7015A962D933D934D9318
:1025D0005C935D975F961C930E935E971496DC92C6
:1025E000F801358920E0848990E0822B932BA0E0CC
:1025F000B0E0DC0199278827538D40E0228D30E040
:10260000242B352B40E050E0822B932BA42BB52BB1
:10261000F70186879787A08BB18BD8015F968C9145
:1026200090E0A0E0B0E0B82FAA2799278827F8010A
:10263000268D30E040E050E0A90133272227822B8D
:10264000932BA42BB52B248D30E040E050E0822B5F
:10265000932BA42BB52B358D20E040E050E0822B4E
:10266000932BA42BB52BF70182879387A487B5877B
:10267000D70116961D921D921D921C921997168ACB
:10268000178A108E118E71836083DB0116968D91EF
:102690009C9117979383828320E030E0C901A49630
:1026A0000FB6F894DEBF0FBECDBFCF91DF911F9163
:1026B0000F91FF90EF90DF90BF90AF909F908F9021
:1026C0007F906F905F904F90089528E030E0E6CFC4
:1026D00024E030E0E3CF27E030E0E0CFA6E0B0E058
:1026E000E4E7F3E10C943B1F9E838D836A017B0139
:1026F000DC0112966D917C9113978D919C910E94B3
:10270000FD003C01009709F0C2C1ED81FE812481EA
:1027100027FDBAC182859385A485B5858C159D0555
:10272000AE05BF0520F421FD02C06C017D01ED81E5
:10273000FE8186819781A085B185168217821086D9
:102740001186C114D104E104F10409F42CC1008103
:102750001181F80182809924AA24BB24F9E0880C15
:10276000991CAA1CBB1CFA95D1F70097A105B105CD
:10277000F1F11C012D01089421083108410851088C
:10278000C701B6016150704080409040A50194019E
:102790000E94191F29833A834B835C83C201B101D4
:1027A000A50194010E94191F89819A81AB81BC8186
:1027B00082179307A407B507D0F088279927DC0173
:1027C00088199909AA09BB0982219321A421B5215D
:1027D000ED81FE8186839783A087B187C81AD90AC5
:1027E000EA0AFB0A428953896489758937C0AD8139
:1027F000BE811E964D915D916D917C9151974115D1
:1028000051056105710511F5C80140E050E060E037
:1028100070E00E94740BAB01BC01413051056105B1
:10282000710519F4ED81FE815DC04F3FFFEF5F0739
:10283000FFEF6F07FFEF7F0719F4AD81BE8136C050
:10284000ED81FE8146875787608B718BAD81BE819C
:1028500052964D935D936D937C9355974115510519
:102860006105710509F49FC00D811E8159C0F801F1
:1028700024818081918121FF0AC00E94740BAB01E9
:10288000BC01411551056105710529F452C00E9432
:10289000E309AB01BC014F3FFFEF5F07FFEF6F079D
:1028A000FFEF7F0759F41E830D83D80114968C9196
:1028B0001497806814968C931497C3C042305105C6
:1028C0006105710560F0D801ED91FC9186899789C9
:1028D000A08DB18D481759076A077B0738F01E8312
:1028E0000D83F801848180688483CEC0D80152961C
:1028F0004D935D936D937C93559716968D919D9115
:102900000D90BC91A02D880D991DAA1DBB1DF8012D
:1029100086839783A087B187C818D908EA08FB087F
:102920008C149D04AE04BF0408F4A1CF1E830D8354
:1029300004C01E830D8375016401ED81FE818681D3
:102940009781A085B1858C0D9D1DAE1DBF1D868311
:102950009783A087B187D701C6019170A070B0702E
:102960000097A105B105F9F0808191810E943402A0
:10297000611571058105910551F4AD81BE811496F3
:102980008C911497806814968C9314977DC0E9E01D
:10299000F694E794D794C794EA95D1F7C60ED71E5C
:1029A000E81EF91E03C0CC24DD247601ED81FE81F2
:1029B00086819781A085B1859170A070B0700097D5
:1029C000A105B10509F449C026893789408D518D8B
:1029D000C216D306E406F50609F43FC0848186FFDB
:1029E0001BC00190F081E02D6D817E81605E7F4F84
:1029F000818101E00E941708AD81BE8114962C915F
:102A00001497009729F0206814962C93149719C0F6
:102A10002F7BED81FE812483AD81BE81ED91FC9100
:102A20001197BD01605E7F4F8181A701960101E092
:102A30000E943B03009749F0ED81FE81848180680C
:102A4000848371E0672E712C22C0AD81BE815696C1
:102A5000CD92DD92ED92FC925997ED81FE818681B7
:102A60009781A085B18522853385448555852817B2
:102A700039074A075B0758F482879387A487B5878D
:102A800084818062848303C062E0662E712CC3015E
:102A90002696E2E10C94571FA6E0B0E0E2E5F5E1EE
:102AA0000C943B1F9E838D83162F072F2A013C8396
:102AB0002B83D9011D921C92FC016281738180815C
:102AC00091810E94FD007C01009709F0C7C1AD8192
:102AD000BE8114968C91149787FDD4C081FFBBC131
:102AE0001A962D913D914D915C911D97C201A0E0E8
:102AF000B0E0820F931FA41FB51F82179307A4078E
:102B0000B50710F444245524C801292E302EED8138
:102B1000FE81B096FA83E9837DC1AD81BE811696B0
:102B20002D913D914D915C911997DA01C9019170F8
:102B3000A070B0700097A105B10509F02DC1ED811D
:102B4000FE818081918159016A0169E0D694C79420
:102B5000B794A7946A95D1F7DC0112961C9112974D
:102B600011501A2109F052C02115310541055105B6
:102B7000C1F42685378540895189211531054105E4
:102B8000510509F540E050E060E070E00E94740BF0
:102B90009B01AC01ED81FE8166877787808B918BED
:102BA0000CC0AD81BE8152964D915D916D917C912D
:102BB00055970E94740B9B01AC012115310541050D
:102BC000510509F42BC1213031054105510531F47E
:102BD000ED81FE8184818068848354C02F3FFFEFA4
:102BE0003F07FFEF4F07FFEF5F0751F4AD81BE8155
:102BF00014968C911497806814968C931497C0C087
:102C0000ED81FE81228B338B448B558BAD81BE8150
:102C100014968C91149786FF1CC0ED91FC9111972E
:102C200056962D913D914D915C9159978181698185
:102C30007A8101E00E941708ED81FE8124810097CE
:102C400019F0206824839CC02F7BAD81BE8114962F
:102C50002C93ED81FE816080718042895389648963
:102C60007589C3010E9434026115710581059105C2
:102C700069F4AD81BE8114968C9114978068149686
:102C80008C93149732E0E32EF12CE8C05B016C01C9
:102C9000A10EB11CC11CD11C4201892C992486941F
:102CA0008114910409F443C0F3012281812F90E043
:102CB000A401480F591F30E02417350718F44901C3
:102CC000881A990AD30111968C91B101A601950138
:102CD000082D0E941708009709F04DC0AD81BE81F4
:102CE00056966D917D918D919C9159976A197B09AA
:102CF0008C099D09940140E050E062177307840736
:102D0000950780F4762F6627770F620D731D8981F2
:102D10009A8140E052E00E946200ED81FE81848150
:102D20008F7B84838401102F0027110F54C0ED8105
:102D3000FE8186899789A08DB18D8A159B05AC058A
:102D4000BD0511F1268137814085518582859385A6
:102D5000A485B585281739074A075B07A8F4D3016E
:102D600011968C9169817A81A601950101E00E94FA
:102D70003B03009749F0ED81FE8184818068848364
:102D8000B1E0EB2EF12C6AC0AD81BE815696AD92BA
:102D9000BD92CD92DC925997ED81FE81868197811B
:102DA000A085B1859C01317040E052E0421B530B7D
:102DB00082014415550508F48A019170A981BA81F0
:102DC0008A0F9B1FB101A8010E946200ED81FE8164
:102DD000848180648483200E311E980140E050E09D
:102DE000ED81FE8186819781A085B185820F931F39
:102DF000A41FB51F86839783A087B187AB81BC8151
:102E00008D919C911197800F911F11969C938E9399
:102E1000401A510A4114510409F07FCEED81FE8120
:102E200086819781A085B185228533854485558526
:102E3000281739074A075B0720F482879387A487FE
:102E4000B587AD81BE8114968C91149780621496DB
:102E50008C93149703C0A7E0EA2EF12CC7012696A5
:102E6000E2E10C94571FA6E0B0E0E9E3F7E10C942F
:102E70003B1F9E838D83062FC72E2A013C832B8305
:102E8000D9011D921C92FC01628173818081918124
:102E90000E94FD007C01009709F07EC1AD81BE81DA
:102EA00014968C91149787FD70C180FF72C11A9699
:102EB0008D919D910D90BC91A02DED81FE8126817B
:102EC000378140855185821B930BA40BB50B920172
:102ED00040E050E082179307A407B50708F42C01DF
:102EE000202E3C2C4D815E81405E5F4F5A8349838A
:102EF00047C1AD81BE8116962D913D914D915C915A
:102F00001997DA01C9019170A070B0700097A105FE
:102F1000B10509F0FAC0ED81FE81808191814901FE
:102F20005A0169E0B694A794979487946A95D1F76B
:102F3000DC0112960C9112970150082169F52115B8
:102F400031054105510529F4668577858089918988
:102F500008C0ED81FE8142895389648975890E9488
:102F6000E309623071058105910530F16F3FBFEFD4
:102F70007B07BFEF8B07BFEF9B0731F4ED81FE812D
:102F8000848180688483B7C0AD81BE8152966D9381
:102F90007D938D939C935597ED81FE816080718028
:102FA0004289538964897589C3010E94340261157D
:102FB00071058105910551F4AD81BE8114968C9106
:102FC0001497806814968C931497DFC04B015C01B2
:102FD000800E911CA11CB11C6201CD2CDD24C69475
:102FE000C114D10409F442C0F301828110E09601BA
:102FF000200F311F90E08217930718F46C01C01A5C
:10300000D10AD30111968C91B101A50194010C2D27
:103010000E943B03ED81FE812481009719F0206816
:10302000248369C026FF1DC0ED81FE8186899789B2
:10303000A08DB18D88199909AA09BB09960140E0B4
:1030400050E082179307A407B50758F4982F8827F4
:10305000990F820D931D69817A8140E052E00E94B0
:1030600062008601102F0027110F6BC0AD81BE8159
:1030700014968C91149786FF1DC056962D913D9104
:103080004D915C915997F301818169817A8101E0C9
:103090000E941708AD81BE8114962C911497009759
:1030A00029F0206814962C93149725C02F7BED816E
:1030B000FE812483ED81FE8186899789A08DB18D63
:1030C00088159905AA05BB05D1F00190F081E02D86
:1030D000818169817A81A501940101E00E943B030D
:1030E000009769F0AD81BE8114968C911497806829
:1030F00014968C931497F1E0EF2EF12C4DC0ED81D6
:10310000FE81868A978AA08EB18EAD81BE81169689
:103110006D917D918D919C9119979B013170E0E0AB
:10312000F2E0E21BF30B8201E415F50508F48F01D0
:10313000717049815A81640F751FC101A8010E94F5
:103140006200200E311E980140E050E0ED81FE81CA
:1031500086819781A085B185820F931FA41FB51F1B
:1031600086839783A087B187AB81BC818D919C9129
:103170001197800F911F11969C938E93401A510ABC
:103180004114510409F0B5CE07C0E2E0EE2EF12C57
:1031900003C077E0E72EF12CC7012696E2E10C94FC
:1031A000571FA0E1B0E0E7EDF8E10C94471F8A015A
:1031B000882309F052C17A01653081F4FA018081D7
:1031C000882321F0813009F048C103C00E944801E2
:1031D00002C0FA01818300E010E044C180910F0138
:1031E00080FD3EC1E62FF0E0EF30F10508F02AC186
:1031F000EC5CFF4F0C94721F0E943A01009709F497
:1032000024C10E94360124C189E040E050E060E022
:1032100070E00E94D501882309F017C1CE01019604
:1032200060E170E00E945401009709F40EC1998199
:1032300092959695969593705A854985913089F423
:10324000852F90E00196342F20E0820F931FA0E09D
:10325000B0E03AE0880F991FAA1FBB1F3A95D1F73B
:10326000B0C04295469546954370888590E0880F9A
:10327000991F880F991F840F911D01962F8130E0AF
:1032800023703070322F2227330F330F820F931F9A
:10329000A0E0B0E02E812F704B85441F4427441FCF
:1032A000240F2E5F352F3370330F230F30E029505A
:1032B00030402CC080E092E0FA0191838083C8C046
:1032C000E0909201E2FE2AC08DE840E050E060E02C
:1032D00070E00E94D501882309F0B7C00E941B014D
:1032E000CE01019660E170E00E945401009709F45C
:1032F000ACC0A0E3EA2E0E941B01EA94E1F72B8503
:1033000022952F7080E190E0A0E0B0E004C0880F2B
:10331000991FAA1FBB1F2A95D2F753C089E040E02E
:1033200050E060E070E00E94D501882309F08DC074
:10333000CE01019660E170E00E945401009709F40B
:1033400084C04B858C85E1FE1AC0881F8827881FA2
:1033500090E0019650E04F735070440F551F840F5A
:10336000951F2E85229526952695237030E02150B5
:10337000304002C0880F991F2A95E2F720C0282FFD
:1033800030E023703070E3E0220F331FEA95E1F75D
:10339000829586958770280F311D2F5F3F4F50E033
:1033A0004C77507055954795559547954F5F5F4FB2
:1033B000249FC001259F900D349F900D1124A0E003
:1033C000B0E0F80180839183A283B38341C08091F0
:1033D0009201FA0180833CC089E001C08AE040E0AC
:1033E00050E060E070E00E94D501882371F5C801CB
:1033F00060E170E022C08AE340E050E060E070E00D
:103400000E94D501882309F50C5F1F4F0E941B0104
:10341000F70181937F01E017F107C1F719C08DE82B
:1034200040E050E060E070E00E94D501882369F43C
:103430000E941B01C80160E470E00E9454010097E3
:1034400039F403C004E010E005C001E010E002C060
:1034500000E010E00E94360105C004E010E002C068
:1034600003E010E0C8016096E6E00C94631F0F9340
:103470001F93CF93DF93EC0140E050E060E070E0F9
:103480000E948D089C01009709F076C088818330E6
:1034900009F066C08D81882309F462C01AA61BA6B4
:1034A0001CA61DA68E01025D1F4FC80160E070E0E2
:1034B00040E052E00E947100FE01E45DFD4F85E5B1
:1034C0008083FE01E35DFD4F8AEA808382E58EA75B
:1034D0008FA781E688AB91E499ABFE01EE5EFD4FCC
:1034E00022E72083FE01ED5EFD4F2083FE01EC5EAE
:1034F000FD4F9083FE01EB5EFD4F80833E852F855F
:1035000098898989FE01EA5EFD4F3083FE01E95EFC
:10351000FD4F2083FE01E85EFD4F9083FE01E75ED4
:10352000FD4F80833A852B859C858D85FE01E65E67
:10353000FD4F3083FE01E55EFD4F2083FE01E45E1A
:10354000FD4F9083FE01E35EFD4F80832A893B8916
:103550004C895D898981B80101E00E9417081D82AC
:10356000898160E040E050E00E94D11821E030E025
:10357000009711F420E030E0C901DF91CF911F9155
:103580000F910895AFE4B0E0E8ECFAE10C94451F28
:103590008E01025B1F4FD8018D939C936B0182E2D9
:1035A000E82EF12CEC0EFD1EC801B70141E00E948F
:1035B0002D049C01009709F0E3C08AA19BA199AF5B
:1035C00088AFCE0101969FAB8EABF801608171810F
:1035D000C7010E94710E9C01009709F0D1C06CA92F
:1035E0007DA96115710509F4C6C0655F7F4FCE01E5
:1035F0000D9645E150E00E9462008E01085C1F4F6D
:10360000C801B70146E150E00E946200C801B6015E
:103610000E94710E9C01009709F4B0C0843091059E
:1036200009F0AEC0C8010E9412109C01009709F079
:10363000A7C0FE01E65BFF4F00811181C8010D9616
:10364000BE01615F7F4F43E150E00E9462008D85C3
:103650008062D8011B968C93EAA1FBA181E0848350
:1036600028A539A54AA55BA5FE01FE96808191811A
:10367000A281B381281739074A075B0709F46EC096
:10368000F801838584FF6AC0E8ACF9AC958980E0D5
:10369000448950E0482B592B60E070E0BA0155276F
:1036A0004427338D20E0828D90E0822B932BA0E085
:1036B000B0E0482B592B6A2B7B2BC7010E943402A8
:1036C000AB01BC01411551056105710509F45EC0EE
:1036D000C7010E948D089C01E8ADF9AD009709F083
:1036E0004FC0DF01A15BBF4F8C918E32B9F5808155
:1036F000833079F4DE01DE962D913D914D915C9100
:1037000082A193A1A4A1B5A1281739074A075B0795
:1037100041F0DE01DE964D915D916D917C911397A4
:1037200004C040E050E060E070E09F0128593F4F46
:10373000D9014C939F0127593F4FD9015C93AB01AD
:10374000662777279F012E593F4FD9014C939F0140
:103750002D593F4FD9015C9381E08483CE0182963D
:103760000E94410D9C01009759F48AA19BA10E94DF
:10377000371A9C0105C024E030E002C028E030E0A8
:10378000C901C15BDF4FE8E00C94611F22E030E02B
:10379000F7CFA4E2B0E0EFECFBE10C94471F9CA351
:1037A0008BA38B019DE0E92EF12CEC0EFD1ECE01CA
:1037B0008396B70141E00E942D049C01009759F5C2
:1037C000CE0101969AA389A36BA17CA1C7010E9497
:1037D000710E9C010097F9F4EF8DF8A13097C9F0B4
:1037E000D80116968C911697868B17968C91179701
:1037F000878B14968C911497808F15968C91818F5E
:103800008D859E8521E0FC0124830E94371A9C014E
:1038100002C026E030E0C901A496E6E00C94631FE4
:10382000A4E2B0E0E6E1FCE10C94471F9CA38BA36B
:10383000F62EE42E8E01035F1F4FCE018396B80152
:1038400041E00E942D049C01009729F5CE010196CC
:103850009AA389A32BA13CA1C801B9010E94710EB2
:103860009C010097C1F4EF8DF8A1309791F087E2A9
:10387000E8228E2D809593858923EF208E298387DA
:103880008D859E8521E0FC0124830E94371A9C01CE
:1038900002C026E030E0C901A496E6E00C94631F64
:1038A000AAE3B0E0E6E5FCE10C94451F9AAF89AFCE
:1038B0008E01035F1F4FCE01C996B80141E00E94FF
:1038C0002D049C01009709F07CC0CE0101969AA3BB
:1038D00089A369AD7AADC8010E94710E9C01009761
:1038E00009F06FC0EF8DF8A1309721F0838580FD3E
:1038F00004C005C026E030E002C027E030E0458982
:10390000E488938D828D2115310509F05AC0342F3A
:1039100020E0FF24E22AF32A00E010E08701FF24E0
:10392000EE24392F20E090E0822B932BA0E0B0E032
:10393000E82AF92A0A2B1B2B838584FF47C082E0E3
:10394000E816F1040105110518F123E2C22ED12C6D
:10395000CC0EDD1EC601BE01635F7F4F46E150E025
:103960000E946200E9A6FAA60BA71CA7C60162E0A6
:1039700070E00E94CC0A9C01009719F5C6010E94D4
:103980005E109C01009739F084309105F9F019C060
:1039900022E030E016C027E030E013C0E114F1046B
:1039A0000105110549F08D859E85B801A7010E948A
:1039B000400C9C01009729F48D859E850E94371A42
:1039C0009C01C901EA96E8E00C94611FCE010D96B6
:1039D0000E94410D9C01009709F3F3CFA6E2B0E0ED
:1039E000E4EFFCE10C943B1F9CA38BA3ADE0CA2E3B
:1039F000D12CCC0EDD1ECE018396B60141E00E9493
:103A00002D048C01009709F004C1CE0101969AA300
:103A100089A36BA17CA1C6010E94710E8C01009745
:103A200009F4F5C08430910509F0F3C08D859E85B9
:103A300040E050E060E070E00E94740B6B017C019C
:103A4000611571058105910509F4E8C081E0C8168A
:103A5000D104E104F10409F4E4C0EFEFCE16EFEF76
:103A6000DE06EFEFEE06EFEFFE0609F4DDC0DFC085
:103A70000D851E85C801B701A6010E9434022B01E5
:103A80003C01FEE28F2E912C800E911EC40160E05D
:103A900070E040E052E00E947100C40160E270E01A
:103AA0004BE050E00E947100EEE2BE2EF801B6A697
:103AB00080E181AFEC5BFF4F1082F801EB5BFF4FC1
:103AC0001082F801EA5BFF4F1082F801E95BFF4FBB
:103AD0001082CDA2F801E85BFF4FC0828D2D99279F
:103AE0008EA3F801E75BFF4F8083C701AA27BB279E
:103AF000282EF801EE5BFF4F8083892F9927382EFF
:103B0000F801ED5BFF4F8083C801825B9F4FB401DA
:103B100040E250E00E946200F801E15BFF4FB0829A
:103B20008B899C89AD89BE896D857E85FB0120814D
:103B3000233069F422A133A144A155A18217930730
:103B4000A407B50721F480E090E0A0E0B0E0980180
:103B500028593F4FF9018083980127593F4FF901B8
:103B60009083CD01AA27BB2798012E593F4FF90119
:103B700080830D591F4FF8019083FB01B280AA2466
:103B8000A3941EC08D859E85FC0142A653A664A603
:103B900075A6A48240E050E060E070E00E948D08CD
:103BA0008C010097B1F40894411C511C611C711CDC
:103BB000C40160E070E040E052E00E947100BA94FD
:103BC000BB2001F7CE010D960E9412108C010097C8
:103BD00039F08D859E85B701A6010E94400C19C061
:103BE000EF8DF8A180E18387168A178A108E118ED7
:103BF0008DA1828F8EA1838F248A358A8D859E85A3
:103C000021E0FC0124830E94371A8C0102C008E0E5
:103C100010E0C801A696E2E10C94571F07E010E0FF
:103C2000D8CF02E010E0D5CF01E010E0D2CF8D85F3
:103C30009E8540E050E060E070E00E948D088C01BD
:103C4000009709F415CFC5CF0F93CF93DF93EC0105
:103C50006A817B81888199810E94FD009C01009787
:103C600009F049C08C8185FF46C086FF12C0E881FB
:103C7000F981BE01605E7F4F2E893F89488D598D45
:103C8000818101E00E941708009799F58C818F7B54
:103C90008C834A8D5B8D6C8D7D8D888199810E948E
:103CA0008D089C01009739F5EE8DFF8D838580622C
:103CB00083878A85848F8B85858F8C85868F8D857C
:103CC000878F8E85828F8F85838F8889848B898962
:103CD000858B168A178A108E118E8C818F7D8C832E
:103CE0008881998121E0FC0124830E94371A9C017C
:103CF00002C021E030E0C901DF91CF910F9108951A
:103D0000CF93DF93EC010E94241E9C01009711F4D5
:103D100019821882C901DF91CF9108958091900195
:103D2000882319F08150809390018091910188231C
:103D300019F0815080939101089560E070E080E077
:103D400090E008951F920F920FB60F9211242F93B7
:103D50003F934F935F936F937F938F939F93AF9313
:103D6000BF93EF93FF930E948E1EFF91EF91BF913F
:103D7000AF919F918F917F916F915F914F913F9103
:103D80002F910F900FBE0F901F901895AEE2B2E0EA
:103D9000ECECFEE10C944B1F80EB85B988E084B914
:103DA0003B9A3A9A80916E00826080936E008EE416
:103DB00087BD85B5856085BD809164008F7D8093CA
:103DC0006400789480E0BE016F5F7F4F0E946402C0
:103DD000009709F0429A80910F0181FF06C0439A33
:103DE000C25DDD4FE2E00C94671F98E088B189273F
:103DF00088B9FCCF629FD001739FF001829FE00DD4
:103E0000F11D649FE00DF11D929FF00D839FF00D59
:103E1000749FF00D659FF00D9927729FB00DE11D05
:103E2000F91F639FB00DE11DF91FBD01CF011124E2
:103E30000895A1E21A2EAA1BBB1BFD010DC0AA1FEB
:103E4000BB1FEE1FFF1FA217B307E407F50720F003
:103E5000A21BB30BE40BF50B661F771F881F991F7E
:103E60001A9469F760957095809590959B01AC01C7
:103E7000BD01CF0108952F923F924F925F926F92B2
:103E80007F928F929F92AF92BF92CF92DF92EF92EA
:103E9000FF920F931F93CF93DF93CDB7DEB7CA1B6B
:103EA000DB0B0FB6F894DEBF0FBECDBF09942A8896
:103EB000398848885F846E847D848C849B84AA843E
:103EC000B984C884DF80EE80FD800C811B81AA81CB
:103ED000B981CE0FD11D0FB6F894DEBF0FBECDBF96
:103EE000ED010895EE0FFF1F0590F491E02D099468
:043EF000F894FFCF74
:103EF400222A2B2C3A3B3C3D3E3F5B5D7C7F0001FC
:103F0400809A90418E418F804545454949498E8F1D
:103F14009092924F994F555559999A9B9C9D9E9F6B
:103F240041494F55A5A5A6A7A8A9AAABAC21AEAFF8
:103F3400B0B1B2B3B4B5B6B7B8B9BABBBCBDBEBF05
:103F4400C0C1C2C3C4C5C6C7C8C9CACBCCCDCECFF5
:103F5400D0D1D2D3D4D5D6D7D8D9DADBDCDDDEDFE5
:103F6400E0E1E2E3E4E5E6E7E8E9EAEBECEDEEEFD5
:103F7400F0F1F2F3F4F5F6F7F8F9FAFBFCFDFEFFC5
:00000001FF
