:100000000C9443000C9460000C9460000C9460000D
:100010000C9460000C9460000C9460000C941A081E
:100020000C9460000C9460000C9460000C946000D0
:100030000C9460000C9460000C9460000C946000C0
:100040000C9460000C9460000C9460000C946000B0
:100050000C9460000C9460000C9460000C946000A0
:100060000C9460000C9460000806100666066C068E
:100070002E072E072E072E072E072E07F306F8064B
:10008000FA0607071B0711241FBECFEFD8E0DEBF1B
:10009000CDBF15E0A0E0B1E0E2E9FDE102C00590CE
:1000A0000D92AA3CB107D9F71FE0AAECB5E001C058
:1000B0001D92AC35B107E1F70E9456080C94C70EAB
:1000C0000C9400008FEF8EBD0DB407FEFDCF8EB5F2
:1000D000089582E38093CB050E9462000E94620033
:1000E0008F3F39F08091CB058823C1F720E030E0C5
:1000F00002C021E030E0C9010895289A0E94620000
:10010000089528980E946900009729F40E947D00B4
:1001100020E030E002C021E030E0C90108954198BC
:100120000E946900419A0E9462008091C00581602E
:100130008093C00508950F931F93CF93DF93EC0135
:100140008B0184E18093CA050E9462008F3F29F4ED
:100150008091CA058823C1F727C08E3F29F58FEF0C
:100160008EBD0DB407FEFDCF9EB598838EBD0DB438
:1001700007FEFDCF9EB599838EBD0DB407FEFDCF62
:100180009EB59A838EBD0DB407FEFDCF9EB59B83B1
:100190000450104011F02496E3CF0E9462000E94A8
:1001A000620021E030E002C020E030E0C901DF91D0
:1001B000CF911F910F910895A1E0B0E0E2EEF0E041
:1001C0000C94980E8C0169830E94690069810097E4
:1001D00049F16EBD0DB407FEFDCF6D3F31F180E0FA
:1001E000F80190819EBD0DB407FEFDCFF80191810D
:1001F0009EBD0DB407FEFDCF815019F00E5F1F4F5D
:10020000EFCF8FEF8EBD0DB407FEFDCF8FEF8EBD0C
:100210000DB407FEFDCF0E9462008F7121E030E037
:10022000853029F020E030E002C021E030E0C90153
:100230002196E4E00C94B40EA1E0B0E0E2E2F1E03B
:100240000C94960E282F7A018B0187FF0DC087E34F
:1002500040E050E060E070E029830E941C012981A9
:10026000823008F044C02F7729830E947D000E94CD
:10027000810029810097D1F1822F80648EBD0DB459
:1002800007FEFDCF812F9927AA27BB278EBD0DB46E
:1002900007FEFDCFC801AA27BB278EBD0DB407FE00
:1002A000FDCFBB27A12F902F8F2D8EBD0DB407FE44
:1002B000FDCFEEBC0DB407FEFDCF222321F0283088
:1002C00021F081E003C085E901C087E88EBD0DB44F
:1002D00007FEFDCF2C3011F40E9462001AE00E944C
:1002E000620087FF04C01150D1F701C08FEF219643
:1002F000E6E00C94B20ECF93DF93EC01CB01BA0190
:1003000062507040804090402A8D3B8D4C8D5D8DB9
:1003100022503040404050406217730784079507D1
:1003200088F42A8130E040E050E00E946B0E9B018F
:10033000AC018AA59BA5ACA5BDA5280F391F4A1FF6
:100340005B1F04C020E030E040E050E0B901CA018A
:10035000DF91CF910895A8E0B0E0E1EBF1E00C94DB
:10036000920EFA018B015C0145E050E0D801ED905E
:10037000FD908D01D501ED92FD925D0141505040FF
:10038000A9F7DB011A964C91DC011A964C931A9747
:1003900026303105C0F0522F579555275795432FDA
:1003A0004695D52ED42A432F479544274795269521
:1003B000C42EC22A219131912C0D3D1D40815181C5
:1003C0004115510541F7FE01399647E050E0722F83
:1003D0007F70672F605D6A3308F0695F62934150F8
:1003E000504064E0369527956A95E1F7211531056F
:1003F00071F7FE01E40FF51F2EE72183FC0120E0D9
:1004000030E002C02F5F3F4F2417350730F0FC016A
:10041000E20FF31FCE01019604C06191603291F7A3
:10042000F6CF4830510538F4DC01A40FB51F6C91AC
:100430004F5F5F4F01C060E261932F5F3F4F2830F5
:10044000310578F32896EAE00C94AE0E8230D8F4A9
:10045000E82FF0E0DF01AA0FBB1FA353BA4F0D90A6
:10046000BC91A02D109709F01C926115710511F037
:10047000DB011C92EE0FFF1FE353FA4F7183608381
:1004800020E030E002C02BE030E0C9010895A4E094
:10049000B0E0EDE4F2E00C94940E882309F0A9C0DA
:1004A0008091C00581FDA2C0389A409A399A8CE2A9
:1004B00084B980E58CBD82E58CBD1AE00E946200A3
:1004C0001150E1F780E040E050E060E070E00E9411
:1004D0001C01813009F079C084E68093CA0588E068
:1004E0004AEA51E060E070E00E941C01813009F0AE
:1004F00041C08E010F5F1F4F95E0E92EF12CEC0EED
:10050000FD1E68010E946200F60181936F01EE15E5
:10051000FF05C1F78B81813009F057C08C818A3A81
:1005200009F053C08091CA05882349F089EA40E068
:1005300050E060E070E40E941C01882399F78091EC
:10054000CA05882309F441C08AE340E050E060E036
:1005500070E00E941C018823C1F50E946200F8012E
:1005600081938F01EE15FF05C1F7898186FF2BC0AE
:100570000CE02CC089EA40E050E060E070E00E94AE
:100580001C01823018F402E019EA02C001E011E017
:100590008091CA05882349F0812F40E050E060E057
:1005A00070E00E941C01882399F78091CA05882376
:1005B00061F080E140E052E060E070E00E941C01E8
:1005C000882319F403C004E001C000E00093CC05C7
:1005D0000E947D00002341F08091C0058E7F8093B2
:1005E000C00580E58CBD02C00E948F008091C005CF
:1005F00001C081E02496E8E00C94B00E882319F441
:100600008091C005089581E008950F93CF93DF9303
:10061000EB01BA01A901882309F044C0002309F4C1
:1006200041C08091C00580FD40C08091CC0583FD14
:1006300007C029E0440F551F661F771F2A95D1F781
:10064000013069F481E10E941C01882311F5CE017B
:1006500060E072E00E949B000097D1F41AC082E132
:100660000E941C018823A9F4CE0160E072E00E9480
:100670009B00009729F0015019F0C050DE4FF4CFD5
:100680008CE040E050E060E070E00E941C0101C09E
:1006900000E00E947D0021E030E0002341F420E0F2
:1006A00030E005C024E030E002C023E030E0C901C2
:1006B000DF91CF910F910895CF92DF92EF92FF9249
:1006C0000F93CF93DF93EB0169017A01882309F03F
:1006D00058C0002309F455C08091C00580FD54C066
:1006E0008091C00582FD53C08091CC0590E083FDD0
:1006F00007C039E0CC0CDD1CEE1CFF1C3A95D1F78D
:10070000013071F488E1B701A6010E941C01882321
:1007100079F5CE016EEF0E94DC00009731F528C01C
:1007200086709070009739F0402F50E060E070E0E4
:1007300087E90E941C0189E1B701A6010E941C0102
:100740008823B1F4CE016CEF0E94DC00009729F001
:10075000015019F0C050DE4FF5CF80E090E06DEF12
:100760000E94DC00009719F003C000E001C001E026
:100770000E947D0021E030E0002359F420E030E0C9
:1007800008C024E030E005C023E030E002C022E0F1
:1007900030E0C901DF91CF910F91FF90EF90DF9092
:1007A000CF900895A0E0B0E0E8EDF3E00C948E0E59
:1007B000EC014A015B01CEA4DFA4E8A8F9A8C416A5
:1007C000D506E606F70609F44BC08C818823A1F113
:1007D00042E3642E712C6C0E7D1E8981B301A7014A
:1007E000960101E00E945C030097E9F51C828E8D62
:1007F0009F8DA8A1B9A12AA13BA14CA15DA1820F07
:10080000931FA41FB51FC816D906EA06FB06A0F45D
:100810001B8110C08E8D9F8DA8A1B9A1C80ED91EB5
:10082000EA1EFB1E8981B301A701960101E00E9427
:100830005C031150123070F781149104A104B104CB
:1008400079F0BE016E5C7F4F8981A501940101E0C2
:100850000E940503009739F48EA69FA6A8AAB9AAFC
:1008600020E030E002C021E030E0C901CDB7DEB7C2
:10087000EEE00C94AA0EA0E0B0E0E1E4F4E00C9409
:10088000900EEC016A017B0148015901423051058B
:100890006105710508F4C8C08A8D9B8DAC8DBD8D36
:1008A000481759076A077B0708F0BEC08881823065
:1008B00009F46AC0833009F483C0813009F0AFC005
:1008C0008A0116950795040F151FA801452F552776
:1008D000469560E070E08AA19BA1ACA1BDA1480F44
:1008E000591F6A1F7B1FCE010E94D2039C010097F3
:1008F00009F097C0C8019170E1E0CE22DD24C11457
:10090000D10451F0FE01E80FF91F32A93F70282DE4
:100910002295207F232B01C0282D8C0F9D1FFC01C9
:1009200022AB0F5F1F4F81E08C83A801452F552715
:10093000469560E070E08AA19BA1ACA1BDA1480FE3
:10094000591F6A1F7B1FCE010E94D2039C01009792
:1009500009F067C01170C114D10449F084E0B69465
:10096000A794979487948A95D1F7882D08C0FE01A3
:10097000E00FF11F82A9807F992D9F70892B0C0FAA
:100980001D1FF80182AB4DC0452F562F672F7727CB
:100990008AA19BA1ACA1BDA1480F591F6A1F7B1F53
:1009A000CE010E94D2039C010097D9F5F601EE0F0B
:1009B000FF1FF170F296EC0FFD1F9182808231C013
:1009C000E7E07695679557954795EA95D1F78AA11F
:1009D0009BA1ACA1BDA1480F591F6A1F7B1FCE016F
:1009E0000E94D2039C010097E1F4F601EE0FFF1F75
:1009F000EE0FFF1FF170F296EC0FFD1F80819181C9
:100A0000A281B38180709070A070B07F88299929ED
:100A1000AA29BB2980839183A283B38302C022E0E9
:100A200030E081E08C8302C022E030E0C901CDB724
:100A3000DEB7ECE00C94AC0EA0E0B0E0E2E2F5E052
:100A40000C94930EEC016A017B0142305105610563
:100A5000710508F4A2C08A8D9B8DAC8DBD8D4817A1
:100A600059076A077B0708F098C08881823009F42B
:100A700056C0833009F46FC0813009F093C08A01F9
:100A800016950795040F151FA801452F5527469564
:100A900060E070E08AA19BA1ACA1BDA1480F591FE5
:100AA0006A1F7B1FCE010E94D203009709F07AC013
:100AB000F801F170EC0FFD1FB2A80F5F1F4FA801E6
:100AC000452F5527469560E070E08AA19BA1ACA117
:100AD000BDA1480F591F6A1F7B1FCE010E94D20380
:100AE000009709F05FC02B2D30E011700C0F1D1F17
:100AF000F80192A980E0282B392BF1E0CF22DD24E8
:100B0000C114D10431F084E0369527958A95E1F738
:100B10001FC040E050E03F704070507047C0452F0C
:100B2000562F672F77278AA19BA1ACA1BDA1480FA3
:100B3000591F6A1F7B1FCE010E94D203009791F5B7
:100B4000F601EE0FFF1FF170EC0FFD1F22A933A974
:100B500040E050E02BC0E7E07695679557954795C4
:100B6000EA95D1F78AA19BA1ACA1BDA1480F591F5D
:100B70006A1F7B1FCE010E94D203009799F4F601F1
:100B8000EE0FFF1FEE0FFF1FF170EC0FFD1F22A9EC
:100B900033A944A955A95F7009C021E030E040E0C5
:100BA00050E004C02FEF3FEF4FEF5FEFB901CA01F4
:100BB000CDB7DEB7E9E00C94AF0EA0E1B0E0E3EE14
:100BC000F5E00C94960E8A01882309F052C17A014F
:100BD000653081F4FA018081882321F0813009F0A9
:100BE00048C103C00E948F0002C0FA01818300E067
:100BF00010E044C18091C00580FD3EC1E62FF0E0C9
:100C0000EF30F10508F02AC1EC5CFF4F0C94C10EE7
:100C10000E948100009709F424C10E947D0024C134
:100C200089E040E050E060E070E00E941C01882311
:100C300009F017C1CE01019660E170E00E949B00AF
:100C4000009709F40EC199819295969596959370A7
:100C50005A854985913089F4852F90E00196342F8B
:100C600020E0820F931FA0E0B0E02AE0880F991FD8
:100C7000AA1FBB1F2A95D1F7B0C04295469546954D
:100C80004370888590E0880F991F880F991F840F03
:100C9000911D01962F8130E023703070322F222772
:100CA000330F330F820F931FA0E0B0E02E812F701F
:100CB0004B85441F4427441F240F2E5F352F33706C
:100CC000330F230F30E0295030402CC080E092E0F9
:100CD000FA0191838083C8C0E090CC05E2FE2AC06F
:100CE0008DE840E050E060E070E00E941C01882345
:100CF00009F0B7C00E946200CE01019660E170E089
:100D00000E949B00009709F4ACC0F0E3EF2E0E9414
:100D10006200EA94E1F72B8522952F7080E190E044
:100D2000A0E0B0E004C0880F991FAA1FBB1F2A953E
:100D3000D2F753C089E040E050E060E070E00E94EC
:100D40001C01882309F08DC0CE01019660E170E09E
:100D50000E949B00009709F484C04B858C85E1FEBE
:100D60001AC0881F8827881F90E0019650E04F73B3
:100D70005070440F551F840F951F2E852295269580
:100D80002695237030E02150304002C0880F991F13
:100D90002A95E2F720C0282F30E02370307073E0EE
:100DA000220F331F7A95E1F7829586958770280F79
:100DB000311D2F5F3F4F50E04C7750705595479550
:100DC000559547954F5F5F4F249FC001259F900D1C
:100DD000349F900D1124A0E0B0E0F801808391834E
:100DE000A283B38341C08091CC05FA0180833CC0CB
:100DF00089E001C08AE040E050E060E070E00E94DD
:100E00001C01882371F5C80160E170E022C08AE30B
:100E100040E050E060E070E00E941C01882309F58A
:100E20000C5F1F4F0E946200F70181937F01E01762
:100E3000F107C1F719C08DE840E050E060E070E0D4
:100E40000E941C01882369F40E946200C80160E4CA
:100E500070E00E949B00009739F403C004E010E0AA
:100E600005C001E010E002C000E010E00E947D003B
:100E700005C004E010E002C003E010E0C801609685
:100E8000E6E00C94B20E8091CA05882319F08150D7
:100E90008093CA058091CB05882319F081508093F7
:100EA000CB0508958038910508F16115710561F051
:100EB0008F3F910509F0E0F4FC01EE0FFF1FE054B5
:100EC000FC4F2081318116C0E0ECF4E020E030E0FE
:100ED000419151918417950729F02F5F3F4F20389A
:100EE0003105B1F720583F4F307004C09C0102C05B
:100EF00020E030E0C90108959C01A0EEB2E0E0E0FE
:100F0000F0E001C031968D919D91009749F028172E
:100F10003907C1F7EE0FFF1FE050FF4F20813181ED
:100F2000C90108959091C00095FFFCCF8093C60041
:100F30000895AF92BF92CF92DF92EF92FF920F93FC
:100F40001F937B018C0120E030E040E051E40E94DF
:100F5000320B20E034E244EF5AE40E94D40A5B01F1
:100F60006C01C801B70120E030E040E851E40E9484
:100F7000320B9B01AC01C601B5010E942F0C20E091
:100F800030E040E85FE30E94010B0E94DE0C6093BA
:100F9000C400672F770F770B6093C5001F910F91E7
:100FA000FF90EF90DF90CF90BF90AF90089588E1D1
:100FB0008093C10086E08093C20060E070E086E12B
:100FC00096E40E94990708958091C00087FFFCCFA6
:100FD0008091C60008950E9492070895EF92FF92B3
:100FE000CF93DF93E82EE7017E01F92EE70102C0DF
:100FF0000E94920789918823D9F7DF91CF91FF90C2
:10100000EF900895FC0181E0878382E0868383E08E
:10101000858384E0838385E0828386ED97E09183F6
:10102000808381E090E0089581E090E0089581E080
:1010300090E008951F920F920FB60F9211242F93F4
:101040003F934F935F936F937F938F939F93AF9350
:10105000BF93EF93FF938091550A9091560A0196A2
:101060009093560A8093550A0E944307FF91EF918F
:10107000BF91AF919F918F917F916F915F914F91B0
:101080003F912F910F900FBE0F901F90189560E425
:1010900078E184EA94E3089520ED37E004C0F90193
:1010A0003197F1F701970097D1F70895A2E3B2E0E5
:1010B000ECE5F8E00C94980E80EB85B988E084B9F3
:1010C0003B9A3A9A80E0BE016F5F7F4F0E942602F2
:1010D00088E893E10E944C0880E00E94470208E003
:1010E00014E088B1802788B988B1812788B988EC55
:1010F00090E00E944C08F5CF8A3019F48DE001D0C1
:101100008AE0FF93EF93E091D105F091D2053097FB
:1011100009F00995EF91FF910895FC0185918030C8
:1011200011F0EADFFBCF0895FF27E0E230E247FF4E
:101130000CC0419597FF09C0EDE2609570958095D0
:101140009095611D711D811D911D27FF02C0219584
:1011500030E350E2AA27660F771F881F991FAA1F46
:10116000A41710F0A41B63955A95A9F7AA3008F0AC
:10117000A95FA05DAF93F395611571058105910598
:1011800041F7ED3211F4EF93F395F21718F43F9312
:10119000F395FBCF8F91B0DFFA95E1F70895DF93D8
:1011A000CF93CDB7DEB72596E991F991859180303F
:1011B00021F0853229F0A0DFF9CFCF91DF9108959A
:1011C00020E0E89455915532B1F3503311F468940E
:1011D00055915A3348F4505380F3220F022E220FB8
:1011E000220F200D250FF4CF0EF4219589919991AE
:1011F000533609F3533729F1533559F1BC01882788
:101200009927E8945C3621F48991999168945591D5
:10121000543639F446EF7EF077FF0DC08FEF9FEF25
:101220000AC055374AE039F0583540E121F05236CE
:1012300042E009F0C2CFFF93EF9376DFEF91FF9189
:10124000B5CFFF93EF93FC0181918030B9F354DF68
:10125000FBCFFF93EF9361DFF1CF0B01DC01ED9149
:10126000FD912227332744275527E8949AE001C0AF
:10127000319660816032E1F3A8F16D3211F4689427
:10128000F7CF6A3378F5603368F171F498E03196FE
:101290006081613248F1623611F492E003C0683730
:1012A00019F490E1319660816132F0F0613608F016
:1012B00060526053B8F06A3018F067506A3090F0AE
:1012C000691780F481E2771B08F4790F76955795BA
:1012D0004795379527958A95B9F7260F381F481FE8
:1012E000581FE0CF80E001C081E04EF466272095D2
:1012F000309540955095261F361F461F561FFE936A
:10130000EE93D0012D933D934D935D931124089559
:10131000A0E0B0E0EEE8F9E00C948E0EFC01EA01EA
:101320008081823008F43AC1DB019C91923008F44C
:1013300032C1843059F4943009F030C19181119652
:101340008C911197981709F023C128C1943009F4A2
:1013500022C19230B1F4823009F020C1CA01AF013C
:1013600028E0DA010D90AD01DC010D92CD01215094
:10137000C1F7DB0111968C911197918189238983A3
:101380000CC1823009F407C1C280D380DB01129600
:101390006D907C90139724813581468157811496F6
:1013A000ED90FD900D911C911797C6018619970934
:1013B0005C0197FF04C0AA24BB24A81AB90AB0E2B2
:1013C000AB16B1040CF062C0181619066CF53701A3
:1013D00048010A2C04C096948794779467940A94E1
:1013E000D2F781E090E0A0E0B0E00A2C04C0880FC2
:1013F000991FAA1FBB1F0A94D2F70197A109B1092F
:101400008E219F21A023B123EE24FF248701E394A2
:101410000097A105B10519F4EE24FF248701E62801
:10142000F728082919293EC00097E1F1CA0CDB1CF6
:1014300039014A010A2C04C09694879477946794E2
:101440000A94D2F781E090E0A0E0B0E00A2C04C05A
:10145000880F991FAA1FBB1F0A94D2F70197A109F1
:10146000B10982239323A423B52321E030E040E097
:1014700050E00097A105B10521F420E030E040E004
:1014800050E026293729482959290CC06C147D04BD
:1014900024F4EE24FF24870105C0630120E030E03E
:1014A00040E050E08181FB019181891709F445C03A
:1014B000882349F0D801C701821B930BA40BB50BFD
:1014C0009C01AD0104C02E193F09400B510B57FD83
:1014D00004C01982DB82CA820BC081E08983DB826F
:1014E000CA8250954095309521953F4F4F4F5F4FA1
:1014F0002C833D834E835F830DC0880F991FAA1FE5
:10150000BB1F8C839D83AE83BF838A819B810197A0
:101510009B838A838C819D81AE81BF819C01AD01BB
:1015200021503040404050402F3FEFEF3E07EFEF5B
:101530004E07EFE35E0708F30BC08983DB82CA82A4
:101540002E0D3F1D401F511F2C833D834E835F8313
:1015500083E088832C813D814E815F8157FF1DC0D0
:10156000DA01C90181709070A070B07056954795EE
:1015700037952795822B932BA42BB52B8C839D839A
:10158000AE83BF838A819B8101969B838A8305C03A
:10159000E1ECF5E003C0FB0101C0FE01CF01CDB7D6
:1015A000DEB7EEE00C94AA0EA0E2B0E0EAEDFAE0BD
:1015B0000C94960E69837A838B839C832D833E8360
:1015C0004F83588789E0E82EF12CEC0EFD1ECE01EA
:1015D0000196B7010E94020E8E010F5E1F4FCE01D1
:1015E0000596B8010E94020EC701B801AE01475E20
:1015F0005F4F0E9488090E94310DA096E6E00C948E
:10160000B20EA0E2B0E0E7E0FBE00C94960E698336
:101610007A838B839C832D833E834F8358878E01EF
:10162000075F1F4FCE010196B8010E94020E91E1A3
:10163000E92EF12CEC0EFD1ECE010596B7010E949D
:10164000020E8A8991E089278A8BC801B701AE0111
:10165000475E5F4F0E9488090E94310DA096E6E028
:101660000C94B20EA0E2B0E0E8E3FBE00C948A0E2A
:1016700069837A838B839C832D833E834F83588732
:10168000CE010196BE01675F7F4F0E94020ECE0120
:101690000596BE016F5E7F4F0E94020E99859230C3
:1016A00078F089898230C0F0943019F4823041F4A6
:1016B000CEC0843019F4923079F4C9C0923051F41C
:1016C00081E02A859A89291709F480E08A87CE016A
:1016D0000996BFC0823051F481E02A859A89291782
:1016E00009F480E08A8BCE014196B3C06D847E847C
:1016F0008F849888ED88FE880F89188DE0E2F0E0ED
:1017000080E090E0A0E0B0E0AA24BB24650120E0E6
:1017100030E040E050E0B301617070706115710518
:10172000D9F02E0D3F1D401F511F15012601280E17
:10173000391E4A1E5B1E81E090E0A0E0B0E02E154D
:101740003F054007510720F080E090E0A0E0B0E0C6
:10175000820D931DA41DB51DAA0CBB1CCC1CDD1C49
:1017600017FF09C061E0262E312C412C512CA228F4
:10177000B328C428D528319749F0EE0CFF1C001F70
:10178000111F9694879477946794C5CF6B897C8951
:10179000EB85FC856E0F7F1F6E5F7F4F7C8F6B8F9D
:1017A00061E0EA857A89E71709F460E06A8F6B8D5A
:1017B0007C8D10C0FC01E170F070309729F05695D7
:1017C0004795379527955068B695A795979587952E
:1017D0006F5F7F4FB7FDEECF0CC0880F991FAA1F18
:1017E000BB1F57FD8160220F331F441F551F6150DF
:1017F00070408030E0E09E07E0E0AE07E0E4BE0726
:1018000060F36B8F7C8F6FE7E62EF12C012D112D8D
:10181000E822F9220A231B2360E4E616F1040105FD
:10182000110561F487FD0AC02115310541055105F7
:1018300029F0805C9F4FAF4FBF4F80788D8F9E8F78
:10184000AF8FB8A383E0898FCE01499602C081ECA7
:1018500095E00E94310DA096E2E10C94A60EA8E15D
:10186000B0E0E5E3FCE00C94920E69837A838B830D
:101870009C832D833E834F8358878E01075F1F4FC4
:10188000CE010196B8010E94020E81E1E82EF12CF2
:10189000EC0EFD1ECE010596B7010E94020E998541
:1018A000923008F484C08989823008F47CC02A858B
:1018B0003A8923272A87943011F0923021F498171F
:1018C00009F06DC072C0843039F41D861E861F86F3
:1018D000188A1C861B866BC0823019F484E08987C5
:1018E00066C08B859C852B893C89821B930B9C87CA
:1018F0008B872D853E854F855889ED88FE880F8919
:10190000188D2E153F054007510738F4220F331F5D
:10191000441F551F01979C878B876FE170E0A12CB6
:10192000B12CC12CA0E4DA2E80E090E0A0E0B0E081
:101930002E153F054007510740F08A299B29AC2905
:10194000BD292E193F09400B510BD694C794B7946B
:10195000A794220F331F441F551F6150704041F759
:101960006FE7E62EF12C012D112DE822F9220A2332
:101970001B2360E4E616F1040105110561F487FDFF
:101980000AC0211531054105510529F0805C9F4FA2
:10199000AF4FBF4F80788D879E87AF87B88B8E0102
:1019A000075F1F4F04C0870102C001EC15E0C801AA
:1019B0000E94310D6896EAE00C94AE0EACE0B0E007
:1019C000E4EEFCE00C949A0E69837A838B839C830B
:1019D000CE010196BE016B5F7F4F0E94020E8D818A
:1019E000823081F1823070F1843021F48E8188233D
:1019F00071F10AC02F81388537FD24C06E812F31E7
:101A000031053CF0662319F120E030E040E050E879
:101A100022C08EE190E0821B930B29853A854B858D
:101A20005C8504C056954795379527958A95D2F7DA
:101A3000662389F050954095309521953F4F4F4F43
:101A40005F4F09C020E030E040E050E004C02FEFDD
:101A50003FEF4FEF5FE7B901CA012C96E2E00C942B
:101A6000B60EEF92FF920F931F93CF93DF93FC017B
:101A7000248135814681578161818081823020F4C3
:101A80004061EFEFF0E0A6C0843009F49DC08230E1
:101A900009F494C0211531054105510509F491C09F
:101AA0000280F381E02D8FEFE238F8070CF05CC084
:101AB000C2E8DFEFCE1BDF0BCA31D10574F5790127
:101AC0008A010C2E04C016950795F794E7940A94A2
:101AD000D2F781E090E0A0E0B0E00C2E04C0880FC7
:101AE000991FAA1FBB1F0A94D2F70197A109B10938
:101AF00082239323A423B52321E030E040E050E08B
:101B00000097A105B10521F420E030E040E050E06D
:101B10002E293F29402B512B04C020E030E040E02B
:101B200050E0DA01C9018F779070A070B0708034F6
:101B30009105A105B10539F427FF09C0205C3F4F8D
:101B40004F4F5F4F04C0215C3F4F4F4F5F4FE1E06D
:101B5000F0E0203080E0380780E0480780E4580754
:101B600028F5E0E0F0E022C0E038F1056CF5E1583E
:101B7000FF4FDA01C9018F779070A070B070803488
:101B80009105A105B10539F427FF09C0205C3F4F3D
:101B90004F4F5F4F04C0215C3F4F4F4F5F4F57FF88
:101BA00005C05695479537952795319687E0569508
:101BB0004795379527958A95D1F70CC0E0E0F0E07E
:101BC00005C0E0E0F0E006C0EFEFF0E020E030E03C
:101BD00040E050E08E2F879588278795942F9F7738
:101BE000679566276795E695E22EA92FA82BFE2F0D
:101BF000F62B622F732F8A2F9F2FCDB7DEB7E6E02B
:101C00000C94B20EDC01FB012C9111963C911197C2
:101C100012968C911297482F4F7750E0982F991F6A
:101C20009927991F13966C911397862F880F892BEC
:101C300090E0661F6627661F6183009739F52115BE
:101C400031054105510511F482E029C082E89FEF7A
:101C50009383828367E0220F331F441F551F6A95C9
:101C6000D1F783E0808309C0220F331F441F551F23
:101C700082819381019793838283203080E03807AB
:101C800080E0480780E4580778F320C08F3F910533
:101C900079F4211531054105510519F484E080835B
:101CA000089544FF03C081E0808310C010820EC0FD
:101CB0008F5790409383828383E0808387E0220F55
:101CC000331F441F551F8A95D1F7506424833583F1
:101CD000468357830895629FD001739FF001829FCE
:101CE000E00DF11D649FE00DF11D929FF00D839FAB
:101CF000F00D749FF00D659FF00D9927729FB00D48
:101D0000E11DF91F639FB00DE11DF91FBD01CF015A
:101D1000112408952F923F924F925F926F927F927B
:101D20008F929F92AF92BF92CF92DF92EF92FF92EB
:101D30000F931F93CF93DF93CDB7DEB7CA1BDB0B97
:101D40000FB6F894DEBF0FBECDBF09942A8839883C
:101D500048885F846E847D848C849B84AA84B98443
:101D6000C884DF80EE80FD800C811B81AA81B9814F
:101D7000CE0FD11D0FB6F894DEBF0FBECDBFED0163
:101D80000895EE0FFF1F0590F491E02D0994F8944B
:021D9000FFCF83
:101D9200410042004300440045004600470048001D
:101DA20049004A004B004C004D004E004F005000CD
:101DB200510052005300540055005600570058007D
:101DC20059005A002100E0FFE1FFE5FFE2FFE3FFD7
:101DD200C000C100C200C300C400C500C600C700E5
:101DE200C800C900CA00CB00CC00CD00CE00CF0095
:101DF200D000D100D200D300D400D500D600D80044
:101E0200D900DA00DB00DC00DD00DE007801000131
:101E120002010401060108010A010C010E01100170
:101E220012011401160118011A011C011E012001E0
:101E320022012401260128012A012C012E01300150
:101E420032013401360139013B013D013F014101BB
:101E52004301450147014A014C014E015001520123
:101E62005401560158015A015C015E016001620190
:101E72006401660168016A016C016E017001720100
:101E82007401760179017B017D0191019103920335
:101E920093039403950396039703980399039A0374
:101EA2009B039C039D039E039F03A003A103A30323
:101EB200A403A503A603A703A803A903AA03100466
:101EC200110412041304140415041604170418044C
:101ED20019041A041B041C041D041E041F042004FC
:101EE20021042204230424042504260427042804AC
:101EF20029042A042B042C042D042E042F0401048B
:101F02000204030404040504060407040804090483
:101F12000A040B040C040E040F04602161216221E7
:101F220063216421652166216721682169216A2173
:101F32006B216C216D216E216F2121FF22FF23FF76
:101F420024FF25FF26FF27FF28FF29FF2AFF2BFF5B
:101F52002CFF2DFF2EFF2FFF30FF31FF32FF33FF0B
:101F620034FF35FF36FF37FF38FF39FF3AFF0000F5
:101F7200610062006300640065006600670068003B
:101F820069006A006B006C006D006E006F007000EB
:101F9200710072007300740075007600770078009B
:101FA20079007A00A100A200A300A500AC00AF0056
:101FB200E000E100E200E300E400E500E600E70003
:101FC200E800E900EA00EB00EC00ED00EE00EF00B3
:101FD200F000F100F200F300F400F500F600F80062
:101FE200F900FA00FB00FC00FD00FE00FF00010109
:101FF20003010501070109010B010D010F01110187
:1020020013011501170119011B011D011F012101F6
:1020120023012501270129012B012D012F01310166
:102022003301350137013A013C013E0140014201D1
:102032004401460148014B014D014F015101530139
:102042005501570159015B015D015F0161016301A6
:102052006501670169016B016D016F017101730116
:10206200750177017A017C017E019201B103B2030D
:10207200B303B403B503B603B703B803B903BA0392
:10208200BB03BC03BD03BE03BF03C003C103C30341
:10209200C403C503C603C703C803C903CA03300484
:1020A200310432043304340435043604370438046A
:1020B20039043A043B043C043D043E043F0440041A
:1020C20041044204430444044504460447044804CA
:1020D20049044A044B044C044D044E044F04510479
:1020E2005204530454045504560457045804590422
:1020F2005A045B045C045E045F0470217121722146
:1021020073217421752176217721782179217A2111
:102112007B217C217D217E217F2141FF42FF43FFE4
:1021220044FF45FF46FF47FF48FF49FF4AFF4BFF79
:102132004CFF4DFF4EFF4FFF50FF51FF52FF53FF29
:1021420054FF55FF56FF57FF58FF59FF5AFF000033
:10215200C700FC00E900E200E400E000E500E7005F
:10216200EA00EB00E800EF00EE00EC00C400C5005E
:10217200C900E600C600F400F600F200FB00F90018
:10218200FF00D600DC00A200A300A500A720920158
:10219200E100ED00F300FA00F100D100AA00BA005C
:1021A200BF001023AC00BD00BC00A100AB00BB000F
:1021B2009125922593250225242561256225562500
:1021C20055256325512557255D255C255B25102561
:1021D200142534252C251C2500253C255E255F254C
:1021E2005A25542569256625602550256C256725C5
:1021F20068256425652559255825522553256B25C3
:102202006A2518250C25882584258C25902580256E
:10221200B103DF009303C003A303C303B500C403E8
:10222200A6039803A903B4031E22C603B5032922F9
:102232006122B1006522642220232123F700482273
:10224200B0001922B7001A227F20B200A025A000F8
:0A2252000100000000000000000081
:00000001FF
