:100000000C94C1020C94DE020C94DE020C94DE020D
:100010000C94DE020C94521A0C94DE020C94DE0254
:100020000C94DE020C942B1A0C94DE020C94DE026B
:100030000C94DE020C94DE020C94071A0C94DE027F
:100040000C94DE020C94DE020C94DE020C94DE02B0
:100050000C94DE020C94481A0C94DE020C94DE021E
:100060000C94DE020C94DE028F169716ED16F31632
:10007000B517B517B517B517B517B5177A177F1791
:1000800081178E17A21700000000007CDAF2DA7CDC
:100090007CD6F2D67C387C3E7C38183C7E3C1838C6
:1000A000EABEEA38387AFE7A3800183C1800FFE7D2
:1000B000C3E7FF0018241800FFE7DBE7FF0C125C22
:1000C000607064949E946402FEA0A0E002FEA0A46E
:1000D000FC5A3CE73C5AFE7C3838101038387CFE1D
:1000E0002844FE4428FAFA00FAFA6090FE80FE00E6
:1000F0006691A95606060606062945FF45291020E1
:100100007E201008047E0408101054381010385453
:100110001010780808080830783078300C1C7C1CE7
:100120000C60707C706000000000000000FA0000AD
:1001300000E000E00028FE28FE282454FE5448C4B5
:10014000C81026466C926A040A0010E0C00000380D
:1001500044820000824438005438FE385410107C29
:10016000101000010E0C00101010101000000606F8
:100170000004081020407C8A92A27C0042FE02000B
:100180004E92929262848292B2CC182848FE08E481
:10019000A2A2A29C3C5292928C82848890E06C92A3
:1001A00092926C6292929478000028000000022CD7
:1001B000000000102844822828282828008244288B
:1001C0001040809A90607C82BA9A723E4888483E7D
:1001D000FE9292926C7C82828244FE8282827CFEBB
:1001E00092929282FE909090807C82828ACEFE10C3
:1001F0001010FE0082FE8200040282FC80FE1028A5
:100200004482FE02020202FE403840FEFE20100838
:10021000FE7C8282827CFE909090607C828A847ACE
:10022000FE90989462649292924CC080FE80C0FCD2
:10023000020202FCF8040204F8FC021C02FCC628BC
:100240001028C6C0201E20C0869A92B2C200FE822C
:100250008282402010080400828282FE204080407A
:1002600020020202020200C0E01000042A2A1E023C
:10027000FE1422221C1C222222141C222214FE1CE8
:100280002A2A2A1800107E9040182525391EFE10B3
:1002900020201E0022BE0200040202BC00FE081440
:1002A00022000082FE02003E201E201E3E10202062
:1002B0001E1C2222221C3F18242418182424183F14
:1002C0003E10202010122A2A2A242020FC22243C1E
:1002D0000202043E38040204383C020C023C2214A0
:1002E000081422320909093E22262A322200106C03
:1002F00082000000EE000000826C10004080402070
:10030000403C64C4643C78858586485C0202045E97
:100310001C2A2AAA9A84AAAA9E82842A2A1E828435
:10032000AA2A1E02042AAA9E0230784A4E489CAA93
:10033000AAAA9A9C2A2A2A9A9CAA2A2A1A0000A2C5
:100340003E820040A2BE420080A23E020F9424944E
:100350000F0F14A4140F3E2AAAA200042A2A3E2A30
:100360003E5090FE924C9292924C4C1212124C4C77
:100370005212120C5C8282845E5C4202041E00B93E
:100380000505BE9C2222229CBC020202BC3C24FF2A
:100390002424127E92C266D4F43FF4D4FF90946F6A
:1003A0000403117E90C0042A2A9E82000022BE828D
:1003B0000C1212524C1C0202445E005E50504EBEA3
:1003C000B0988CBE649494F41464949494640C1265
:1003D000B202041C10101010101010101CF408139E
:1003E000355DF408142C5F0000DE0000102854284E
:1003F0004444285428105500AA005555AA55AA551A
:10040000AA55AA55AA000000FF00080808FF002806
:100410002828FF000808FF00FF08080F080F2828F9
:10042000283F002828EF00FF0000FF00FF28282FAA
:10043000203F2828E808F80808F808F8282828F8AD
:10044000000808080F00000000F808080808F8086D
:100450000808080F08000000FF0808080808080836
:100460000808FF08000000FF280000FF00FF000050
:10047000F808E800003F202F2828E808E828282F5F
:10048000202F0000FF00EF28282828282828EF0028
:10049000EF282828E8280808F808F82828282F280E
:1004A00008080F080F0000F808F8000000F82800FE
:1004B00000003F2800000F080F0808FF08FF282849
:1004C00028FF28080808F8000000000F08FFFFFFB9
:1004D000FFFF0F0F0F0F0FFFFFFF0000000000FFD7
:1004E000FFF0F0F0F0F01C22221C223E54547C2835
:1004F0007E40406060407E407E40C6AA9282C61C1C
:1005000022223C20027E04780460407E404099A56F
:10051000E7A5993854925438324E804E320C52B27C
:10052000B20C0C121E120C3D465A62BC7C92929286
:10053000007E8080807E54545454542222FA222219
:10054000028A5222020222528A020000FF80C00761
:1005500001FF00001010D6D6106C486C246C60F0BF
:1005600090F060000018180000000808000C02FF5E
:10057000808000F88080780098B8E848003C3C3CD7
:100580003C0011241FBECFEFD8E0DEBFCDBF11E08D
:10059000A0E0B1E0EAE8F6E302C005900D92A83BC6
:1005A000B107D9F713E0A8EBB1E001C01D92A23E5C
:1005B000B107E1F70E949A1A0C94431B0C940000B7
:1005C000282F392FD901862F972FFC0104C0819144
:1005D0008D934150504041155105C9F70895FC01D4
:1005E0000097A1F08081882389F086819781861702
:1005F000970761F48181882319F48091370101C044
:1006000081E080FF06C023E030E005C029E030E053
:1006100002C020E030E0C90108958FEF8EBD0DB417
:1006200007FEFDCF8EB5089582E38093BB010E9443
:100630000D030E940D038F3F39F08091BB01882389
:10064000C1F720E030E002C021E030E0C9010895A8
:100650005E9A0E940D0308955E980E94140300970D
:1006600029F40E94280320E030E002C021E030E0BD
:10067000C90108955E980E9414035E9A0E940D03BA
:100680008091370181608093370108950F931F9304
:10069000CF93DF93EC018B0184E18093BA010E9438
:1006A0000D038F3F29F48091BA018823C1F727C039
:1006B0008E3F29F58FEF8EBD0DB407FEFDCF9EB5A1
:1006C00098838EBD0DB407FEFDCF9EB599838EBD78
:1006D0000DB407FEFDCF9EB59A838EBD0DB407FE07
:1006E000FDCF9EB59B830450104011F02496E3CFBC
:1006F0000E940D030E940D0321E030E002C020E0C3
:1007000030E0C901DF91CF911F910F910895A1E0D1
:10071000B0E0EDE8F3E00C94141B8C0169830E94B7
:1007200014036981009749F16EBD0DB407FEFDCF3A
:100730006D3F31F180E0F80190819EBD0DB407FE60
:10074000FDCFF80191819EBD0DB407FEFDCF815014
:1007500019F00E5F1F4FEFCF8FEF8EBD0DB407FE68
:10076000FDCF8FEF8EBD0DB407FEFDCF0E940D03B0
:100770008F7121E030E0853029F020E030E002C0C8
:1007800021E030E0C9012196E4E00C94301BA1E0A7
:10079000B0E0EDECF3E00C94121B282F7A018B01F2
:1007A00087FF0DC087E340E050E060E070E0298300
:1007B0000E94C7032981823008F044C02F77298323
:1007C0000E9428030E942C0329810097D1F1822FD7
:1007D00080648EBD0DB407FEFDCF812F9927AA2717
:1007E000BB278EBD0DB407FEFDCFC801AA27BB27CE
:1007F0008EBD0DB407FEFDCFBB27A12F902F8F2DEF
:100800008EBD0DB407FEFDCFEEBC0DB407FEFDCFCF
:10081000222321F0283021F081E003C085E901C0C6
:1008200087E88EBD0DB407FEFDCF2C3011F40E9479
:100830000D031AE00E940D0387FF04C01150D1F789
:1008400001C08FEF2196E6E00C942E1B84B1837CCF
:1008500084B984B18C6284B981E58CBD81E08DBDA1
:10086000089584B1836084B92998289A569880E8BD
:1008700080936D0084E0809368000E9426040895B0
:10088000262F372FF901282F392FD90180E008C0F2
:100890009D919EBD0DB407FEFDCF9EB591938F5FD8
:1008A0008417B0F30895282F392FF90180E006C08E
:1008B00091919EBD0DB407FEFDCF8F5F8617C0F3EB
:1008C00008958EBD0DB407FEFDCF8EB50895A1E04D
:1008D000B0E0EDE6F4E00C94141B8B0128988F71C6
:1008E000806249830E946104C8014981642F0E948B
:1008F0005304289A2196E4E00C94301BBC0180E15B
:1009000045E00E9467040895BC0129988AE045E00B
:100910000E946704299A0895A1E0B0E0E2E9F4E0BA
:100920000C94141B8B0128988F7149830E946104D9
:10093000C801B80149810E944004289A2196E4E048
:100940000C94301BA1E0B0E0E8EAF4E00C94161B34
:1009500028988F71806269830E9461046981862F63
:100960000E946104289A2196E2E00C94321B299897
:1009700080E06BE00E94A204299A0895A1E0B0E013
:10098000E4ECF4E00C94161B85E062E00E94A20403
:1009900081E161E00E94A20481E0898386E0BE01DA
:1009A0006F5F7F4F41E00E94670487E060E30E9431
:1009B000A2041092C10180E06BE00E94A204299A77
:1009C0002196E2E00C94321B1F93CF93DF93EC014E
:1009D000162F299880E06AE00E94A204289880EAF5
:1009E0000E946104CE01612F0E945304289A299A23
:1009F000DF91CF911F910895CF93DF93EC01289859
:100A0000299881E60E946104CE01BE0141E00E9466
:100A10004004289A87E060E40E94A204299A28985A
:100A200081EE0E946104289ADF91CF910895289861
:100A30008FEF0E946104289A80740895289881EEAF
:100A40000E946104289A299880E068E00E94A2042C
:100A5000299A089528988FEF0E946104289A85FDAD
:100A60000AC084FD08C086FF08C0809124019091CF
:100A700025010E94FC040E941E0587E060E70E9499
:100A8000A204089583B7866083BF089578940E9476
:100A9000420583B7816083BF889508951092B000A6
:100AA000E1EBF0E0808184608083E0E7F0E080812A
:100AB0008160808382E88093B2000895EAE7F0E0E5
:100AC000808181608083ECE7F0E0808180648083B6
:100AD00080818062808308950E945E05ECE7F0E0EB
:100AE00080818083EEE7F0E08081816080830895DB
:100AF0000E945E05ECE7F0E0808181608083EEE794
:100B0000F0E080818260808308950E945E05ECE7BA
:100B1000F0E08081876080830895EAE7F0E08081DB
:100B20008068808380818860808380818064808306
:100B30000895EAE7F0E080818F7780830895CF936E
:100B4000DF93EC01CB01BA016250704080409040CD
:100B50002E893F89488D598D225030404040504069
:100B6000621773078407950788F42A8130E040E014
:100B700050E00E94C51A9B01AC018EA19FA1A8A5BF
:100B8000B9A5280F391F4A1F5B1F04C020E030E0C1
:100B900040E050E0B901CA01DF91CF910895882368
:100BA00099F4E091BD01F091BE01309709F01082F7
:100BB0006115710511F0FB0110827093BE01609305
:100BC000BD0120E030E002C02BE030E0C901089513
:100BD000A4E0B0E0EEEEF5E00C94101B882309F0E1
:100BE000A7C08091370181FDA0C0569A8CE284B9DC
:100BF00080E58CBD82E58CBD1AE00E940D0311508A
:100C0000E1F780E040E050E060E070E00E94C70360
:100C1000813009F079C084E68093BA0188E04AEA1D
:100C200051E060E070E00E94C703813009F041C0EC
:100C30008E010F5F1F4F45E0E42EF12CEC0EFD1EE0
:100C400068010E940D03F60181936F01EE15FF0507
:100C5000C1F78B81813009F057C08C818A3A09F045
:100C600053C08091BA01882349F089EA40E050E0FE
:100C700060E070E40E94C703882399F78091BA016D
:100C8000882309F441C08AE340E050E060E070E06E
:100C90000E94C7038823C1F50E940D03F8018193C8
:100CA0008F01EE15FF05C1F7898186FF2BC00CE08F
:100CB0002CC089EA40E050E060E070E00E94C70389
:100CC000823018F402E019EA02C001E011E08091DC
:100CD000BA01882349F0812F40E050E060E070E0E5
:100CE0000E94C703882399F78091BA01882361F095
:100CF00080E140E052E060E070E00E94C70388239A
:100D000019F403C004E001C000E00093BC010E949C
:100D10002803002341F0809137018E7F80933701B3
:100D200080E58CBD02C00E943A038091370101C06A
:100D300081E02496E8E00C942C1B882319F4809120
:100D40003701089581E008950F93CF93DF93EB016E
:100D5000BA01A901882309F044C0002309F441C065
:100D60008091370180FD40C08091BC0183FD07C0A8
:100D7000E9E0440F551F661F771FEA95D1F7013050
:100D800069F481E10E94C703882311F5CE0160E078
:100D900072E00E9446030097D1F41AC082E10E94DB
:100DA000C7038823A9F4CE0160E072E00E944603E5
:100DB000009729F0015019F0C050DE4FF4CF8CE0BD
:100DC00040E050E060E070E00E94C70301C000E036
:100DD0000E94280321E030E0002341F420E030E0CD
:100DE00005C024E030E002C023E030E0C901DF911B
:100DF000CF910F9108950F93CF93DF93EC019A0158
:100E0000AB01BC01625D7F4F898101E00E94A406B5
:100E1000009709F082C0FE01E35DFD4F308120E0C4
:100E2000FE01E45DFD4F808190E0822B932B2AEA46
:100E30008535920709F073C0FE01E959FF4F8081A3
:100E400090E0A0E0B0E0B82FAA2799278827FE01FC
:100E5000EA59FF4F208130E040E050E0A9013327FC
:100E60002227822B932BA42BB52BFE01EC59FF4F8D
:100E7000208130E040E050E0822B932BA42BB52B57
:100E8000FE01EB59FF4F308120E040E050E0822B23
:100E9000932BA42BB52BB070863421E4920724E564
:100EA000A20720E0B207E9F1FE01ED57FF4F2081D4
:100EB00030E040E050E0522F442733272227FE0144
:100EC000EE57FF4F808190E0A0E0B0E0DC01992771
:100ED0008827282B392B4A2B5B2BFE01E058FF4F2C
:100EE000808190E0A0E0B0E0282B392B4A2B5B2BCF
:100EF000CF57DF4F988180E0A0E0B0E0282B392B5E
:100F00004A2B5B2B507081E0263491E4390794E53D
:100F1000490790E0590731F404C083E003C082E040
:100F200001C080E0DF91CF910F910895CF92DF92C1
:100F3000EF92FF920F93CF93DF93EB0169017A0158
:100F4000882309F058C0002309F455C08091370167
:100F500080FD54C08091370182FD53C08091BC0157
:100F600090E083FD07C039E0CC0CDD1CEE1CFF1CBB
:100F70003A95D1F7013071F488E1B701A6010E94DA
:100F8000C703882379F5CE016EEF0E94870300978F
:100F900031F528C086709070009739F0402F50E0EE
:100FA00060E070E087E90E94C70389E1B701A6010C
:100FB0000E94C7038823B1F4CE016CEF0E9487031F
:100FC000009729F0015019F0C050DE4FF5CF80E0B6
:100FD00090E06DEF0E948703009719F003C000E0D6
:100FE00001C001E00E94280321E030E0002359F411
:100FF00020E030E008C024E030E005C023E030E02D
:1010000002C022E030E0C901DF91CF910F91FF9043
:10101000EF90DF90CF900895A0E0B0E0E2E1F8E03B
:101020000C940A1BEC014A015B01CAA4DBA4ECA4EA
:10103000FDA4C416D506E606F70609F44BC08C815C
:101040008823A1F14EE2642E712C6C0E7D1E8981E5
:10105000B301A701960101E00E9496070097E9F508
:101060001C828A8D9B8DAC8DBD8D2E8D3F8D48A1B0
:1010700059A1820F931FA41FB51FC816D906EA06EF
:10108000FB06A0F41B8110C08A8D9B8DAC8DBD8D9D
:10109000C80ED91EEA1EFB1E8981B301A701960165
:1010A00001E00E9496071150123070F781149104EC
:1010B000A104B10479F0BE01625D7F4F8981A50171
:1010C000940101E00E94A406009739F48AA69BA629
:1010D000ACA6BDA620E030E002C021E030E0C901AE
:1010E000CDB7DEB7EEE00C94261BA0E0B0E0EBE756
:1010F000F8E00C940C1BEC016A017B0148015901DA
:10110000423051056105710508F4D4C08E899F896C
:10111000A88DB98D481759076A077B0708F0CAC020
:101120008881823009F46AC0833009F484C0813038
:1011300009F0BBC08A01169507950C0D1D1DA8016D
:10114000452F5527469560E070E08E8D9F8DA8A1B4
:10115000B9A1480F591F6A1F7B1FCE010E940C08BE
:101160009C01009709F0A3C0C8019170E1E0CE2274
:10117000DD24C114D10451F0FE01E80FF91F36A59A
:101180003F70282D2295207F232B01C0282D8C0F06
:101190009D1FFC0126A70F5F1F4F81E08C83A801D4
:1011A000452F5527469560E070E08E8D9F8DA8A154
:1011B000B9A1480F591F6A1F7B1FCE010E940C085E
:1011C0009C01009709F073C01170C114D10449F05B
:1011D00094E0B694A794979487949A95D1F7882D24
:1011E00008C0FE01E00FF11F86A5807F992D9F703A
:1011F000892B0C0F1D1FF80186A759C0452F562FAC
:10120000672F77278E8D9F8DA8A1B9A1480F591FF1
:101210006A1F7B1FCE010E940C089C01009709F0F9
:1012200046C0C601880F991F9170FE01E80FF91F93
:1012300086A697A63CC0A7E07695679557954795F3
:10124000AA95D1F78E8D9F8DA8A1B9A1480F591FDE
:101250006A1F7B1FCE010E940C089C01009739F584
:10126000A601440F551F440F551F5170BA01625D0E
:101270007F4F6C0F7D1FFB01838190E0A0E0B0E009
:10128000B82FAA27992788274C0F5D1F8070907070
:10129000A070B07F88299929AA29BB29FA0186A7BD
:1012A000FB019183A283B38302C022E030E081E09E
:1012B0008C8302C022E030E0C901CDB7DEB7ECE09C
:1012C0000C94281BA0E0B0E0E8E6F9E00C940F1BBA
:1012D000EC016A017B01423051056105710508F49A
:1012E000CAC08E899F89A88DB98D481759076A078A
:1012F0007B0708F0C0C08881823009F455C0833074
:1013000009F474C0813009F0BBC08A0116950795B5
:10131000040F151FA801452F5527469560E070E082
:101320008E8D9F8DA8A1B9A1480F591F6A1F7B1FE1
:10133000CE010E940C08009709F0A2C0F801F170DC
:10134000EC0FFD1FB6A40F5F1F4FA801452F5527B7
:10135000469560E070E08E8D9F8DA8A1B9A1480FE1
:10136000591F6A1F7B1FCE010E940C08009709F0CD
:1013700087C02B2D30E011700C0F1D1FF80196A5B2
:1013800080E0282B392BE601C170D070209731F016
:1013900054E0369527955A95E1F725C040E050E096
:1013A0003F704070507070C077276F2D5E2D4D2DAF
:1013B0008E8D9F8DA8A1B9A1480F591F6A1F7B1F51
:1013C000CE010E940C08009709F05AC0B601660FC2
:1013D000771F7170FE01E60FF71F26A530E097A575
:1013E00080E0282B392B40E050E04EC027E0769576
:1013F0006795579547952A95D1F78E8D9F8DA8A112
:10140000B9A1480F591F6A1F7B1FCE010E940C080B
:101410000097B1F5B601660F771F660F771F7170E1
:10142000FB01BE96EC0FFD1F228130E040E050E052
:10143000A90133272227838190E0A0E0B0E0B82FF4
:10144000AA2799278827282B392B4A2B5B2B918198
:1014500080E0A0E0B0E0282B392B4A2B5B2BC60F95
:10146000D71F8EA590E0A0E0B0E0282B392B4A2BA7
:101470005B2B5F7009C021E030E040E050E004C029
:101480002FEF3FEF4FEF5FEFB901CA01CDB7DEB7E6
:10149000E9E00C942B1BA0E0B0E0E1E5FAE00C944D
:1014A000081BEC012A013B0141155105610571053D
:1014B00099F48A849B84AC84BD8481149104A10432
:1014C000B10409F18E899F89A88DB98D8816990676
:1014D000AA06BB06C0F41CC00E9462099B01AC01B5
:1014E000623071058105910508F496C08E899F8947
:1014F000A88DB98D281739074A075B0708F490C0F3
:101500005301420105C0A1E08A2E912CA12CB12CDF
:10151000750164010894C11CD11CE11CF11C8E8969
:101520009F89A88DB98DC816D906EA06FB0660F01A
:1015300022E082169104A104B10408F465C0F2E02F
:10154000CF2ED12CE12CF12CCE01B701A6010E94A7
:1015500062099B01AC016115710581059105A9F036
:101560002F3F8FEF38078FEF48078FEF580709F4A9
:1015700057C0213031054105510509F451C0C81447
:10158000D904EA04FB0431F63FC08C2CBD2CAE2CF0
:101590009F2CCE01A601B7010FEF1FEF2FEF3FE009
:1015A0000E947508009741F54114510461047104CB
:1015B00049F0CE01B301A201860197010E9475088E
:1015C0000097D1F48A86BB86AC869D868E859F85E2
:1015D000A889B9898F3F2FEF92072FEFA2072FEF2E
:1015E000B207B9F00197A109B1098E879F87A88B2F
:1015F000B98B81E08D830DC08130910569F42FEFA7
:101600003FEF4FEF5FEF0CC020E030E040E050E0F4
:1016100007C0A701960104C021E030E040E050E09F
:10162000B901CA01CDB7DEB7E0E10C94241B0F93DA
:101630001F93CF93DF93EC011D821C824E815F814B
:1016400068857985413051056105710509F469C0E6
:1016500008811981F80186899789A08DB18D481775
:1016600059076A077B0708F05CC041155105610501
:101670007105F9F48081833049F442A153A164A13A
:1016800075A1411551056105710599F41A861B86EE
:101690001C861D86F80180859185009709F441C05C
:1016A00082A193A1A4A1B5A18E879F87A88BB98B96
:1016B0002EC0F80182818823F9F4888199810E94E3
:1016C0006209AB01BC014F3FFFEF5F07FFEF6F0700
:1016D000FFEF7F0719F1423051056105710508F1EF
:1016E000E881F98186899789A08DB18D48175907BE
:1016F0006A077B0710F315C04A875B876C877D8775
:10170000C8010E949F056E877F87888B998B025D39
:101710001F4F1B8B0A8B20E030E005C021E030E03A
:1017200002C022E030E0C901DF91CF911F910F91FB
:101730000895A0E0B0E0EFE9FBE00C94061BEC019B
:10174000062FC72E5A011901F901118210826A81F0
:101750007B81888199810E94EF027C01009709F0CA
:10176000EDC08C8187FDE3C080FFE5C08A859B8545
:10177000AC85BD852E813F8148855985821B930BA1
:10178000A40BB50B950140E050E082179307A40726
:10179000B50708F45C01402E5C2CC4C02E813F814B
:1017A00048855985DA01C9019170A070B070009721
:1017B000A105B10509F06FC08881998139014A01FD
:1017C00079E096948794779467947A95D1F7FC01A1
:1017D00002810150062111F5211531054105510500
:1017E00029F46E857F858889998906C04A895B8935
:1017F0006C897D890E9462096230710581059105BD
:10180000E8F06F3FFFEF7F07FFEF8F07FFEF9F07C6
:1018100009F44FC06A8B7B8B8C8B9D8B8880998061
:101820004A895B896C897D89C4010E949F059B015F
:10183000AC01611571058105910521F48C818068E9
:101840008C8375C0200F311D411D511D6501CD2CAC
:10185000DD24C694C114D104D1F0F401828110E0DA
:10186000B601600F711F90E08617970718F46C019E
:10187000C01AD10AF4018181B2010C2D0E94A40684
:101880000097B9F48601102F0027110F31C02E8B5D
:101890003F8B488F598F6E807F80888499844E89D2
:1018A0005F89688D798D888199810E940C080097E5
:1018B00039F08C8180688C8391E0E92EF12C3EC058
:1018C000C301917020E032E0281B390B85012A15F5
:1018D0003B0508F4890168817981625D7F4F8E81C3
:1018E0009F819170680F791FC201A8010E94E002D8
:1018F000400E511E980140E050E08E819F81A885E6
:10190000B985820F931FA41FB51F8E839F83A8875D
:10191000B987F10180819181800F911F918380832C
:10192000A01AB10AA114B10409F038CF07C082E0AF
:10193000E82EF12C03C0B7E0EB2EF12CC701CDB798
:10194000DEB7E2E10C94221BA0E0B0E0EAEAFCE0A2
:101950000C940C1BEC015B01CC80DD800894C11C55
:10196000D11CC114D10409F4F0C08E859F85A889CB
:10197000B9890097A105B10509F4E7C02FE0822ECF
:10198000912C8C209D208114910409F0CDC00196EA
:10199000A11DB11D8E879F87A88BB98B4A855B855A
:1019A0006C857D8588819981411551056105710599
:1019B00041F4FC0180859185C816D90608F4B4C0AD
:1019C000C4C0FC01228130E021503040F601A4E087
:1019D000F695E795AA95E1F72E233F2321153105CA
:1019E00009F0A2C00E9462097B018C01623071057E
:1019F0008105910508F4AFC08FEFE8168FEFF80668
:101A00008FEF08078FEF180709F4A8C08881998124
:101A1000FC0126893789408D518DE216F3060407B3
:101A2000150708F473C0A114B10409F48EC04A85E7
:101A30005B856C857D850E944B0A7B018C0161155D
:101A400071058105910509F483C061307105810537
:101A5000910509F480C08FEFE8168FEFF8068FEF3D
:101A600008078FEF180709F479C08881998140E051
:101A700050E060E070E00E940C08009709F06EC032
:101A800088819981FC01BE96825D9D4F01C01192B3
:101A9000E817F907E1F7A880B980C501B801A701E7
:101AA0000E949F05F50162A773A784A795A7BB2491
:101AB000AA24A3941AC0A4828881998140E050E0AE
:101AC00060E070E00E940C08009709F047C0E881D0
:101AD000F98182A593A5A4A5B5A50196A11DB11D67
:101AE00082A793A7A4A7B5A7B394E881F9818281BF
:101AF000B81608F382A593A5A4A5B5A58B199109DD
:101B0000A109B10982A793A7A4A7B5A7EA86FB8676
:101B10000C871D8788819981B801A7010E949F05C4
:101B20006E877F87888B998BDD82CC8288819981B3
:101B30008E96E5E0880C991CEA95E1F7880D991DD1
:101B40009B8B8A8B20E030E00BC024E030E008C0A3
:101B500027E030E005C022E030E002C021E030E0C4
:101B6000C901CDB7DEB7ECE00C94281BACE3B0E0C4
:101B7000ECEBFDE00C94061B9EA78DA779A768A748
:101B8000DC0111961C921E924F714FA3FB018081C4
:101B9000992787FD9095C0978A30910548F4218157
:101BA0002A3331F43296F9A7E8A7009709F096C3D3
:101BB000E090BD01F090BE01FE86ED86E114F104D7
:101BC00009F48FC30FA10E7FD7018C91882389F070
:101BD00011968C911197882319F48091370101C0D7
:101BE00081E080FD06C0002309F47EC382FF7CC330
:101BF00081C3F7011082118280E00E94E80580FD18
:101C000076C3002311F082FD75C3C70140E050E0A8
:101C100060E070E00E94FB06813009F040C0F701EF
:101C2000E051FE4F8081882309F46AC3F701E9502F
:101C3000FE4F808190E0A0E0B0E0582F442733278A
:101C40002227F701EA50FE4F808190E0A0E0B0E04B
:101C5000DC0199278827282B392B4A2B5B2BF7018E
:101C6000EC50FE4F808190E0A0E0B0E0282B392BB3
:101C70004A2B5B2BF701EB50FE4F908180E0A0E0F8
:101C8000B0E0282B392B4A2B5B2B2BA33CA34DA375
:101C90005EA3C701BA01A9010E94FB0604C01BA2F2
:101CA0001CA21DA21EA2833009F427C3882309F0B9
:101CB00027C3D701DA963C91DA9720E0D9968C9128
:101CC000D99790E0822B932BB2E080309B0709F0EC
:101CD00017C3F701EB5BFF4F908180E0F701EC5BEE
:101CE000FF4F20803324282A392A442455242114E4
:101CF00031044104510479F5F701EB5AFF4F20807C
:101D0000332444245524522C442433242224F70120
:101D1000EC5AFF4F808190E0A0E0B0E0DC01992711
:101D20008827282A392A4A2A5B2AF701EE5AFF4FC8
:101D3000808190E0A0E0B0E0282A392A4A2A5B2A74
:101D4000F701ED5AFF4F908180E0A0E0B0E0282A33
:101D5000392A4A2A5B2AF701228E338E448E558E09
:101D600046AD4383842F8150823008F0C9C2F3AD61
:101D7000FCA7D7011296FC931297FF2309F4C0C267
:101D80002F2F30E0C901019782239323009709F098
:101D9000B7C2F701E05CFF4F908180E0DF962C91A5
:101DA000DF97E22FF0E0E82BF92BF8ABEFA71996BD
:101DB000FC93EE931897CF018F709070009709F005
:101DC0009FC2F701EE5BFF4F908180E0F701EF5B70
:101DD000FF4FA080BB24A82AB92ACC24DD24A1145B
:101DE000B104C104D10479F5F701EF5AFF4FA08087
:101DF000BB24CC24DD24DA2CCC24BB24AA24F70178
:101E0000E05BFF4F808190E0A0E0B0E0DC0199272B
:101E10008827A82AB92ACA2ADB2AF701E25BFF4FE2
:101E2000808190E0A0E0B0E0A82AB92ACA2ADB2A83
:101E3000F701E15BFF4F908180E0A0E0B0E0A82ACD
:101E4000B92ACA2ADB2AD701DD969C91DD9780E06A
:101E5000DC960C91DC9710E0082B192B011511056D
:101E600009F44EC2242F30E040E050E0C201B1013D
:101E70000E94C51A69AB7AAB8BAB9CAB980140E072
:101E800050E02DAB3EAB4FAB58AF6FA478A8F4E059
:101E900076946794FA95E1F788249924620E731E6C
:101EA000841E951E660E771E881E991EA614B70402
:101EB000C804D90408F424C2C601B501661977091B
:101EC00088099909ACA52A2F30E040E050E00E9433
:101ED000E41A211531054105510509F411C2263FC7
:101EE000BFE03B07B0E04B07B0E05B0758F0263F90
:101EF000EFEF3E07E0E04E07E0E05E0730F4F2E08F
:101F0000FCA705C061E06CA702C073E07CA7E2E01B
:101F1000AE2EB12CC12CD12CA20EB31EC41ED51EC8
:101F2000D7015696AD92BD92CD92DC9259972BA1D6
:101F30003CA14DA15EA1620E731E841E951E969655
:101F40006D927D928D929C92999789019A014DA9EB
:101F50005EA96FA978AD040F151F261F371F5E9667
:101F60000D931D932D933C939197BCA5B33009F02D
:101F700043C0EFA5F8A9309709F0C2C1F701E35AB1
:101F8000FF4F808190E0A0E0B0E0B82FAA2799270A
:101F90008827F701E45AFF4F208130E040E050E00D
:101FA000A90133272227822B932BA42BB52BF701D2
:101FB000E65AFF4F208130E040E050E0822B932B27
:101FC000A42BB52BF701E55AFF4F308120E040E00C
:101FD00050E0822B932BA42BB52BF70182A393A364
:101FE000A4A3B5A3D601C50152E0880F991FAA1F6B
:101FF000BB1F5A95D1F72EC04FA558A941155105C1
:1020000009F47EC189A99AA9ABA9BCA9800F911F27
:10201000A21FB31FF70182A393A3A4A3B5A3D60164
:10202000C501880F991FAA1FBB1FFCA5F23091F0B4
:102030008A0D9B1DAC1DBD1DB695A79597958795DF
:10204000A60195012170307040705070820F931F6F
:10205000A41FB51F81509E4FAF4FBF4F29E0B695CB
:10206000A795979587952A95D1F7281639064A0698
:102070005B0608F445C18FEF9FEFAFEFBFEFF701AD
:1020800086879787A08BB18BD7011A961D921D92D8
:102090001D921C921D97BCA5B33009F005C1158295
:1020A000E15AFF4F908180E0F701E25AFF4F208113
:1020B00030E0282B392B40E050E06BA17CA18DA1B2
:1020C0009EA1260F371F481F591FD70152962D93E7
:1020D0003D934D935C935597B701625D7F4F119689
:1020E0008C9101E00E94A406009709F0DDC0F70181
:1020F000E35DFD4F308120E0F701E45DFD4F80811D
:1021000090E0822B932BBAEA85359B0709F0CCC06F
:10211000F70181A990E0A0E0B0E0B82FAA279927A5
:10212000882720A930E040E050E0A901332722278A
:10213000822B932BA42BB52B26A530E040E050E05A
:10214000822B932BA42BB52B37A520E040E050E049
:10215000822B932BA42BB52B8235F2E59F07F1E65A
:10216000AF07F1E4BF0709F09FC0F701EB5EFD4F39
:10217000808190E0A0E0B0E0B82FAA2799278827B7
:10218000F701EC5EFD4F208130E040E050E0A90116
:1021900033272227822B932BA42BB52BF701EE5E3E
:1021A000FD4F208130E040E050E0822B932BA42BA8
:1021B000B52BF701ED5EFD4F308120E040E050E0AF
:1021C000822B932BA42BB52B823722E7920721E495
:1021D000A20721E6B20709F067C0F701E35EFD4FF1
:1021E000808190E0A0E0B0E0B82FAA279927882747
:1021F000F701E45EFD4F208130E040E050E0A901AE
:1022000033272227822B932BA42BB52BF701E65ED5
:10221000FD4F208130E040E050E0822B932BA42B37
:10222000B52BF701E55EFD4F308120E040E050E046
:10223000822B932BA42BB52BF70182879387A4873E
:10224000B587E75EFD4F808190E0A0E0B0E0B82F59
:10225000AA2799278827F701E85EFD4F208130E003
:1022600040E050E0A90133272227822B932BA42B97
:10227000B52BF701EA5EFD4F208130E040E050E0F1
:10228000822B932BA42BB52BF701E95EFD4F3081F8
:1022900020E040E050E0822B932BA42BB52BF701DC
:1022A00086879787A08BB18BECA5D701EC938091A3
:1022B000BF019091C00101969093C0018093BF012E
:1022C00017969C938E9316979A961D921D921D9227
:1022D0001C929D9714961C92149706C00BE010E078
:1022E00011C00CE010E00EC000E010E00BC003E0F5
:1022F00010E008C00AE010E005C001E010E002C0F4
:102300000DE010E0CE0101969AA389A301151105F5
:1023100009F017C1E8A5F9A580818F3211F08C353D
:1023200031F428A539A52F5F3F4F39A728A71B8A6D
:102330001C8A1D8A1E8AA8A5B9A58C91803240F4FA
:10234000CE010D960E94170B8C0118A21F8EF9C0AA
:10235000E0E26E2E75E0D72E6DE0A62EB12CAC0E0D
:10236000BD1E28A439A4E9A1FAA1DF018CE090E008
:1023700001C06D920197E9F7B10180E090E0EE2491
:10238000FF2428E030E0CC248F01FB014191BF0104
:10239000E42F0894E11CF11C413208F445C04F328F
:1023A00009F445C04C3509F442C04E3219F0821789
:1023B000930770F02830310509F0BEC04E3209F0A5
:1023C000BBC0CC0CCC0C88E090E02BE030E0DDCF43
:1023D00047FF06C0F3E0CF2AF0E0E854FF4FE0816A
:1023E0008E2E9924A0E0B1E0AC018D91882339F0C4
:1023F000992787FD909588159905B9F79DC0CA0161
:102400004E2F41544A3118F442E0C42A07C04E2FDF
:1024100041564A3118F451E0C52AE052D801A80FBC
:10242000B91FEC930196B1CFF80144E002C0F80166
:1024300040E0009709F480C08081853E09F4D08295
:102440002830310511F4CC0CCC0C8C2D90E09C0183
:10245000237030702130310509F440618C70907028
:102460008430910509F448604387C5010E94170B29
:102470008C01009751F54B8D5C8D6D8D7E8D8D851A
:102480009E850E940C080097F9F4EF8DF8A1208139
:102490002223B9F0238523FD0CC0A9A1BAA19F0175
:1024A000255F3F4FE217F30779F051914D91541793
:1024B000C9F3C50160E070E00E94A40C0097D9F256
:1024C00003C004E010E001C08C01E9A1FAA18385FA
:1024D0000115110531F00430110599F582FF2FC067
:1024E00030C082FD2EC0EF8DF8A1838584FF27C008
:1024F0002E0C3F1C65896AAF19AE848990E0A9ADA6
:10250000BAAD8A2B9B2BA0E0B0E0DC01992788278D
:10251000238D2CAF1BAE228D30E04BAD5CAD242B58
:10252000352B40E050E0822B932BA42BB52B8B8BCB
:102530009C8BAD8BBE8B17CF06E010E002C005E090
:1025400010E0EF8CF8A00115110529F4E114F10455
:1025500011F406E010E05FA1852F90E09C012C7142
:1025600030702115310509F407C10115110509F471
:102570004FC00430110509F041C04DE0E42EF12CAC
:10258000EC0EFD1EC7010E94170B8C010097B1F5E0
:10259000DE2CEF2C4B8D5C8D6D8D7E8D8D859E851B
:1025A0000E940C08009749F5EF8DF8A18081853EC7
:1025B00009F471C1882309F46EC18D2D9E2D61E04F
:1025C00070E00E94A40C009729F317C08F8D98A18A
:1025D000282F392FF90121E230E001C0119221505A
:1025E0003040E1F769A17AA14BE050E00E94E0029F
:1025F000ED85FE8581E0848301C08C01EF8CF8A01D
:102600000115110509F042C16FA168606FA309C0EF
:1026100052FD4EC1D7011B968C911B97817109F019
:1026200068C1BFA1B3FFB6C0F70116861786108A2E
:10263000118A1386148E158E168E178E958980E05A
:1026400064887724682A792A882499244301772486
:102650006624338D20E0828D90E0822B932BA0E0C6
:10266000B0E0682A792A8A2A9B2A128E138E148A4D
:10267000158AAD84BE8481E0D50114968C9314979D
:10268000611471048104910409F484C09A962D9117
:102690003D914D915C919D9728A739A74AA75BA7CB
:1026A000B1E06B1671048104910409F45FC0F50177
:1026B00086899789A08DB18D681679068A069B0652
:1026C00008F054C013012401DD24D3946BA27CA232
:1026D0008DA29EA23FC0C501B201A1010E94620964
:1026E0003B014C01611571058105910509F4E3C0B9
:1026F0006130710581059105C9F16F3F2FEF7207B8
:102700002FEF82072FEF9207A1F1C501B201A101BE
:1027100000E010E020E030E00E9475088C01009796
:1027200009F0B4C0F50186859785A089B1898F3FEE
:10273000FFEF9F07FFEFAF07FFEFBF0749F00196DD
:10274000A11DB11DF50186879787A08BB18BD5821E
:1027500013012401F50186899789A08DB18D281672
:1027600039064A065B0608F4B6CFA5C002E010E0C1
:102770008DC001E010E08AC00115110509F086C086
:10278000D7011B962C911B9724FDB0C051FF02C0AE
:1027900020FDAFC0BFA1B3FF02C0B062BFA36D8573
:1027A0007E85FB0122A533A544A555A5ADA5BEA5F3
:1027B0005A962D933D934D935C935D975F96FC9253
:1027C000EE925E97EFA11496EC93D70155963C914B
:1027D000559720E054968C9190E0822B932BA0E0AB
:1027E000B0E0DC0199278827F701538D40E0228D66
:1027F00030E0242B352B40E050E0822B932BA42B90
:10280000B52BEDA5FEA586879787A08BB18BD70149
:102810005F968C9190E0A0E0B0E0B82FAA279927AE
:102820008827F701268D30E040E050E0A9013327EA
:102830002227822B932BA42BB52B248D30E040E054
:1028400050E0822B932BA42BB52B358D20E040E05C
:1028500050E0822B932BA42BB52BEDA5FEA58287F0
:102860009387A487B5871682178210861186168AE9
:10287000178A108E118E71836083DB0116968D91FD
:102880009C9117979383828300E010E0C801EC9637
:10289000E2E10C94221B4B8D5C8D6D8D7E8D8D85C0
:1028A0009E850E940C088C01009709F48FCEA6CE5D
:1028B00008E010E0EBCF6BA07CA08DA09EA08D85E2
:1028C0009E8508946108710881089108FC01628660
:1028D00073868486958648A559A56AA57BA50E941E
:1028E0000C088C01009709F455CFD0CF04E010E01C
:1028F000CDCF07E010E0CACFA4E0B0E0E2E8F4E119
:102900000C94061B9C838B83062FC72E2A013A83C7
:102910002983D9011D921C92FC01628173818081FF
:1029200091810E94EF027C01009709F0C8C1AB8140
:10293000BC8114968C91149787FDBAC181FFBCC1EC
:102940001A962D913D914D915C911D97C201A0E089
:10295000B0E0820F931FA41FB51F82179307A4072F
:10296000B50710F444245524202E3C2C80C1EB8163
:10297000FC812681378140855185DA01C90191703A
:10298000A070B0700097A105B10509F011C1808158
:10299000918159016A0169E0D694C794B794A794CC
:1029A0006A95D1F7DC0112960C91129701500A2119
:1029B00009F044C02115310541055105C1F42685B2
:1029C000378540895189211531054105510509F5A2
:1029D00040E050E060E070E00E944B0A9B01AC01D7
:1029E000EB81FC8166877787808B918B0CC0AB81F4
:1029F000BC8152964D915D916D917C9155970E944D
:102A00004B0A9B01AC01211531054105510509F423
:102A100032C1213031054105510509F440C02F3F35
:102A2000FFEF3F07FFEF4F07FFEF5F0709F4A8C075
:102A3000EB81FC81228B338B448B558BAB81BC812A
:102A4000ED91FC91119762A573A584A595A5569665
:102A50002D913D914D915C915997621773078407B1
:102A6000950751F4CF0140E050E060E070E00E9433
:102A70000C08009709F0B0C0AB81BC81AD90BC9050
:102A8000119752964D915D916D917C915597C5012D
:102A90000E949F05611571058105910531F4EB8157
:102AA000FC8184818068848303C13B014C01600EFA
:102AB000711C811C911C6201CD2CDD24C694C114B3
:102AC000D10409F445C0D50112968C91129710E0FB
:102AD0009601200F311F90E08217930718F46C01C4
:102AE000C01AD10AF5018181B101A40193010C2D15
:102AF0000E949607009709F043C0AB81BC81ED911D
:102B0000FC91119762A573A584A595A5661977090F
:102B100088099909960140E050E06217730784071D
:102B2000950788F4762F6627770F620D731DCF0106
:102B30008E9640E052E00E94E002AB81BC81ED91B4
:102B4000FC91119714828601102F0027110F70C07D
:102B5000EB81FC8126813781408551858285938573
:102B6000A485B585281739074A075B07D8F0C50142
:102B700040E050E060E070E00E940C08009751F0E7
:102B8000AB81BC8114968C911497806814968C93B9
:102B9000149727C0AB81BC81ED91FC9162A673A60E
:102BA00084A695A6EB81FC81668A778A808E918EB9
:102BB000AB81BC811696AD90BD90CD90DC901997FD
:102BC00056964D915D916D917C9159978D919C9107
:102BD0000E940C08009749F0EB81FC818481806899
:102BE0008483A1E0EA2EF12C6AC0C501917020E037
:102BF00032E0281B390B82012415350508F48901C0
:102C0000AB81BC812D913C911197225D3F4F16966F
:102C10008D919C9117979170820F931FB101A8011C
:102C20000E94E002AB81BC81ED91FC91B1E0B483E4
:102C3000200E311E980140E050E0EB81FC8186813E
:102C40009781A085B185820F931FA41FB51F86832E
:102C50009783A087B187A981BA818D919C911197A3
:102C6000800F911F11969C938E93401A510A411424
:102C7000510409F07CCEEB81FC8186819781A0858F
:102C8000B1852285338544855585281739074A073C
:102C90005B0720F482879387A487B587AB81BC81CB
:102CA00014968C911497806214968C93149707C095
:102CB000F2E0EF2EF12C03C0E7E0EE2EF12CC7017D
:102CC0002496E2E10C94221BA0E1B0E0EAE6F6E1F2
:102CD0000C94121B8A01882309F052C17A016530D5
:102CE00081F4FA018081882321F0813009F048C104
:102CF00003C00E943A0302C0FA01818300E010E0A1
:102D000044C18091370180FD3EC1E62FF0E0EF30F5
:102D1000F10508F02AC1EC5CFF4F0C943D1B0E94AA
:102D20002C03009709F424C10E94280324C189E0E0
:102D300040E050E060E070E00E94C703882309F0A3
:102D400017C1CE01019660E170E00E944603009732
:102D500009F40EC1998192959695969593705A852E
:102D60004985913089F4852F90E00196342F20E039
:102D7000820F931FA0E0B0E03AE0880F991FAA1FCE
:102D8000BB1F3A95D1F7B0C0429546954695437022
:102D9000888590E0880F991F880F991F840F911DD7
:102DA00001962F8130E023703070322F2227330FAD
:102DB000330F820F931FA0E0B0E02E812F704B8560
:102DC000441F4427441F240F2E5F352F3370330FC9
:102DD000230F30E0295030402CC080E092E0FA010F
:102DE00091838083C8C0E090BC01E2FE2AC08DE8D8
:102DF00040E050E060E070E00E94C703882309F0E3
:102E0000B7C00E940D03CE01019660E170E00E9400
:102E10004603009709F4ACC0A0E3EA2E0E940D031C
:102E2000EA94E1F72B8522952F7080E190E0A0E0F5
:102E3000B0E004C0880F991FAA1FBB1F2A95D2F7C4
:102E400053C089E040E050E060E070E00E94C703BA
:102E5000882309F08DC0CE01019660E170E00E94E8
:102E60004603009709F484C04B858C85E1FE1AC0A7
:102E7000881F8827881F90E0019650E04F7350709C
:102E8000440F551F840F951F2E8522952695269554
:102E9000237030E02150304002C0880F991F2A95DE
:102EA000E2F720C0282F30E023703070E3E0220FDB
:102EB000331FEA95E1F7829586958770280F311DBB
:102EC0002F5F3F4F50E04C77507055954795559583
:102ED00047954F5F5F4F249FC001259F900D349F02
:102EE000900D1124A0E0B0E0F80180839183A283CB
:102EF000B38341C08091BC01FA0180833CC089E06A
:102F000001C08AE040E050E060E070E00E94C7034A
:102F1000882371F5C80160E170E022C08AE340E0D7
:102F200050E060E070E00E94C703882309F50C5F61
:102F30001F4F0E940D03F70181937F01E017F107F6
:102F4000C1F719C08DE840E050E060E070E00E94F9
:102F5000C703882369F40E940D03C80160E470E090
:102F60000E944603009739F403C004E010E005C056
:102F700001E010E002C000E010E00E94280305C05C
:102F800004E010E002C003E010E0C8016096E6E053
:102F90000C942E1B0F93CF93DF93EC016A817B81FE
:102FA000888199810E94EF029C01009709F0B5C0C9
:102FB0008C8185FFB2C04A8D5B8D6C8D7D8D888143
:102FC00099810E940C089C01009709F0A6C0EE8D23
:102FD000FF8D8385806283878A85848F8B85858F2B
:102FE0008C85868F8D85878F8E85828F8F85838F49
:102FF0008889848B8989858B168A178A108E118E11
:103000008C818F7D8C83E881F98181E084830990B4
:10301000D881C02DCE0140E050E060E070E00E9419
:103020000C089C01009709F078C08881833009F072
:1030300068C08D81882309F464C01AA61BA61CA64B
:103040001DA6FE01BE96CE01825D9D4F01C011926C
:10305000E817F907E1F7FE01E45DFD4F85E58083A0
:10306000FE01E35DFD4F8AEA808382E58EA78FA78C
:1030700081E688AB91E499ABFE01EE5EFD4F22E75D
:103080002083FE01ED5EFD4F2083FE01EC5EFD4FCF
:103090009083FE01EB5EFD4F80833E852F859889EE
:1030A0008989FE01EA5EFD4F3083FE01E95EFD4F36
:1030B0002083FE01E85EFD4F9083FE01E75EFD4F39
:1030C00080833A852B859C858D85FE01E65EFD4FCC
:1030D0003083FE01E55EFD4F2083FE01E45EFD4F7F
:1030E0009083FE01E35EFD4F8083BE01625D7F4FF2
:1030F0002A893B894C895D89898101E00E94960774
:103100001D82898160E040E050E00E94641621E069
:1031100030E0009711F420E030E0C901DF91CF9159
:103120000F910895CF93DF93EC010E94CA179C0181
:10313000009711F419821882C901DF91CF91089587
:103140008091BA01882319F081508093BA0180914F
:10315000BB01882319F081508093BB01089560E082
:1031600070E080E090E00895292F332727FD3A95FD
:103170002093C5008093C40086E08093C20088E15C
:103180008093C10008958091C00087FFFCCF80919B
:10319000C60008959091C00095FFFCCF8093C600B3
:1031A0000895EF92FF92CF93DF93E82EE7017E011F
:1031B000F92EE70102C00E94CA1889918823D9F725
:1031C000DF91CF91FF90EF900895CF93DF9350E080
:1031D0005695542F44275795479535E0239F9001E6
:1031E0001124D9011596480F591FF901EA57FF4FCD
:1031F000E491EA01C60FD11DE8836F5F2F5F3F4F57
:103200002A173B0791F7DF91CF910895CF92DF9274
:10321000FF920F931F93DF93CF930F92CDB7DEB73B
:103220008C01562FF42E622F732F6B0112C0C80130
:10323000652F4F2D59830E94E51859815A5F852FBC
:1032400090E08A37910514F0F39450E02F2D283048
:1032500028F4F60121916F01222349F70F90CF91B5
:10326000DF911F910F91FF90DF90CF900895FC01A7
:1032700080E092E0DF019C011D9221503040E1F797
:10328000089527E030E090E05B98AC01022E02C088
:10329000559547950A94E2F740FF02C05C9A01C039
:1032A0005C985B9A215030404FEF2F3F340761F715
:1032B00008955A980E94411908955A9A0E944119F6
:1032C00008950F931F9300E0802F806B0E9459197F
:1032D00010E0812F8F700E945919812F82958F7075
:1032E00080610E94591980E00E945D191F5F1138AA
:1032F00081F70F5F083041F71F910F9108951F93D9
:10330000182F81E80E945919812F8F730E94591933
:103310001F910895549A539A529A3D9A3C9A449810
:10332000459888E893E128EC30E0F9013197F1F70E
:103330000197D9F7459A83EA0E94591980EA0E94B9
:10334000591980EC0E94591987EA0E94591980E4A2
:103350000E9459198CE20E94591984EF91E028ECDF
:1033600030E0F9013197F1F70197D9F78EE20E9429
:10337000591984EF91E028EC30E0F9013197F1F729
:103380000197D9F78FE20E94591980E29EE40197D4
:10339000F1F782E20E94591985E10E947F19089590
:1033A000A0E0B0E0E6EDF9E10C940F1B7C0107E230
:1033B00011E0C0E0D0E0F80180810E5F1F4F806B0C
:1033C0000E94591980E00E94591980E10E94591900
:1033D00080EE0E9459198FEF0E945D19BB2467018E
:1033E000CC0EDD1EF601EB0DF11D80810E945D19F2
:1033F000B394FB2DF038B1F7C058DF4F84E0C030F4
:10340000D807C9F6CDB7DEB7E9E00C942B1B1F92A5
:103410000F920FB60F9211242F933F934F935F9308
:103420006F937F938F939F93AF93BF93EF93FF938C
:103430000E94A018FF91EF91BF91AF919F918F9142
:103440007F916F915F914F913F912F910F900FBEA0
:103450000F901F9018951F920F920FB60F92112484
:103460008F939F9383B78E7F83BF82E88093B20050
:103470008091B8019091B90101969093B901809320
:10348000B8019F918F910F900FBE0F901F901895CC
:103490001F920F920FB60F9211240F900FBE0F9034
:1034A0001F9018951F920F920FB60F9211242F9311
:1034B0003F934F935F936F937F938F939F93AF93BC
:1034C000BF93EF93FF930E942A05FF91EF91BF9165
:1034D000AF919F918F917F916F915F914F913F91AC
:1034E0002F910F900FBE0F901F901895CF93DF93E1
:1034F0003B9A439A3B9A0E948A198FEA0E94591973
:1035000084EA0E9459190E946119C2ECD1E0CE01EF
:103510000E943719CE0160E043E02FE031E00E94C5
:103520000619CE010E94D019CE010E943719DF91F1
:10353000CF9108951F930E94761A0E944E0510E0C5
:103540008091B8019091B9018091B8019091B90131
:1035500023E0883E9207B1F41092B9011092B801AD
:103560001F5F143009F410E00E94611982EC91E0B1
:1035700060E0412F2FE131E00E94061982EC91E0DA
:103580000E94D0190E944605DBCF629FD001739F35
:10359000F001829FE00DF11D649FE00DF11D929FEF
:1035A000F00D839FF00D749FF00D659FF00D99272E
:1035B000729FB00DE11DF91F639FB00DE11DF91F52
:1035C000BD01CF0111240895A1E21A2EAA1BBB1B35
:1035D000FD010DC0AA1FBB1FEE1FFF1FA217B307DF
:1035E000E407F50720F0A21BB30BE40BF50B661FF5
:1035F000771F881F991F1A9469F7609570958095B9
:1036000090959B01AC01BD01CF0108952F923F928F
:103610004F925F926F927F928F929F92AF92BF92E2
:10362000CF92DF92EF92FF920F931F93CF93DF938E
:10363000CDB7DEB7CA1BDB0B0FB6F894DEBF0FBEEB
:10364000CDBF09942A88398848885F846E847D8438
:103650008C849B84AA84B984C884DF80EE80FD803A
:103660000C811B81AA81B981CE0FD11D0FB6F894B0
:10367000DEBF0FBECDBFED010895EE0FFF1F059019
:0A368000F491E02D0994F894FFCFB7
:10368A00222A2B2C3A3B3C3D3E3F5B5D7C7F004629
:10369A0069746E657373204D6F6E69746F7200740E
:1036AA0065737400C20320030002000100000007D2
:1036BA000006000500040001809A90418E418F8027
:1036CA004545454949498E8F9092924F994F555594
:1036DA0059999A9B9C9D9E9F41494F55A5A5A6A77E
:1036EA00A8A9AAABAC21AEAFB0B1B2B3B4B5B6B764
:1036FA00B8B9BABBBCBDBEBFC0C1C2C3C4C5C6C7C8
:10370A00C8C9CACBCCCDCECFD0D1D2D3D4D5D6D7B7
:10371A00D8D9DADBDCDDDEDFE0E1E2E3E4E5E6E7A7
:10372A00E8E9EAEBECEDEEEFF0F1F2F3F4F5F6F797
:08373A00F8F9FAFBFCFDFEFFAB
:00000001FF
